{
	"KavaContract.sol": {
		"KavaContract": {
			"abi": [
				{
					"inputs": [],
					"stateMutability": "nonpayable",
					"type": "constructor"
				},
				{
					"inputs": [
						{
							"internalType": "address",
							"name": "owner",
							"type": "address"
						}
					],
					"name": "OwnableInvalidOwner",
					"type": "error"
				},
				{
					"inputs": [
						{
							"internalType": "address",
							"name": "account",
							"type": "address"
						}
					],
					"name": "OwnableUnauthorizedAccount",
					"type": "error"
				},
				{
					"anonymous": false,
					"inputs": [
						{
							"indexed": false,
							"internalType": "string",
							"name": "location",
							"type": "string"
						},
						{
							"indexed": false,
							"internalType": "string",
							"name": "issueType",
							"type": "string"
						},
						{
							"indexed": false,
							"internalType": "string",
							"name": "actionTaken",
							"type": "string"
						},
						{
							"indexed": false,
							"internalType": "uint256",
							"name": "timestamp",
							"type": "uint256"
						}
					],
					"name": "GrowthIssueRecorded",
					"type": "event"
				},
				{
					"anonymous": false,
					"inputs": [
						{
							"indexed": false,
							"internalType": "string",
							"name": "location",
							"type": "string"
						},
						{
							"indexed": false,
							"internalType": "string",
							"name": "variety",
							"type": "string"
						},
						{
							"indexed": false,
							"internalType": "uint256",
							"name": "amount",
							"type": "uint256"
						},
						{
							"indexed": false,
							"internalType": "uint256",
							"name": "timestamp",
							"type": "uint256"
						}
					],
					"name": "HarvestRecorded",
					"type": "event"
				},
				{
					"anonymous": false,
					"inputs": [
						{
							"indexed": true,
							"internalType": "address",
							"name": "previousOwner",
							"type": "address"
						},
						{
							"indexed": true,
							"internalType": "address",
							"name": "newOwner",
							"type": "address"
						}
					],
					"name": "OwnershipTransferred",
					"type": "event"
				},
				{
					"anonymous": false,
					"inputs": [
						{
							"indexed": true,
							"internalType": "address",
							"name": "buyer",
							"type": "address"
						},
						{
							"indexed": false,
							"internalType": "uint256",
							"name": "price",
							"type": "uint256"
						}
					],
					"name": "PacketBought",
					"type": "event"
				},
				{
					"anonymous": false,
					"inputs": [
						{
							"indexed": false,
							"internalType": "string",
							"name": "location",
							"type": "string"
						},
						{
							"indexed": false,
							"internalType": "string",
							"name": "pestType",
							"type": "string"
						},
						{
							"indexed": false,
							"internalType": "string",
							"name": "method",
							"type": "string"
						},
						{
							"indexed": false,
							"internalType": "uint256",
							"name": "cost",
							"type": "uint256"
						},
						{
							"indexed": false,
							"internalType": "uint256",
							"name": "timestamp",
							"type": "uint256"
						}
					],
					"name": "PestControlRecorded",
					"type": "event"
				},
				{
					"anonymous": false,
					"inputs": [
						{
							"indexed": false,
							"internalType": "string",
							"name": "location",
							"type": "string"
						},
						{
							"indexed": false,
							"internalType": "string",
							"name": "variety",
							"type": "string"
						},
						{
							"indexed": false,
							"internalType": "uint256",
							"name": "timestamp",
							"type": "uint256"
						}
					],
					"name": "PlantingRecorded",
					"type": "event"
				},
				{
					"anonymous": false,
					"inputs": [
						{
							"indexed": false,
							"internalType": "uint256",
							"name": "amount",
							"type": "uint256"
						},
						{
							"indexed": false,
							"internalType": "uint256",
							"name": "price",
							"type": "uint256"
						},
						{
							"indexed": false,
							"internalType": "uint256",
							"name": "timestamp",
							"type": "uint256"
						}
					],
					"name": "SaleRecorded",
					"type": "event"
				},
				{
					"inputs": [],
					"name": "buyKavaPacket",
					"outputs": [],
					"stateMutability": "payable",
					"type": "function"
				},
				{
					"inputs": [
						{
							"internalType": "uint256",
							"name": "",
							"type": "uint256"
						}
					],
					"name": "growthIssues",
					"outputs": [
						{
							"internalType": "string",
							"name": "location",
							"type": "string"
						},
						{
							"internalType": "string",
							"name": "issueType",
							"type": "string"
						},
						{
							"internalType": "string",
							"name": "actionTaken",
							"type": "string"
						},
						{
							"internalType": "uint256",
							"name": "timestamp",
							"type": "uint256"
						}
					],
					"stateMutability": "view",
					"type": "function"
				},
				{
					"inputs": [
						{
							"internalType": "uint256",
							"name": "",
							"type": "uint256"
						}
					],
					"name": "harvests",
					"outputs": [
						{
							"internalType": "string",
							"name": "location",
							"type": "string"
						},
						{
							"internalType": "string",
							"name": "variety",
							"type": "string"
						},
						{
							"internalType": "uint256",
							"name": "amount",
							"type": "uint256"
						},
						{
							"internalType": "uint256",
							"name": "timestamp",
							"type": "uint256"
						}
					],
					"stateMutability": "view",
					"type": "function"
				},
				{
					"inputs": [],
					"name": "kavaPacket",
					"outputs": [
						{
							"internalType": "address payable",
							"name": "sellerAddress",
							"type": "address"
						},
						{
							"internalType": "string",
							"name": "sellerName",
							"type": "string"
						},
						{
							"internalType": "string",
							"name": "sellerContact",
							"type": "string"
						},
						{
							"internalType": "uint256",
							"name": "quality",
							"type": "uint256"
						},
						{
							"internalType": "uint256",
							"name": "quantity",
							"type": "uint256"
						},
						{
							"internalType": "uint256",
							"name": "price",
							"type": "uint256"
						},
						{
							"internalType": "bool",
							"name": "isSold",
							"type": "bool"
						}
					],
					"stateMutability": "view",
					"type": "function"
				},
				{
					"inputs": [],
					"name": "owner",
					"outputs": [
						{
							"internalType": "address",
							"name": "",
							"type": "address"
						}
					],
					"stateMutability": "view",
					"type": "function"
				},
				{
					"inputs": [
						{
							"internalType": "uint256",
							"name": "",
							"type": "uint256"
						}
					],
					"name": "pestControls",
					"outputs": [
						{
							"internalType": "string",
							"name": "location",
							"type": "string"
						},
						{
							"internalType": "string",
							"name": "pestType",
							"type": "string"
						},
						{
							"internalType": "string",
							"name": "method",
							"type": "string"
						},
						{
							"internalType": "uint256",
							"name": "cost",
							"type": "uint256"
						},
						{
							"internalType": "uint256",
							"name": "timestamp",
							"type": "uint256"
						}
					],
					"stateMutability": "view",
					"type": "function"
				},
				{
					"inputs": [
						{
							"internalType": "uint256",
							"name": "",
							"type": "uint256"
						}
					],
					"name": "plantings",
					"outputs": [
						{
							"internalType": "string",
							"name": "location",
							"type": "string"
						},
						{
							"internalType": "string",
							"name": "variety",
							"type": "string"
						},
						{
							"internalType": "uint256",
							"name": "timestamp",
							"type": "uint256"
						}
					],
					"stateMutability": "view",
					"type": "function"
				},
				{
					"inputs": [
						{
							"internalType": "string",
							"name": "_location",
							"type": "string"
						},
						{
							"internalType": "string",
							"name": "_issueType",
							"type": "string"
						},
						{
							"internalType": "string",
							"name": "_actionTaken",
							"type": "string"
						}
					],
					"name": "recordGrowthIssue",
					"outputs": [],
					"stateMutability": "nonpayable",
					"type": "function"
				},
				{
					"inputs": [
						{
							"internalType": "string",
							"name": "_location",
							"type": "string"
						},
						{
							"internalType": "string",
							"name": "_variety",
							"type": "string"
						},
						{
							"internalType": "uint256",
							"name": "_amount",
							"type": "uint256"
						}
					],
					"name": "recordHarvest",
					"outputs": [],
					"stateMutability": "nonpayable",
					"type": "function"
				},
				{
					"inputs": [
						{
							"internalType": "string",
							"name": "_location",
							"type": "string"
						},
						{
							"internalType": "string",
							"name": "_pestType",
							"type": "string"
						},
						{
							"internalType": "string",
							"name": "_method",
							"type": "string"
						},
						{
							"internalType": "uint256",
							"name": "_cost",
							"type": "uint256"
						}
					],
					"name": "recordPestControl",
					"outputs": [],
					"stateMutability": "nonpayable",
					"type": "function"
				},
				{
					"inputs": [
						{
							"internalType": "string",
							"name": "_location",
							"type": "string"
						},
						{
							"internalType": "string",
							"name": "_variety",
							"type": "string"
						}
					],
					"name": "recordPlanting",
					"outputs": [],
					"stateMutability": "nonpayable",
					"type": "function"
				},
				{
					"inputs": [
						{
							"internalType": "uint256",
							"name": "_amount",
							"type": "uint256"
						},
						{
							"internalType": "uint256",
							"name": "_price",
							"type": "uint256"
						}
					],
					"name": "recordSale",
					"outputs": [],
					"stateMutability": "nonpayable",
					"type": "function"
				},
				{
					"inputs": [],
					"name": "renounceOwnership",
					"outputs": [],
					"stateMutability": "nonpayable",
					"type": "function"
				},
				{
					"inputs": [
						{
							"internalType": "uint256",
							"name": "",
							"type": "uint256"
						}
					],
					"name": "sales",
					"outputs": [
						{
							"internalType": "uint256",
							"name": "amount",
							"type": "uint256"
						},
						{
							"internalType": "uint256",
							"name": "price",
							"type": "uint256"
						},
						{
							"internalType": "uint256",
							"name": "timestamp",
							"type": "uint256"
						}
					],
					"stateMutability": "view",
					"type": "function"
				},
				{
					"inputs": [
						{
							"internalType": "address payable",
							"name": "_sellerAddress",
							"type": "address"
						},
						{
							"internalType": "string",
							"name": "_sellerName",
							"type": "string"
						},
						{
							"internalType": "string",
							"name": "_sellerContact",
							"type": "string"
						},
						{
							"internalType": "uint256",
							"name": "_quality",
							"type": "uint256"
						},
						{
							"internalType": "uint256",
							"name": "_quantity",
							"type": "uint256"
						},
						{
							"internalType": "uint256",
							"name": "_price",
							"type": "uint256"
						}
					],
					"name": "setKavaPacket",
					"outputs": [],
					"stateMutability": "nonpayable",
					"type": "function"
				},
				{
					"inputs": [
						{
							"internalType": "address",
							"name": "newOwner",
							"type": "address"
						}
					],
					"name": "transferOwnership",
					"outputs": [],
					"stateMutability": "nonpayable",
					"type": "function"
				},
				{
					"inputs": [
						{
							"internalType": "uint256",
							"name": "_amount",
							"type": "uint256"
						}
					],
					"name": "withdraw",
					"outputs": [],
					"stateMutability": "nonpayable",
					"type": "function"
				},
				{
					"stateMutability": "payable",
					"type": "receive"
				}
			],
			"devdoc": {
				"errors": {
					"OwnableInvalidOwner(address)": [
						{
							"details": "The owner is not a valid owner account. (eg. `address(0)`)"
						}
					],
					"OwnableUnauthorizedAccount(address)": [
						{
							"details": "The caller account is not authorized to perform an operation."
						}
					]
				},
				"kind": "dev",
				"methods": {
					"owner()": {
						"details": "Returns the address of the current owner."
					},
					"renounceOwnership()": {
						"details": "Leaves the contract without owner. It will not be possible to call `onlyOwner` functions. Can only be called by the current owner. NOTE: Renouncing ownership will leave the contract without an owner, thereby disabling any functionality that is only available to the owner."
					},
					"transferOwnership(address)": {
						"details": "Transfers ownership of the contract to a new account (`newOwner`). Can only be called by the current owner."
					}
				},
				"version": 1
			},
			"evm": {
				"assembly": "    /* \"KavaContract.sol\":176:4745  contract KavaContract is Ownable {... */\n  mstore(0x40, 0x80)\n    /* \"KavaContract.sol\":3599:3763  constructor() Ownable(0xCD4c773a5BA577075A3758499F22E5fBD55fDC6A) {... */\n  callvalue\n  dup1\n  iszero\n  tag_1\n  jumpi\n  0x00\n  dup1\n  revert\ntag_1:\n  pop\n    /* \"KavaContract.sol\":3621:3663  0xCD4c773a5BA577075A3758499F22E5fBD55fDC6A */\n  0xcd4c773a5ba577075a3758499f22e5fbd55fdc6a\n    /* \"@openzeppelin/contracts/access/Ownable.sol\":1297:1298  0 */\n  0x00\n    /* \"@openzeppelin/contracts/access/Ownable.sol\":1273:1299  initialOwner == address(0) */\n  0xffffffffffffffffffffffffffffffffffffffff\n  and\n    /* \"@openzeppelin/contracts/access/Ownable.sol\":1273:1285  initialOwner */\n  dup2\n    /* \"@openzeppelin/contracts/access/Ownable.sol\":1273:1299  initialOwner == address(0) */\n  0xffffffffffffffffffffffffffffffffffffffff\n  and\n  sub\n    /* \"@openzeppelin/contracts/access/Ownable.sol\":1269:1364  if (initialOwner == address(0)) {... */\n  tag_5\n  jumpi\n    /* \"@openzeppelin/contracts/access/Ownable.sol\":1350:1351  0 */\n  0x00\n    /* \"@openzeppelin/contracts/access/Ownable.sol\":1322:1353  OwnableInvalidOwner(address(0)) */\n  mload(0x40)\n  0x1e4fbdf700000000000000000000000000000000000000000000000000000000\n  dup2\n  mstore\n  0x04\n  add\n  tag_6\n  swap2\n  swap1\n  tag_7\n  jump\t// in\ntag_6:\n  mload(0x40)\n  dup1\n  swap2\n  sub\n  swap1\n  revert\n    /* \"@openzeppelin/contracts/access/Ownable.sol\":1269:1364  if (initialOwner == address(0)) {... */\ntag_5:\n    /* \"@openzeppelin/contracts/access/Ownable.sol\":1373:1405  _transferOwnership(initialOwner) */\n  tag_8\n    /* \"@openzeppelin/contracts/access/Ownable.sol\":1392:1404  initialOwner */\n  dup2\n    /* \"@openzeppelin/contracts/access/Ownable.sol\":1373:1391  _transferOwnership */\n  shl(0x20, tag_9)\n    /* \"@openzeppelin/contracts/access/Ownable.sol\":1373:1405  _transferOwnership(initialOwner) */\n  0x20\n  shr\n  jump\t// in\ntag_8:\n    /* \"@openzeppelin/contracts/access/Ownable.sol\":1225:1412  constructor(address initialOwner) {... */\n  pop\n    /* \"KavaContract.sol\":176:4745  contract KavaContract is Ownable {... */\n  jump(tag_11)\n    /* \"@openzeppelin/contracts/access/Ownable.sol\":2912:3099  function _transferOwnership(address newOwner) internal virtual {... */\ntag_9:\n    /* \"@openzeppelin/contracts/access/Ownable.sol\":2985:3001  address oldOwner */\n  0x00\n    /* \"@openzeppelin/contracts/access/Ownable.sol\":3004:3010  _owner */\n  dup1\n  0x00\n  swap1\n  sload\n  swap1\n  0x0100\n  exp\n  swap1\n  div\n  0xffffffffffffffffffffffffffffffffffffffff\n  and\n    /* \"@openzeppelin/contracts/access/Ownable.sol\":2985:3010  address oldOwner = _owner */\n  swap1\n  pop\n    /* \"@openzeppelin/contracts/access/Ownable.sol\":3029:3037  newOwner */\n  dup2\n    /* \"@openzeppelin/contracts/access/Ownable.sol\":3020:3026  _owner */\n  0x00\n  dup1\n    /* \"@openzeppelin/contracts/access/Ownable.sol\":3020:3037  _owner = newOwner */\n  0x0100\n  exp\n  dup2\n  sload\n  dup2\n  0xffffffffffffffffffffffffffffffffffffffff\n  mul\n  not\n  and\n  swap1\n  dup4\n  0xffffffffffffffffffffffffffffffffffffffff\n  and\n  mul\n  or\n  swap1\n  sstore\n  pop\n    /* \"@openzeppelin/contracts/access/Ownable.sol\":3083:3091  newOwner */\n  dup2\n    /* \"@openzeppelin/contracts/access/Ownable.sol\":3052:3092  OwnershipTransferred(oldOwner, newOwner) */\n  0xffffffffffffffffffffffffffffffffffffffff\n  and\n    /* \"@openzeppelin/contracts/access/Ownable.sol\":3073:3081  oldOwner */\n  dup2\n    /* \"@openzeppelin/contracts/access/Ownable.sol\":3052:3092  OwnershipTransferred(oldOwner, newOwner) */\n  0xffffffffffffffffffffffffffffffffffffffff\n  and\n  0x8be0079c531659141344cd1fd0a4f28419497f9722a3daafe3b4186f6b6457e0\n  mload(0x40)\n  mload(0x40)\n  dup1\n  swap2\n  sub\n  swap1\n  log3\n    /* \"@openzeppelin/contracts/access/Ownable.sol\":2975:3099  {... */\n  pop\n    /* \"@openzeppelin/contracts/access/Ownable.sol\":2912:3099  function _transferOwnership(address newOwner) internal virtual {... */\n  pop\n  jump\t// out\n    /* \"#utility.yul\":7:133   */\ntag_13:\n    /* \"#utility.yul\":44:51   */\n  0x00\n    /* \"#utility.yul\":84:126   */\n  0xffffffffffffffffffffffffffffffffffffffff\n    /* \"#utility.yul\":77:82   */\n  dup3\n    /* \"#utility.yul\":73:127   */\n  and\n    /* \"#utility.yul\":62:127   */\n  swap1\n  pop\n    /* \"#utility.yul\":7:133   */\n  swap2\n  swap1\n  pop\n  jump\t// out\n    /* \"#utility.yul\":139:235   */\ntag_14:\n    /* \"#utility.yul\":176:183   */\n  0x00\n    /* \"#utility.yul\":205:229   */\n  tag_19\n    /* \"#utility.yul\":223:228   */\n  dup3\n    /* \"#utility.yul\":205:229   */\n  tag_13\n  jump\t// in\ntag_19:\n    /* \"#utility.yul\":194:229   */\n  swap1\n  pop\n    /* \"#utility.yul\":139:235   */\n  swap2\n  swap1\n  pop\n  jump\t// out\n    /* \"#utility.yul\":241:359   */\ntag_15:\n    /* \"#utility.yul\":328:352   */\n  tag_21\n    /* \"#utility.yul\":346:351   */\n  dup2\n    /* \"#utility.yul\":328:352   */\n  tag_14\n  jump\t// in\ntag_21:\n    /* \"#utility.yul\":323:326   */\n  dup3\n    /* \"#utility.yul\":316:353   */\n  mstore\n    /* \"#utility.yul\":241:359   */\n  pop\n  pop\n  jump\t// out\n    /* \"#utility.yul\":365:587   */\ntag_7:\n    /* \"#utility.yul\":458:462   */\n  0x00\n    /* \"#utility.yul\":496:498   */\n  0x20\n    /* \"#utility.yul\":485:494   */\n  dup3\n    /* \"#utility.yul\":481:499   */\n  add\n    /* \"#utility.yul\":473:499   */\n  swap1\n  pop\n    /* \"#utility.yul\":509:580   */\n  tag_23\n    /* \"#utility.yul\":577:578   */\n  0x00\n    /* \"#utility.yul\":566:575   */\n  dup4\n    /* \"#utility.yul\":562:579   */\n  add\n    /* \"#utility.yul\":553:559   */\n  dup5\n    /* \"#utility.yul\":509:580   */\n  tag_15\n  jump\t// in\ntag_23:\n    /* \"#utility.yul\":365:587   */\n  swap3\n  swap2\n  pop\n  pop\n  jump\t// out\n    /* \"KavaContract.sol\":176:4745  contract KavaContract is Ownable {... */\ntag_11:\n  dataSize(sub_0)\n  dup1\n  dataOffset(sub_0)\n  0x00\n  codecopy\n  0x00\n  return\nstop\n\nsub_0: assembly {\n        /* \"KavaContract.sol\":176:4745  contract KavaContract is Ownable {... */\n      mstore(0x40, 0x80)\n      jumpi(tag_1, lt(calldatasize, 0x04))\n      shr(0xe0, calldataload(0x00))\n      dup1\n      0x715018a6\n      gt\n      tag_20\n      jumpi\n      dup1\n      0xb5f522f7\n      gt\n      tag_21\n      jumpi\n      dup1\n      0xb5f522f7\n      eq\n      tag_15\n      jumpi\n      dup1\n      0xc1aa2fc4\n      eq\n      tag_16\n      jumpi\n      dup1\n      0xe3ffcc8c\n      eq\n      tag_17\n      jumpi\n      dup1\n      0xedb32960\n      eq\n      tag_18\n      jumpi\n      dup1\n      0xf2fde38b\n      eq\n      tag_19\n      jumpi\n      jump(tag_2)\n    tag_21:\n      dup1\n      0x715018a6\n      eq\n      tag_11\n      jumpi\n      dup1\n      0x7a861764\n      eq\n      tag_12\n      jumpi\n      dup1\n      0x8da5cb5b\n      eq\n      tag_13\n      jumpi\n      dup1\n      0x90eeb918\n      eq\n      tag_14\n      jumpi\n      jump(tag_2)\n    tag_20:\n      dup1\n      0x2e1a7d4d\n      gt\n      tag_22\n      jumpi\n      dup1\n      0x2e1a7d4d\n      eq\n      tag_7\n      jumpi\n      dup1\n      0x35a423b0\n      eq\n      tag_8\n      jumpi\n      dup1\n      0x3cb61bb3\n      eq\n      tag_9\n      jumpi\n      dup1\n      0x518e61c4\n      eq\n      tag_10\n      jumpi\n      jump(tag_2)\n    tag_22:\n      dup1\n      0x0240579a\n      eq\n      tag_3\n      jumpi\n      dup1\n      0x05bbfe54\n      eq\n      tag_4\n      jumpi\n      dup1\n      0x23586685\n      eq\n      tag_5\n      jumpi\n      dup1\n      0x2a785dd9\n      eq\n      tag_6\n      jumpi\n      jump(tag_2)\n    tag_1:\n      jumpi(tag_2, calldatasize)\n      stop\n    tag_2:\n      0x00\n      dup1\n      revert\n        /* \"KavaContract.sol\":983:1016  GrowthIssue[] public growthIssues */\n    tag_3:\n      callvalue\n      dup1\n      iszero\n      tag_25\n      jumpi\n      0x00\n      dup1\n      revert\n    tag_25:\n      pop\n      tag_26\n      0x04\n      dup1\n      calldatasize\n      sub\n      dup2\n      add\n      swap1\n      tag_27\n      swap2\n      swap1\n      tag_28\n      jump\t// in\n    tag_27:\n      tag_29\n      jump\t// in\n    tag_26:\n      mload(0x40)\n      tag_30\n      swap5\n      swap4\n      swap3\n      swap2\n      swap1\n      tag_31\n      jump\t// in\n    tag_30:\n      mload(0x40)\n      dup1\n      swap2\n      sub\n      swap1\n      return\n        /* \"KavaContract.sol\":2253:2629  function recordGrowthIssue(string memory _location, string memory _issueType, string memory _actionTaken) public onlyOwner {... */\n    tag_4:\n      callvalue\n      dup1\n      iszero\n      tag_32\n      jumpi\n      0x00\n      dup1\n      revert\n    tag_32:\n      pop\n      tag_33\n      0x04\n      dup1\n      calldatasize\n      sub\n      dup2\n      add\n      swap1\n      tag_34\n      swap2\n      swap1\n      tag_35\n      jump\t// in\n    tag_34:\n      tag_36\n      jump\t// in\n    tag_33:\n      stop\n        /* \"KavaContract.sol\":2966:3207  function recordSale(uint256 _amount, uint256 _price) public onlyOwner {... */\n    tag_5:\n      callvalue\n      dup1\n      iszero\n      tag_37\n      jumpi\n      0x00\n      dup1\n      revert\n    tag_37:\n      pop\n      tag_38\n      0x04\n      dup1\n      calldatasize\n      sub\n      dup2\n      add\n      swap1\n      tag_39\n      swap2\n      swap1\n      tag_40\n      jump\t// in\n    tag_39:\n      tag_41\n      jump\t// in\n    tag_38:\n      stop\n        /* \"KavaContract.sol\":1858:2245  function recordPestControl(string memory _location, string memory _pestType, string memory _method, uint256 _cost) public onlyOwner {... */\n    tag_6:\n      callvalue\n      dup1\n      iszero\n      tag_42\n      jumpi\n      0x00\n      dup1\n      revert\n    tag_42:\n      pop\n      tag_43\n      0x04\n      dup1\n      calldatasize\n      sub\n      dup2\n      add\n      swap1\n      tag_44\n      swap2\n      swap1\n      tag_45\n      jump\t// in\n    tag_44:\n      tag_46\n      jump\t// in\n    tag_43:\n      stop\n        /* \"KavaContract.sol\":4515:4705  function withdraw(uint256 _amount) public onlyOwner {... */\n    tag_7:\n      callvalue\n      dup1\n      iszero\n      tag_47\n      jumpi\n      0x00\n      dup1\n      revert\n    tag_47:\n      pop\n      tag_48\n      0x04\n      dup1\n      calldatasize\n      sub\n      dup2\n      add\n      swap1\n      tag_49\n      swap2\n      swap1\n      tag_28\n      jump\t// in\n    tag_49:\n      tag_50\n      jump\t// in\n    tag_48:\n      stop\n        /* \"KavaContract.sol\":1023:1048  Harvest[] public harvests */\n    tag_8:\n      callvalue\n      dup1\n      iszero\n      tag_51\n      jumpi\n      0x00\n      dup1\n      revert\n    tag_51:\n      pop\n      tag_52\n      0x04\n      dup1\n      calldatasize\n      sub\n      dup2\n      add\n      swap1\n      tag_53\n      swap2\n      swap1\n      tag_28\n      jump\t// in\n    tag_53:\n      tag_54\n      jump\t// in\n    tag_52:\n      mload(0x40)\n      tag_55\n      swap5\n      swap4\n      swap3\n      swap2\n      swap1\n      tag_56\n      jump\t// in\n    tag_55:\n      mload(0x40)\n      dup1\n      swap2\n      sub\n      swap1\n      return\n        /* \"KavaContract.sol\":3443:3467  Packet public kavaPacket */\n    tag_9:\n      callvalue\n      dup1\n      iszero\n      tag_57\n      jumpi\n      0x00\n      dup1\n      revert\n    tag_57:\n      pop\n      tag_58\n      tag_59\n      jump\t// in\n    tag_58:\n      mload(0x40)\n      tag_60\n      swap8\n      swap7\n      swap6\n      swap5\n      swap4\n      swap3\n      swap2\n      swap1\n      tag_61\n      jump\t// in\n    tag_60:\n      mload(0x40)\n      dup1\n      swap2\n      sub\n      swap1\n      return\n        /* \"KavaContract.sol\":4141:4507  function buyKavaPacket() public payable {... */\n    tag_10:\n      tag_62\n      tag_63\n      jump\t// in\n    tag_62:\n      stop\n        /* \"@openzeppelin/contracts/access/Ownable.sol\":2293:2394  function renounceOwnership() public virtual onlyOwner {... */\n    tag_11:\n      callvalue\n      dup1\n      iszero\n      tag_64\n      jumpi\n      0x00\n      dup1\n      revert\n    tag_64:\n      pop\n      tag_65\n      tag_66\n      jump\t// in\n    tag_65:\n      stop\n        /* \"KavaContract.sol\":2637:2958  function recordHarvest(string memory _location, string memory _variety, uint256 _amount) public onlyOwner {... */\n    tag_12:\n      callvalue\n      dup1\n      iszero\n      tag_67\n      jumpi\n      0x00\n      dup1\n      revert\n    tag_67:\n      pop\n      tag_68\n      0x04\n      dup1\n      calldatasize\n      sub\n      dup2\n      add\n      swap1\n      tag_69\n      swap2\n      swap1\n      tag_70\n      jump\t// in\n    tag_69:\n      tag_71\n      jump\t// in\n    tag_68:\n      stop\n        /* \"@openzeppelin/contracts/access/Ownable.sol\":1638:1723  function owner() public view virtual returns (address) {... */\n    tag_13:\n      callvalue\n      dup1\n      iszero\n      tag_72\n      jumpi\n      0x00\n      dup1\n      revert\n    tag_72:\n      pop\n      tag_73\n      tag_74\n      jump\t// in\n    tag_73:\n      mload(0x40)\n      tag_75\n      swap2\n      swap1\n      tag_76\n      jump\t// in\n    tag_75:\n      mload(0x40)\n      dup1\n      swap2\n      sub\n      swap1\n      return\n        /* \"KavaContract.sol\":909:936  Planting[] public plantings */\n    tag_14:\n      callvalue\n      dup1\n      iszero\n      tag_77\n      jumpi\n      0x00\n      dup1\n      revert\n    tag_77:\n      pop\n      tag_78\n      0x04\n      dup1\n      calldatasize\n      sub\n      dup2\n      add\n      swap1\n      tag_79\n      swap2\n      swap1\n      tag_28\n      jump\t// in\n    tag_79:\n      tag_80\n      jump\t// in\n    tag_78:\n      mload(0x40)\n      tag_81\n      swap4\n      swap3\n      swap2\n      swap1\n      tag_82\n      jump\t// in\n    tag_81:\n      mload(0x40)\n      dup1\n      swap2\n      sub\n      swap1\n      return\n        /* \"KavaContract.sol\":1055:1074  Sale[] public sales */\n    tag_15:\n      callvalue\n      dup1\n      iszero\n      tag_83\n      jumpi\n      0x00\n      dup1\n      revert\n    tag_83:\n      pop\n      tag_84\n      0x04\n      dup1\n      calldatasize\n      sub\n      dup2\n      add\n      swap1\n      tag_85\n      swap2\n      swap1\n      tag_28\n      jump\t// in\n    tag_85:\n      tag_86\n      jump\t// in\n    tag_84:\n      mload(0x40)\n      tag_87\n      swap4\n      swap3\n      swap2\n      swap1\n      tag_88\n      jump\t// in\n    tag_87:\n      mload(0x40)\n      dup1\n      swap2\n      sub\n      swap1\n      return\n        /* \"KavaContract.sol\":943:976  PestControl[] public pestControls */\n    tag_16:\n      callvalue\n      dup1\n      iszero\n      tag_89\n      jumpi\n      0x00\n      dup1\n      revert\n    tag_89:\n      pop\n      tag_90\n      0x04\n      dup1\n      calldatasize\n      sub\n      dup2\n      add\n      swap1\n      tag_91\n      swap2\n      swap1\n      tag_28\n      jump\t// in\n    tag_91:\n      tag_92\n      jump\t// in\n    tag_90:\n      mload(0x40)\n      tag_93\n      swap6\n      swap5\n      swap4\n      swap3\n      swap2\n      swap1\n      tag_94\n      jump\t// in\n    tag_93:\n      mload(0x40)\n      dup1\n      swap2\n      sub\n      swap1\n      return\n        /* \"KavaContract.sol\":3771:4133  function setKavaPacket(... */\n    tag_17:\n      callvalue\n      dup1\n      iszero\n      tag_95\n      jumpi\n      0x00\n      dup1\n      revert\n    tag_95:\n      pop\n      tag_96\n      0x04\n      dup1\n      calldatasize\n      sub\n      dup2\n      add\n      swap1\n      tag_97\n      swap2\n      swap1\n      tag_98\n      jump\t// in\n    tag_97:\n      tag_99\n      jump\t// in\n    tag_96:\n      stop\n        /* \"KavaContract.sol\":1557:1850  function recordPlanting(string memory _location, string memory _variety) public onlyOwner {... */\n    tag_18:\n      callvalue\n      dup1\n      iszero\n      tag_100\n      jumpi\n      0x00\n      dup1\n      revert\n    tag_100:\n      pop\n      tag_101\n      0x04\n      dup1\n      calldatasize\n      sub\n      dup2\n      add\n      swap1\n      tag_102\n      swap2\n      swap1\n      tag_103\n      jump\t// in\n    tag_102:\n      tag_104\n      jump\t// in\n    tag_101:\n      stop\n        /* \"@openzeppelin/contracts/access/Ownable.sol\":2543:2758  function transferOwnership(address newOwner) public virtual onlyOwner {... */\n    tag_19:\n      callvalue\n      dup1\n      iszero\n      tag_105\n      jumpi\n      0x00\n      dup1\n      revert\n    tag_105:\n      pop\n      tag_106\n      0x04\n      dup1\n      calldatasize\n      sub\n      dup2\n      add\n      swap1\n      tag_107\n      swap2\n      swap1\n      tag_108\n      jump\t// in\n    tag_107:\n      tag_109\n      jump\t// in\n    tag_106:\n      stop\n        /* \"KavaContract.sol\":983:1016  GrowthIssue[] public growthIssues */\n    tag_29:\n      0x03\n      dup2\n      dup2\n      sload\n      dup2\n      lt\n      tag_110\n      jumpi\n      0x00\n      dup1\n      revert\n    tag_110:\n      swap1\n      0x00\n      mstore\n      keccak256(0x00, 0x20)\n      swap1\n      0x04\n      mul\n      add\n      0x00\n      swap2\n      pop\n      swap1\n      pop\n      dup1\n      0x00\n      add\n      dup1\n      sload\n      tag_112\n      swap1\n      tag_113\n      jump\t// in\n    tag_112:\n      dup1\n      0x1f\n      add\n      0x20\n      dup1\n      swap2\n      div\n      mul\n      0x20\n      add\n      mload(0x40)\n      swap1\n      dup2\n      add\n      0x40\n      mstore\n      dup1\n      swap3\n      swap2\n      swap1\n      dup2\n      dup2\n      mstore\n      0x20\n      add\n      dup3\n      dup1\n      sload\n      tag_114\n      swap1\n      tag_113\n      jump\t// in\n    tag_114:\n      dup1\n      iszero\n      tag_115\n      jumpi\n      dup1\n      0x1f\n      lt\n      tag_116\n      jumpi\n      0x0100\n      dup1\n      dup4\n      sload\n      div\n      mul\n      dup4\n      mstore\n      swap2\n      0x20\n      add\n      swap2\n      jump(tag_115)\n    tag_116:\n      dup3\n      add\n      swap2\n      swap1\n      0x00\n      mstore\n      keccak256(0x00, 0x20)\n      swap1\n    tag_117:\n      dup2\n      sload\n      dup2\n      mstore\n      swap1\n      0x01\n      add\n      swap1\n      0x20\n      add\n      dup1\n      dup4\n      gt\n      tag_117\n      jumpi\n      dup3\n      swap1\n      sub\n      0x1f\n      and\n      dup3\n      add\n      swap2\n    tag_115:\n      pop\n      pop\n      pop\n      pop\n      pop\n      swap1\n      dup1\n      0x01\n      add\n      dup1\n      sload\n      tag_118\n      swap1\n      tag_113\n      jump\t// in\n    tag_118:\n      dup1\n      0x1f\n      add\n      0x20\n      dup1\n      swap2\n      div\n      mul\n      0x20\n      add\n      mload(0x40)\n      swap1\n      dup2\n      add\n      0x40\n      mstore\n      dup1\n      swap3\n      swap2\n      swap1\n      dup2\n      dup2\n      mstore\n      0x20\n      add\n      dup3\n      dup1\n      sload\n      tag_119\n      swap1\n      tag_113\n      jump\t// in\n    tag_119:\n      dup1\n      iszero\n      tag_120\n      jumpi\n      dup1\n      0x1f\n      lt\n      tag_121\n      jumpi\n      0x0100\n      dup1\n      dup4\n      sload\n      div\n      mul\n      dup4\n      mstore\n      swap2\n      0x20\n      add\n      swap2\n      jump(tag_120)\n    tag_121:\n      dup3\n      add\n      swap2\n      swap1\n      0x00\n      mstore\n      keccak256(0x00, 0x20)\n      swap1\n    tag_122:\n      dup2\n      sload\n      dup2\n      mstore\n      swap1\n      0x01\n      add\n      swap1\n      0x20\n      add\n      dup1\n      dup4\n      gt\n      tag_122\n      jumpi\n      dup3\n      swap1\n      sub\n      0x1f\n      and\n      dup3\n      add\n      swap2\n    tag_120:\n      pop\n      pop\n      pop\n      pop\n      pop\n      swap1\n      dup1\n      0x02\n      add\n      dup1\n      sload\n      tag_123\n      swap1\n      tag_113\n      jump\t// in\n    tag_123:\n      dup1\n      0x1f\n      add\n      0x20\n      dup1\n      swap2\n      div\n      mul\n      0x20\n      add\n      mload(0x40)\n      swap1\n      dup2\n      add\n      0x40\n      mstore\n      dup1\n      swap3\n      swap2\n      swap1\n      dup2\n      dup2\n      mstore\n      0x20\n      add\n      dup3\n      dup1\n      sload\n      tag_124\n      swap1\n      tag_113\n      jump\t// in\n    tag_124:\n      dup1\n      iszero\n      tag_125\n      jumpi\n      dup1\n      0x1f\n      lt\n      tag_126\n      jumpi\n      0x0100\n      dup1\n      dup4\n      sload\n      div\n      mul\n      dup4\n      mstore\n      swap2\n      0x20\n      add\n      swap2\n      jump(tag_125)\n    tag_126:\n      dup3\n      add\n      swap2\n      swap1\n      0x00\n      mstore\n      keccak256(0x00, 0x20)\n      swap1\n    tag_127:\n      dup2\n      sload\n      dup2\n      mstore\n      swap1\n      0x01\n      add\n      swap1\n      0x20\n      add\n      dup1\n      dup4\n      gt\n      tag_127\n      jumpi\n      dup3\n      swap1\n      sub\n      0x1f\n      and\n      dup3\n      add\n      swap2\n    tag_125:\n      pop\n      pop\n      pop\n      pop\n      pop\n      swap1\n      dup1\n      0x03\n      add\n      sload\n      swap1\n      pop\n      dup5\n      jump\t// out\n        /* \"KavaContract.sol\":2253:2629  function recordGrowthIssue(string memory _location, string memory _issueType, string memory _actionTaken) public onlyOwner {... */\n    tag_36:\n        /* \"@openzeppelin/contracts/access/Ownable.sol\":1531:1544  _checkOwner() */\n      tag_129\n        /* \"@openzeppelin/contracts/access/Ownable.sol\":1531:1542  _checkOwner */\n      tag_130\n        /* \"@openzeppelin/contracts/access/Ownable.sol\":1531:1544  _checkOwner() */\n      jump\t// in\n    tag_129:\n        /* \"KavaContract.sol\":2387:2420  GrowthIssue memory newGrowthIssue */\n      0x00\n        /* \"KavaContract.sol\":2423:2488  GrowthIssue(_location, _issueType, _actionTaken, block.timestamp) */\n      mload(0x40)\n      dup1\n      0x80\n      add\n      0x40\n      mstore\n      dup1\n        /* \"KavaContract.sol\":2435:2444  _location */\n      dup6\n        /* \"KavaContract.sol\":2423:2488  GrowthIssue(_location, _issueType, _actionTaken, block.timestamp) */\n      dup2\n      mstore\n      0x20\n      add\n        /* \"KavaContract.sol\":2446:2456  _issueType */\n      dup5\n        /* \"KavaContract.sol\":2423:2488  GrowthIssue(_location, _issueType, _actionTaken, block.timestamp) */\n      dup2\n      mstore\n      0x20\n      add\n        /* \"KavaContract.sol\":2458:2470  _actionTaken */\n      dup4\n        /* \"KavaContract.sol\":2423:2488  GrowthIssue(_location, _issueType, _actionTaken, block.timestamp) */\n      dup2\n      mstore\n      0x20\n      add\n        /* \"KavaContract.sol\":2472:2487  block.timestamp */\n      timestamp\n        /* \"KavaContract.sol\":2423:2488  GrowthIssue(_location, _issueType, _actionTaken, block.timestamp) */\n      dup2\n      mstore\n      pop\n        /* \"KavaContract.sol\":2387:2488  GrowthIssue memory newGrowthIssue = GrowthIssue(_location, _issueType, _actionTaken, block.timestamp) */\n      swap1\n      pop\n        /* \"KavaContract.sol\":2499:2511  growthIssues */\n      0x03\n        /* \"KavaContract.sol\":2517:2531  newGrowthIssue */\n      dup2\n        /* \"KavaContract.sol\":2499:2532  growthIssues.push(newGrowthIssue) */\n      swap1\n      dup1\n      0x01\n      dup2\n      sload\n      add\n      dup1\n      dup3\n      sstore\n      dup1\n      swap2\n      pop\n      pop\n      0x01\n      swap1\n      sub\n      swap1\n      0x00\n      mstore\n      keccak256(0x00, 0x20)\n      swap1\n      0x04\n      mul\n      add\n      0x00\n      swap1\n      swap2\n      swap1\n      swap2\n      swap1\n      swap2\n      pop\n      0x00\n      dup3\n      add\n      mload\n      dup2\n      0x00\n      add\n      swap1\n      dup2\n      tag_133\n      swap2\n      swap1\n      tag_134\n      jump\t// in\n    tag_133:\n      pop\n      0x20\n      dup3\n      add\n      mload\n      dup2\n      0x01\n      add\n      swap1\n      dup2\n      tag_135\n      swap2\n      swap1\n      tag_134\n      jump\t// in\n    tag_135:\n      pop\n      0x40\n      dup3\n      add\n      mload\n      dup2\n      0x02\n      add\n      swap1\n      dup2\n      tag_136\n      swap2\n      swap1\n      tag_134\n      jump\t// in\n    tag_136:\n      pop\n      0x60\n      dup3\n      add\n      mload\n      dup2\n      0x03\n      add\n      sstore\n      pop\n      pop\n        /* \"KavaContract.sol\":2548:2621  GrowthIssueRecorded(_location, _issueType, _actionTaken, block.timestamp) */\n      0x4e856a989d4072cc7e3f5a66b4b4e63ecde73eadc9d6d80e5d634f7202bec318\n        /* \"KavaContract.sol\":2568:2577  _location */\n      dup5\n        /* \"KavaContract.sol\":2579:2589  _issueType */\n      dup5\n        /* \"KavaContract.sol\":2591:2603  _actionTaken */\n      dup5\n        /* \"KavaContract.sol\":2605:2620  block.timestamp */\n      timestamp\n        /* \"KavaContract.sol\":2548:2621  GrowthIssueRecorded(_location, _issueType, _actionTaken, block.timestamp) */\n      mload(0x40)\n      tag_137\n      swap5\n      swap4\n      swap3\n      swap2\n      swap1\n      tag_31\n      jump\t// in\n    tag_137:\n      mload(0x40)\n      dup1\n      swap2\n      sub\n      swap1\n      log1\n        /* \"KavaContract.sol\":2376:2629  {... */\n      pop\n        /* \"KavaContract.sol\":2253:2629  function recordGrowthIssue(string memory _location, string memory _issueType, string memory _actionTaken) public onlyOwner {... */\n      pop\n      pop\n      pop\n      jump\t// out\n        /* \"KavaContract.sol\":2966:3207  function recordSale(uint256 _amount, uint256 _price) public onlyOwner {... */\n    tag_41:\n        /* \"@openzeppelin/contracts/access/Ownable.sol\":1531:1544  _checkOwner() */\n      tag_139\n        /* \"@openzeppelin/contracts/access/Ownable.sol\":1531:1542  _checkOwner */\n      tag_130\n        /* \"@openzeppelin/contracts/access/Ownable.sol\":1531:1544  _checkOwner() */\n      jump\t// in\n    tag_139:\n        /* \"KavaContract.sol\":3047:3066  Sale memory newSale */\n      0x00\n        /* \"KavaContract.sol\":3069:3107  Sale(_amount, _price, block.timestamp) */\n      mload(0x40)\n      dup1\n      0x60\n      add\n      0x40\n      mstore\n      dup1\n        /* \"KavaContract.sol\":3074:3081  _amount */\n      dup5\n        /* \"KavaContract.sol\":3069:3107  Sale(_amount, _price, block.timestamp) */\n      dup2\n      mstore\n      0x20\n      add\n        /* \"KavaContract.sol\":3083:3089  _price */\n      dup4\n        /* \"KavaContract.sol\":3069:3107  Sale(_amount, _price, block.timestamp) */\n      dup2\n      mstore\n      0x20\n      add\n        /* \"KavaContract.sol\":3091:3106  block.timestamp */\n      timestamp\n        /* \"KavaContract.sol\":3069:3107  Sale(_amount, _price, block.timestamp) */\n      dup2\n      mstore\n      pop\n        /* \"KavaContract.sol\":3047:3107  Sale memory newSale = Sale(_amount, _price, block.timestamp) */\n      swap1\n      pop\n        /* \"KavaContract.sol\":3118:3123  sales */\n      0x05\n        /* \"KavaContract.sol\":3129:3136  newSale */\n      dup2\n        /* \"KavaContract.sol\":3118:3137  sales.push(newSale) */\n      swap1\n      dup1\n      0x01\n      dup2\n      sload\n      add\n      dup1\n      dup3\n      sstore\n      dup1\n      swap2\n      pop\n      pop\n      0x01\n      swap1\n      sub\n      swap1\n      0x00\n      mstore\n      keccak256(0x00, 0x20)\n      swap1\n      0x03\n      mul\n      add\n      0x00\n      swap1\n      swap2\n      swap1\n      swap2\n      swap1\n      swap2\n      pop\n      0x00\n      dup3\n      add\n      mload\n      dup2\n      0x00\n      add\n      sstore\n      0x20\n      dup3\n      add\n      mload\n      dup2\n      0x01\n      add\n      sstore\n      0x40\n      dup3\n      add\n      mload\n      dup2\n      0x02\n      add\n      sstore\n      pop\n      pop\n        /* \"KavaContract.sol\":3153:3199  SaleRecorded(_amount, _price, block.timestamp) */\n      0x63f8d95ad35c512226027f0fa3a6190eb75ecd6c07350dce6343ed46caf7de7f\n        /* \"KavaContract.sol\":3166:3173  _amount */\n      dup4\n        /* \"KavaContract.sol\":3175:3181  _price */\n      dup4\n        /* \"KavaContract.sol\":3183:3198  block.timestamp */\n      timestamp\n        /* \"KavaContract.sol\":3153:3199  SaleRecorded(_amount, _price, block.timestamp) */\n      mload(0x40)\n      tag_142\n      swap4\n      swap3\n      swap2\n      swap1\n      tag_88\n      jump\t// in\n    tag_142:\n      mload(0x40)\n      dup1\n      swap2\n      sub\n      swap1\n      log1\n        /* \"KavaContract.sol\":3036:3207  {... */\n      pop\n        /* \"KavaContract.sol\":2966:3207  function recordSale(uint256 _amount, uint256 _price) public onlyOwner {... */\n      pop\n      pop\n      jump\t// out\n        /* \"KavaContract.sol\":1858:2245  function recordPestControl(string memory _location, string memory _pestType, string memory _method, uint256 _cost) public onlyOwner {... */\n    tag_46:\n        /* \"@openzeppelin/contracts/access/Ownable.sol\":1531:1544  _checkOwner() */\n      tag_144\n        /* \"@openzeppelin/contracts/access/Ownable.sol\":1531:1542  _checkOwner */\n      tag_130\n        /* \"@openzeppelin/contracts/access/Ownable.sol\":1531:1544  _checkOwner() */\n      jump\t// in\n    tag_144:\n        /* \"KavaContract.sol\":2001:2034  PestControl memory newPestControl */\n      0x00\n        /* \"KavaContract.sol\":2037:2103  PestControl(_location, _pestType, _method, _cost, block.timestamp) */\n      mload(0x40)\n      dup1\n      0xa0\n      add\n      0x40\n      mstore\n      dup1\n        /* \"KavaContract.sol\":2049:2058  _location */\n      dup7\n        /* \"KavaContract.sol\":2037:2103  PestControl(_location, _pestType, _method, _cost, block.timestamp) */\n      dup2\n      mstore\n      0x20\n      add\n        /* \"KavaContract.sol\":2060:2069  _pestType */\n      dup6\n        /* \"KavaContract.sol\":2037:2103  PestControl(_location, _pestType, _method, _cost, block.timestamp) */\n      dup2\n      mstore\n      0x20\n      add\n        /* \"KavaContract.sol\":2071:2078  _method */\n      dup5\n        /* \"KavaContract.sol\":2037:2103  PestControl(_location, _pestType, _method, _cost, block.timestamp) */\n      dup2\n      mstore\n      0x20\n      add\n        /* \"KavaContract.sol\":2080:2085  _cost */\n      dup4\n        /* \"KavaContract.sol\":2037:2103  PestControl(_location, _pestType, _method, _cost, block.timestamp) */\n      dup2\n      mstore\n      0x20\n      add\n        /* \"KavaContract.sol\":2087:2102  block.timestamp */\n      timestamp\n        /* \"KavaContract.sol\":2037:2103  PestControl(_location, _pestType, _method, _cost, block.timestamp) */\n      dup2\n      mstore\n      pop\n        /* \"KavaContract.sol\":2001:2103  PestControl memory newPestControl = PestControl(_location, _pestType, _method, _cost, block.timestamp) */\n      swap1\n      pop\n        /* \"KavaContract.sol\":2114:2126  pestControls */\n      0x02\n        /* \"KavaContract.sol\":2132:2146  newPestControl */\n      dup2\n        /* \"KavaContract.sol\":2114:2147  pestControls.push(newPestControl) */\n      swap1\n      dup1\n      0x01\n      dup2\n      sload\n      add\n      dup1\n      dup3\n      sstore\n      dup1\n      swap2\n      pop\n      pop\n      0x01\n      swap1\n      sub\n      swap1\n      0x00\n      mstore\n      keccak256(0x00, 0x20)\n      swap1\n      0x05\n      mul\n      add\n      0x00\n      swap1\n      swap2\n      swap1\n      swap2\n      swap1\n      swap2\n      pop\n      0x00\n      dup3\n      add\n      mload\n      dup2\n      0x00\n      add\n      swap1\n      dup2\n      tag_147\n      swap2\n      swap1\n      tag_134\n      jump\t// in\n    tag_147:\n      pop\n      0x20\n      dup3\n      add\n      mload\n      dup2\n      0x01\n      add\n      swap1\n      dup2\n      tag_148\n      swap2\n      swap1\n      tag_134\n      jump\t// in\n    tag_148:\n      pop\n      0x40\n      dup3\n      add\n      mload\n      dup2\n      0x02\n      add\n      swap1\n      dup2\n      tag_149\n      swap2\n      swap1\n      tag_134\n      jump\t// in\n    tag_149:\n      pop\n      0x60\n      dup3\n      add\n      mload\n      dup2\n      0x03\n      add\n      sstore\n      0x80\n      dup3\n      add\n      mload\n      dup2\n      0x04\n      add\n      sstore\n      pop\n      pop\n        /* \"KavaContract.sol\":2163:2237  PestControlRecorded(_location, _pestType, _method, _cost, block.timestamp) */\n      0x3da0000b91ae3aa1147054f643820745dbd78252e4f6669045c582d7fa18c7d4\n        /* \"KavaContract.sol\":2183:2192  _location */\n      dup6\n        /* \"KavaContract.sol\":2194:2203  _pestType */\n      dup6\n        /* \"KavaContract.sol\":2205:2212  _method */\n      dup6\n        /* \"KavaContract.sol\":2214:2219  _cost */\n      dup6\n        /* \"KavaContract.sol\":2221:2236  block.timestamp */\n      timestamp\n        /* \"KavaContract.sol\":2163:2237  PestControlRecorded(_location, _pestType, _method, _cost, block.timestamp) */\n      mload(0x40)\n      tag_150\n      swap6\n      swap5\n      swap4\n      swap3\n      swap2\n      swap1\n      tag_94\n      jump\t// in\n    tag_150:\n      mload(0x40)\n      dup1\n      swap2\n      sub\n      swap1\n      log1\n        /* \"KavaContract.sol\":1990:2245  {... */\n      pop\n        /* \"KavaContract.sol\":1858:2245  function recordPestControl(string memory _location, string memory _pestType, string memory _method, uint256 _cost) public onlyOwner {... */\n      pop\n      pop\n      pop\n      pop\n      jump\t// out\n        /* \"KavaContract.sol\":4515:4705  function withdraw(uint256 _amount) public onlyOwner {... */\n    tag_50:\n        /* \"@openzeppelin/contracts/access/Ownable.sol\":1531:1544  _checkOwner() */\n      tag_152\n        /* \"@openzeppelin/contracts/access/Ownable.sol\":1531:1542  _checkOwner */\n      tag_130\n        /* \"@openzeppelin/contracts/access/Ownable.sol\":1531:1544  _checkOwner() */\n      jump\t// in\n    tag_152:\n        /* \"KavaContract.sol\":4597:4618  address(this).balance */\n      selfbalance\n        /* \"KavaContract.sol\":4586:4593  _amount */\n      dup2\n        /* \"KavaContract.sol\":4586:4618  _amount <= address(this).balance */\n      gt\n      iszero\n        /* \"KavaContract.sol\":4578:4652  require(_amount <= address(this).balance, \"Insufficient contract balance\") */\n      tag_154\n      jumpi\n      mload(0x40)\n      0x08c379a000000000000000000000000000000000000000000000000000000000\n      dup2\n      mstore\n      0x04\n      add\n      tag_155\n      swap1\n      tag_156\n      jump\t// in\n    tag_155:\n      mload(0x40)\n      dup1\n      swap2\n      sub\n      swap1\n      revert\n    tag_154:\n        /* \"KavaContract.sol\":4671:4678  owner() */\n      tag_157\n        /* \"KavaContract.sol\":4671:4676  owner */\n      tag_74\n        /* \"KavaContract.sol\":4671:4678  owner() */\n      jump\t// in\n    tag_157:\n        /* \"KavaContract.sol\":4663:4688  payable(owner()).transfer */\n      0xffffffffffffffffffffffffffffffffffffffff\n      and\n        /* \"KavaContract.sol\":4663:4697  payable(owner()).transfer(_amount) */\n      0x08fc\n        /* \"KavaContract.sol\":4689:4696  _amount */\n      dup3\n        /* \"KavaContract.sol\":4663:4697  payable(owner()).transfer(_amount) */\n      swap1\n      dup2\n      iszero\n      mul\n      swap1\n      mload(0x40)\n      0x00\n      mload(0x40)\n      dup1\n      dup4\n      sub\n      dup2\n      dup6\n      dup9\n      dup9\n      call\n      swap4\n      pop\n      pop\n      pop\n      pop\n      iszero\n      dup1\n      iszero\n      tag_159\n      jumpi\n      returndatasize\n      0x00\n      dup1\n      returndatacopy\n      revert(0x00, returndatasize)\n    tag_159:\n      pop\n        /* \"KavaContract.sol\":4515:4705  function withdraw(uint256 _amount) public onlyOwner {... */\n      pop\n      jump\t// out\n        /* \"KavaContract.sol\":1023:1048  Harvest[] public harvests */\n    tag_54:\n      0x04\n      dup2\n      dup2\n      sload\n      dup2\n      lt\n      tag_160\n      jumpi\n      0x00\n      dup1\n      revert\n    tag_160:\n      swap1\n      0x00\n      mstore\n      keccak256(0x00, 0x20)\n      swap1\n      0x04\n      mul\n      add\n      0x00\n      swap2\n      pop\n      swap1\n      pop\n      dup1\n      0x00\n      add\n      dup1\n      sload\n      tag_162\n      swap1\n      tag_113\n      jump\t// in\n    tag_162:\n      dup1\n      0x1f\n      add\n      0x20\n      dup1\n      swap2\n      div\n      mul\n      0x20\n      add\n      mload(0x40)\n      swap1\n      dup2\n      add\n      0x40\n      mstore\n      dup1\n      swap3\n      swap2\n      swap1\n      dup2\n      dup2\n      mstore\n      0x20\n      add\n      dup3\n      dup1\n      sload\n      tag_163\n      swap1\n      tag_113\n      jump\t// in\n    tag_163:\n      dup1\n      iszero\n      tag_164\n      jumpi\n      dup1\n      0x1f\n      lt\n      tag_165\n      jumpi\n      0x0100\n      dup1\n      dup4\n      sload\n      div\n      mul\n      dup4\n      mstore\n      swap2\n      0x20\n      add\n      swap2\n      jump(tag_164)\n    tag_165:\n      dup3\n      add\n      swap2\n      swap1\n      0x00\n      mstore\n      keccak256(0x00, 0x20)\n      swap1\n    tag_166:\n      dup2\n      sload\n      dup2\n      mstore\n      swap1\n      0x01\n      add\n      swap1\n      0x20\n      add\n      dup1\n      dup4\n      gt\n      tag_166\n      jumpi\n      dup3\n      swap1\n      sub\n      0x1f\n      and\n      dup3\n      add\n      swap2\n    tag_164:\n      pop\n      pop\n      pop\n      pop\n      pop\n      swap1\n      dup1\n      0x01\n      add\n      dup1\n      sload\n      tag_167\n      swap1\n      tag_113\n      jump\t// in\n    tag_167:\n      dup1\n      0x1f\n      add\n      0x20\n      dup1\n      swap2\n      div\n      mul\n      0x20\n      add\n      mload(0x40)\n      swap1\n      dup2\n      add\n      0x40\n      mstore\n      dup1\n      swap3\n      swap2\n      swap1\n      dup2\n      dup2\n      mstore\n      0x20\n      add\n      dup3\n      dup1\n      sload\n      tag_168\n      swap1\n      tag_113\n      jump\t// in\n    tag_168:\n      dup1\n      iszero\n      tag_169\n      jumpi\n      dup1\n      0x1f\n      lt\n      tag_170\n      jumpi\n      0x0100\n      dup1\n      dup4\n      sload\n      div\n      mul\n      dup4\n      mstore\n      swap2\n      0x20\n      add\n      swap2\n      jump(tag_169)\n    tag_170:\n      dup3\n      add\n      swap2\n      swap1\n      0x00\n      mstore\n      keccak256(0x00, 0x20)\n      swap1\n    tag_171:\n      dup2\n      sload\n      dup2\n      mstore\n      swap1\n      0x01\n      add\n      swap1\n      0x20\n      add\n      dup1\n      dup4\n      gt\n      tag_171\n      jumpi\n      dup3\n      swap1\n      sub\n      0x1f\n      and\n      dup3\n      add\n      swap2\n    tag_169:\n      pop\n      pop\n      pop\n      pop\n      pop\n      swap1\n      dup1\n      0x02\n      add\n      sload\n      swap1\n      dup1\n      0x03\n      add\n      sload\n      swap1\n      pop\n      dup5\n      jump\t// out\n        /* \"KavaContract.sol\":3443:3467  Packet public kavaPacket */\n    tag_59:\n      0x06\n      dup1\n      0x00\n      add\n      0x00\n      swap1\n      sload\n      swap1\n      0x0100\n      exp\n      swap1\n      div\n      0xffffffffffffffffffffffffffffffffffffffff\n      and\n      swap1\n      dup1\n      0x01\n      add\n      dup1\n      sload\n      tag_172\n      swap1\n      tag_113\n      jump\t// in\n    tag_172:\n      dup1\n      0x1f\n      add\n      0x20\n      dup1\n      swap2\n      div\n      mul\n      0x20\n      add\n      mload(0x40)\n      swap1\n      dup2\n      add\n      0x40\n      mstore\n      dup1\n      swap3\n      swap2\n      swap1\n      dup2\n      dup2\n      mstore\n      0x20\n      add\n      dup3\n      dup1\n      sload\n      tag_173\n      swap1\n      tag_113\n      jump\t// in\n    tag_173:\n      dup1\n      iszero\n      tag_174\n      jumpi\n      dup1\n      0x1f\n      lt\n      tag_175\n      jumpi\n      0x0100\n      dup1\n      dup4\n      sload\n      div\n      mul\n      dup4\n      mstore\n      swap2\n      0x20\n      add\n      swap2\n      jump(tag_174)\n    tag_175:\n      dup3\n      add\n      swap2\n      swap1\n      0x00\n      mstore\n      keccak256(0x00, 0x20)\n      swap1\n    tag_176:\n      dup2\n      sload\n      dup2\n      mstore\n      swap1\n      0x01\n      add\n      swap1\n      0x20\n      add\n      dup1\n      dup4\n      gt\n      tag_176\n      jumpi\n      dup3\n      swap1\n      sub\n      0x1f\n      and\n      dup3\n      add\n      swap2\n    tag_174:\n      pop\n      pop\n      pop\n      pop\n      pop\n      swap1\n      dup1\n      0x02\n      add\n      dup1\n      sload\n      tag_177\n      swap1\n      tag_113\n      jump\t// in\n    tag_177:\n      dup1\n      0x1f\n      add\n      0x20\n      dup1\n      swap2\n      div\n      mul\n      0x20\n      add\n      mload(0x40)\n      swap1\n      dup2\n      add\n      0x40\n      mstore\n      dup1\n      swap3\n      swap2\n      swap1\n      dup2\n      dup2\n      mstore\n      0x20\n      add\n      dup3\n      dup1\n      sload\n      tag_178\n      swap1\n      tag_113\n      jump\t// in\n    tag_178:\n      dup1\n      iszero\n      tag_179\n      jumpi\n      dup1\n      0x1f\n      lt\n      tag_180\n      jumpi\n      0x0100\n      dup1\n      dup4\n      sload\n      div\n      mul\n      dup4\n      mstore\n      swap2\n      0x20\n      add\n      swap2\n      jump(tag_179)\n    tag_180:\n      dup3\n      add\n      swap2\n      swap1\n      0x00\n      mstore\n      keccak256(0x00, 0x20)\n      swap1\n    tag_181:\n      dup2\n      sload\n      dup2\n      mstore\n      swap1\n      0x01\n      add\n      swap1\n      0x20\n      add\n      dup1\n      dup4\n      gt\n      tag_181\n      jumpi\n      dup3\n      swap1\n      sub\n      0x1f\n      and\n      dup3\n      add\n      swap2\n    tag_179:\n      pop\n      pop\n      pop\n      pop\n      pop\n      swap1\n      dup1\n      0x03\n      add\n      sload\n      swap1\n      dup1\n      0x04\n      add\n      sload\n      swap1\n      dup1\n      0x05\n      add\n      sload\n      swap1\n      dup1\n      0x06\n      add\n      0x00\n      swap1\n      sload\n      swap1\n      0x0100\n      exp\n      swap1\n      div\n      0xff\n      and\n      swap1\n      pop\n      dup8\n      jump\t// out\n        /* \"KavaContract.sol\":4141:4507  function buyKavaPacket() public payable {... */\n    tag_63:\n        /* \"KavaContract.sol\":4201:4211  kavaPacket */\n      0x06\n        /* \"KavaContract.sol\":4201:4218  kavaPacket.isSold */\n      dup1\n      add\n      0x00\n      swap1\n      sload\n      swap1\n      0x0100\n      exp\n      swap1\n      div\n      0xff\n      and\n        /* \"KavaContract.sol\":4200:4218  !kavaPacket.isSold */\n      iszero\n        /* \"KavaContract.sol\":4192:4245  require(!kavaPacket.isSold, \"Packet is already sold\") */\n      tag_183\n      jumpi\n      mload(0x40)\n      0x08c379a000000000000000000000000000000000000000000000000000000000\n      dup2\n      mstore\n      0x04\n      add\n      tag_184\n      swap1\n      tag_185\n      jump\t// in\n    tag_184:\n      mload(0x40)\n      dup1\n      swap2\n      sub\n      swap1\n      revert\n    tag_183:\n        /* \"KavaContract.sol\":4277:4287  kavaPacket */\n      0x06\n        /* \"KavaContract.sol\":4277:4293  kavaPacket.price */\n      0x05\n      add\n      sload\n        /* \"KavaContract.sol\":4264:4273  msg.value */\n      callvalue\n        /* \"KavaContract.sol\":4264:4293  msg.value >= kavaPacket.price */\n      lt\n      iszero\n        /* \"KavaContract.sol\":4256:4316  require(msg.value >= kavaPacket.price, \"Insufficient funds\") */\n      tag_186\n      jumpi\n      mload(0x40)\n      0x08c379a000000000000000000000000000000000000000000000000000000000\n      dup2\n      mstore\n      0x04\n      add\n      tag_187\n      swap1\n      tag_188\n      jump\t// in\n    tag_187:\n      mload(0x40)\n      dup1\n      swap2\n      sub\n      swap1\n      revert\n    tag_186:\n        /* \"KavaContract.sol\":4329:4343  uint256 amount */\n      0x00\n        /* \"KavaContract.sol\":4346:4356  kavaPacket */\n      0x06\n        /* \"KavaContract.sol\":4346:4362  kavaPacket.price */\n      0x05\n      add\n      sload\n        /* \"KavaContract.sol\":4329:4362  uint256 amount = kavaPacket.price */\n      swap1\n      pop\n        /* \"KavaContract.sol\":4393:4397  true */\n      0x01\n        /* \"KavaContract.sol\":4373:4383  kavaPacket */\n      0x06\n        /* \"KavaContract.sol\":4373:4390  kavaPacket.isSold */\n      dup1\n      add\n      0x00\n        /* \"KavaContract.sol\":4373:4397  kavaPacket.isSold = true */\n      0x0100\n      exp\n      dup2\n      sload\n      dup2\n      0xff\n      mul\n      not\n      and\n      swap1\n      dup4\n      iszero\n      iszero\n      mul\n      or\n      swap1\n      sstore\n      pop\n        /* \"KavaContract.sol\":4408:4418  kavaPacket */\n      0x06\n        /* \"KavaContract.sol\":4408:4432  kavaPacket.sellerAddress */\n      0x00\n      add\n      0x00\n      swap1\n      sload\n      swap1\n      0x0100\n      exp\n      swap1\n      div\n      0xffffffffffffffffffffffffffffffffffffffff\n      and\n        /* \"KavaContract.sol\":4408:4441  kavaPacket.sellerAddress.transfer */\n      0xffffffffffffffffffffffffffffffffffffffff\n      and\n        /* \"KavaContract.sol\":4408:4449  kavaPacket.sellerAddress.transfer(amount) */\n      0x08fc\n        /* \"KavaContract.sol\":4442:4448  amount */\n      dup3\n        /* \"KavaContract.sol\":4408:4449  kavaPacket.sellerAddress.transfer(amount) */\n      swap1\n      dup2\n      iszero\n      mul\n      swap1\n      mload(0x40)\n      0x00\n      mload(0x40)\n      dup1\n      dup4\n      sub\n      dup2\n      dup6\n      dup9\n      dup9\n      call\n      swap4\n      pop\n      pop\n      pop\n      pop\n      iszero\n      dup1\n      iszero\n      tag_190\n      jumpi\n      returndatasize\n      0x00\n      dup1\n      returndatacopy\n      revert(0x00, returndatasize)\n    tag_190:\n      pop\n        /* \"KavaContract.sol\":4480:4490  msg.sender */\n      caller\n        /* \"KavaContract.sol\":4467:4499  PacketBought(msg.sender, amount) */\n      0xffffffffffffffffffffffffffffffffffffffff\n      and\n      0xbbd8e4496c407cea1babe34b0a17a1955f9971ea24328997fd91e03c232e0b52\n        /* \"KavaContract.sol\":4492:4498  amount */\n      dup3\n        /* \"KavaContract.sol\":4467:4499  PacketBought(msg.sender, amount) */\n      mload(0x40)\n      tag_191\n      swap2\n      swap1\n      tag_192\n      jump\t// in\n    tag_191:\n      mload(0x40)\n      dup1\n      swap2\n      sub\n      swap1\n      log2\n        /* \"KavaContract.sol\":4181:4507  {... */\n      pop\n        /* \"KavaContract.sol\":4141:4507  function buyKavaPacket() public payable {... */\n      jump\t// out\n        /* \"@openzeppelin/contracts/access/Ownable.sol\":2293:2394  function renounceOwnership() public virtual onlyOwner {... */\n    tag_66:\n        /* \"@openzeppelin/contracts/access/Ownable.sol\":1531:1544  _checkOwner() */\n      tag_194\n        /* \"@openzeppelin/contracts/access/Ownable.sol\":1531:1542  _checkOwner */\n      tag_130\n        /* \"@openzeppelin/contracts/access/Ownable.sol\":1531:1544  _checkOwner() */\n      jump\t// in\n    tag_194:\n        /* \"@openzeppelin/contracts/access/Ownable.sol\":2357:2387  _transferOwnership(address(0)) */\n      tag_196\n        /* \"@openzeppelin/contracts/access/Ownable.sol\":2384:2385  0 */\n      0x00\n        /* \"@openzeppelin/contracts/access/Ownable.sol\":2357:2375  _transferOwnership */\n      tag_197\n        /* \"@openzeppelin/contracts/access/Ownable.sol\":2357:2387  _transferOwnership(address(0)) */\n      jump\t// in\n    tag_196:\n        /* \"@openzeppelin/contracts/access/Ownable.sol\":2293:2394  function renounceOwnership() public virtual onlyOwner {... */\n      jump\t// out\n        /* \"KavaContract.sol\":2637:2958  function recordHarvest(string memory _location, string memory _variety, uint256 _amount) public onlyOwner {... */\n    tag_71:\n        /* \"@openzeppelin/contracts/access/Ownable.sol\":1531:1544  _checkOwner() */\n      tag_199\n        /* \"@openzeppelin/contracts/access/Ownable.sol\":1531:1542  _checkOwner */\n      tag_130\n        /* \"@openzeppelin/contracts/access/Ownable.sol\":1531:1544  _checkOwner() */\n      jump\t// in\n    tag_199:\n        /* \"KavaContract.sol\":2754:2779  Harvest memory newHarvest */\n      0x00\n        /* \"KavaContract.sol\":2782:2836  Harvest(_location, _variety, _amount, block.timestamp) */\n      mload(0x40)\n      dup1\n      0x80\n      add\n      0x40\n      mstore\n      dup1\n        /* \"KavaContract.sol\":2790:2799  _location */\n      dup6\n        /* \"KavaContract.sol\":2782:2836  Harvest(_location, _variety, _amount, block.timestamp) */\n      dup2\n      mstore\n      0x20\n      add\n        /* \"KavaContract.sol\":2801:2809  _variety */\n      dup5\n        /* \"KavaContract.sol\":2782:2836  Harvest(_location, _variety, _amount, block.timestamp) */\n      dup2\n      mstore\n      0x20\n      add\n        /* \"KavaContract.sol\":2811:2818  _amount */\n      dup4\n        /* \"KavaContract.sol\":2782:2836  Harvest(_location, _variety, _amount, block.timestamp) */\n      dup2\n      mstore\n      0x20\n      add\n        /* \"KavaContract.sol\":2820:2835  block.timestamp */\n      timestamp\n        /* \"KavaContract.sol\":2782:2836  Harvest(_location, _variety, _amount, block.timestamp) */\n      dup2\n      mstore\n      pop\n        /* \"KavaContract.sol\":2754:2836  Harvest memory newHarvest = Harvest(_location, _variety, _amount, block.timestamp) */\n      swap1\n      pop\n        /* \"KavaContract.sol\":2847:2855  harvests */\n      0x04\n        /* \"KavaContract.sol\":2861:2871  newHarvest */\n      dup2\n        /* \"KavaContract.sol\":2847:2872  harvests.push(newHarvest) */\n      swap1\n      dup1\n      0x01\n      dup2\n      sload\n      add\n      dup1\n      dup3\n      sstore\n      dup1\n      swap2\n      pop\n      pop\n      0x01\n      swap1\n      sub\n      swap1\n      0x00\n      mstore\n      keccak256(0x00, 0x20)\n      swap1\n      0x04\n      mul\n      add\n      0x00\n      swap1\n      swap2\n      swap1\n      swap2\n      swap1\n      swap2\n      pop\n      0x00\n      dup3\n      add\n      mload\n      dup2\n      0x00\n      add\n      swap1\n      dup2\n      tag_202\n      swap2\n      swap1\n      tag_134\n      jump\t// in\n    tag_202:\n      pop\n      0x20\n      dup3\n      add\n      mload\n      dup2\n      0x01\n      add\n      swap1\n      dup2\n      tag_203\n      swap2\n      swap1\n      tag_134\n      jump\t// in\n    tag_203:\n      pop\n      0x40\n      dup3\n      add\n      mload\n      dup2\n      0x02\n      add\n      sstore\n      0x60\n      dup3\n      add\n      mload\n      dup2\n      0x03\n      add\n      sstore\n      pop\n      pop\n        /* \"KavaContract.sol\":2888:2950  HarvestRecorded(_location, _variety, _amount, block.timestamp) */\n      0xe0f0eb181c5782d146af37bd93dd76081d90a3f76edf32a36a9a17a5a040a542\n        /* \"KavaContract.sol\":2904:2913  _location */\n      dup5\n        /* \"KavaContract.sol\":2915:2923  _variety */\n      dup5\n        /* \"KavaContract.sol\":2925:2932  _amount */\n      dup5\n        /* \"KavaContract.sol\":2934:2949  block.timestamp */\n      timestamp\n        /* \"KavaContract.sol\":2888:2950  HarvestRecorded(_location, _variety, _amount, block.timestamp) */\n      mload(0x40)\n      tag_204\n      swap5\n      swap4\n      swap3\n      swap2\n      swap1\n      tag_56\n      jump\t// in\n    tag_204:\n      mload(0x40)\n      dup1\n      swap2\n      sub\n      swap1\n      log1\n        /* \"KavaContract.sol\":2743:2958  {... */\n      pop\n        /* \"KavaContract.sol\":2637:2958  function recordHarvest(string memory _location, string memory _variety, uint256 _amount) public onlyOwner {... */\n      pop\n      pop\n      pop\n      jump\t// out\n        /* \"@openzeppelin/contracts/access/Ownable.sol\":1638:1723  function owner() public view virtual returns (address) {... */\n    tag_74:\n        /* \"@openzeppelin/contracts/access/Ownable.sol\":1684:1691  address */\n      0x00\n        /* \"@openzeppelin/contracts/access/Ownable.sol\":1710:1716  _owner */\n      dup1\n      0x00\n      swap1\n      sload\n      swap1\n      0x0100\n      exp\n      swap1\n      div\n      0xffffffffffffffffffffffffffffffffffffffff\n      and\n        /* \"@openzeppelin/contracts/access/Ownable.sol\":1703:1716  return _owner */\n      swap1\n      pop\n        /* \"@openzeppelin/contracts/access/Ownable.sol\":1638:1723  function owner() public view virtual returns (address) {... */\n      swap1\n      jump\t// out\n        /* \"KavaContract.sol\":909:936  Planting[] public plantings */\n    tag_80:\n      0x01\n      dup2\n      dup2\n      sload\n      dup2\n      lt\n      tag_206\n      jumpi\n      0x00\n      dup1\n      revert\n    tag_206:\n      swap1\n      0x00\n      mstore\n      keccak256(0x00, 0x20)\n      swap1\n      0x03\n      mul\n      add\n      0x00\n      swap2\n      pop\n      swap1\n      pop\n      dup1\n      0x00\n      add\n      dup1\n      sload\n      tag_208\n      swap1\n      tag_113\n      jump\t// in\n    tag_208:\n      dup1\n      0x1f\n      add\n      0x20\n      dup1\n      swap2\n      div\n      mul\n      0x20\n      add\n      mload(0x40)\n      swap1\n      dup2\n      add\n      0x40\n      mstore\n      dup1\n      swap3\n      swap2\n      swap1\n      dup2\n      dup2\n      mstore\n      0x20\n      add\n      dup3\n      dup1\n      sload\n      tag_209\n      swap1\n      tag_113\n      jump\t// in\n    tag_209:\n      dup1\n      iszero\n      tag_210\n      jumpi\n      dup1\n      0x1f\n      lt\n      tag_211\n      jumpi\n      0x0100\n      dup1\n      dup4\n      sload\n      div\n      mul\n      dup4\n      mstore\n      swap2\n      0x20\n      add\n      swap2\n      jump(tag_210)\n    tag_211:\n      dup3\n      add\n      swap2\n      swap1\n      0x00\n      mstore\n      keccak256(0x00, 0x20)\n      swap1\n    tag_212:\n      dup2\n      sload\n      dup2\n      mstore\n      swap1\n      0x01\n      add\n      swap1\n      0x20\n      add\n      dup1\n      dup4\n      gt\n      tag_212\n      jumpi\n      dup3\n      swap1\n      sub\n      0x1f\n      and\n      dup3\n      add\n      swap2\n    tag_210:\n      pop\n      pop\n      pop\n      pop\n      pop\n      swap1\n      dup1\n      0x01\n      add\n      dup1\n      sload\n      tag_213\n      swap1\n      tag_113\n      jump\t// in\n    tag_213:\n      dup1\n      0x1f\n      add\n      0x20\n      dup1\n      swap2\n      div\n      mul\n      0x20\n      add\n      mload(0x40)\n      swap1\n      dup2\n      add\n      0x40\n      mstore\n      dup1\n      swap3\n      swap2\n      swap1\n      dup2\n      dup2\n      mstore\n      0x20\n      add\n      dup3\n      dup1\n      sload\n      tag_214\n      swap1\n      tag_113\n      jump\t// in\n    tag_214:\n      dup1\n      iszero\n      tag_215\n      jumpi\n      dup1\n      0x1f\n      lt\n      tag_216\n      jumpi\n      0x0100\n      dup1\n      dup4\n      sload\n      div\n      mul\n      dup4\n      mstore\n      swap2\n      0x20\n      add\n      swap2\n      jump(tag_215)\n    tag_216:\n      dup3\n      add\n      swap2\n      swap1\n      0x00\n      mstore\n      keccak256(0x00, 0x20)\n      swap1\n    tag_217:\n      dup2\n      sload\n      dup2\n      mstore\n      swap1\n      0x01\n      add\n      swap1\n      0x20\n      add\n      dup1\n      dup4\n      gt\n      tag_217\n      jumpi\n      dup3\n      swap1\n      sub\n      0x1f\n      and\n      dup3\n      add\n      swap2\n    tag_215:\n      pop\n      pop\n      pop\n      pop\n      pop\n      swap1\n      dup1\n      0x02\n      add\n      sload\n      swap1\n      pop\n      dup4\n      jump\t// out\n        /* \"KavaContract.sol\":1055:1074  Sale[] public sales */\n    tag_86:\n      0x05\n      dup2\n      dup2\n      sload\n      dup2\n      lt\n      tag_218\n      jumpi\n      0x00\n      dup1\n      revert\n    tag_218:\n      swap1\n      0x00\n      mstore\n      keccak256(0x00, 0x20)\n      swap1\n      0x03\n      mul\n      add\n      0x00\n      swap2\n      pop\n      swap1\n      pop\n      dup1\n      0x00\n      add\n      sload\n      swap1\n      dup1\n      0x01\n      add\n      sload\n      swap1\n      dup1\n      0x02\n      add\n      sload\n      swap1\n      pop\n      dup4\n      jump\t// out\n        /* \"KavaContract.sol\":943:976  PestControl[] public pestControls */\n    tag_92:\n      0x02\n      dup2\n      dup2\n      sload\n      dup2\n      lt\n      tag_220\n      jumpi\n      0x00\n      dup1\n      revert\n    tag_220:\n      swap1\n      0x00\n      mstore\n      keccak256(0x00, 0x20)\n      swap1\n      0x05\n      mul\n      add\n      0x00\n      swap2\n      pop\n      swap1\n      pop\n      dup1\n      0x00\n      add\n      dup1\n      sload\n      tag_222\n      swap1\n      tag_113\n      jump\t// in\n    tag_222:\n      dup1\n      0x1f\n      add\n      0x20\n      dup1\n      swap2\n      div\n      mul\n      0x20\n      add\n      mload(0x40)\n      swap1\n      dup2\n      add\n      0x40\n      mstore\n      dup1\n      swap3\n      swap2\n      swap1\n      dup2\n      dup2\n      mstore\n      0x20\n      add\n      dup3\n      dup1\n      sload\n      tag_223\n      swap1\n      tag_113\n      jump\t// in\n    tag_223:\n      dup1\n      iszero\n      tag_224\n      jumpi\n      dup1\n      0x1f\n      lt\n      tag_225\n      jumpi\n      0x0100\n      dup1\n      dup4\n      sload\n      div\n      mul\n      dup4\n      mstore\n      swap2\n      0x20\n      add\n      swap2\n      jump(tag_224)\n    tag_225:\n      dup3\n      add\n      swap2\n      swap1\n      0x00\n      mstore\n      keccak256(0x00, 0x20)\n      swap1\n    tag_226:\n      dup2\n      sload\n      dup2\n      mstore\n      swap1\n      0x01\n      add\n      swap1\n      0x20\n      add\n      dup1\n      dup4\n      gt\n      tag_226\n      jumpi\n      dup3\n      swap1\n      sub\n      0x1f\n      and\n      dup3\n      add\n      swap2\n    tag_224:\n      pop\n      pop\n      pop\n      pop\n      pop\n      swap1\n      dup1\n      0x01\n      add\n      dup1\n      sload\n      tag_227\n      swap1\n      tag_113\n      jump\t// in\n    tag_227:\n      dup1\n      0x1f\n      add\n      0x20\n      dup1\n      swap2\n      div\n      mul\n      0x20\n      add\n      mload(0x40)\n      swap1\n      dup2\n      add\n      0x40\n      mstore\n      dup1\n      swap3\n      swap2\n      swap1\n      dup2\n      dup2\n      mstore\n      0x20\n      add\n      dup3\n      dup1\n      sload\n      tag_228\n      swap1\n      tag_113\n      jump\t// in\n    tag_228:\n      dup1\n      iszero\n      tag_229\n      jumpi\n      dup1\n      0x1f\n      lt\n      tag_230\n      jumpi\n      0x0100\n      dup1\n      dup4\n      sload\n      div\n      mul\n      dup4\n      mstore\n      swap2\n      0x20\n      add\n      swap2\n      jump(tag_229)\n    tag_230:\n      dup3\n      add\n      swap2\n      swap1\n      0x00\n      mstore\n      keccak256(0x00, 0x20)\n      swap1\n    tag_231:\n      dup2\n      sload\n      dup2\n      mstore\n      swap1\n      0x01\n      add\n      swap1\n      0x20\n      add\n      dup1\n      dup4\n      gt\n      tag_231\n      jumpi\n      dup3\n      swap1\n      sub\n      0x1f\n      and\n      dup3\n      add\n      swap2\n    tag_229:\n      pop\n      pop\n      pop\n      pop\n      pop\n      swap1\n      dup1\n      0x02\n      add\n      dup1\n      sload\n      tag_232\n      swap1\n      tag_113\n      jump\t// in\n    tag_232:\n      dup1\n      0x1f\n      add\n      0x20\n      dup1\n      swap2\n      div\n      mul\n      0x20\n      add\n      mload(0x40)\n      swap1\n      dup2\n      add\n      0x40\n      mstore\n      dup1\n      swap3\n      swap2\n      swap1\n      dup2\n      dup2\n      mstore\n      0x20\n      add\n      dup3\n      dup1\n      sload\n      tag_233\n      swap1\n      tag_113\n      jump\t// in\n    tag_233:\n      dup1\n      iszero\n      tag_234\n      jumpi\n      dup1\n      0x1f\n      lt\n      tag_235\n      jumpi\n      0x0100\n      dup1\n      dup4\n      sload\n      div\n      mul\n      dup4\n      mstore\n      swap2\n      0x20\n      add\n      swap2\n      jump(tag_234)\n    tag_235:\n      dup3\n      add\n      swap2\n      swap1\n      0x00\n      mstore\n      keccak256(0x00, 0x20)\n      swap1\n    tag_236:\n      dup2\n      sload\n      dup2\n      mstore\n      swap1\n      0x01\n      add\n      swap1\n      0x20\n      add\n      dup1\n      dup4\n      gt\n      tag_236\n      jumpi\n      dup3\n      swap1\n      sub\n      0x1f\n      and\n      dup3\n      add\n      swap2\n    tag_234:\n      pop\n      pop\n      pop\n      pop\n      pop\n      swap1\n      dup1\n      0x03\n      add\n      sload\n      swap1\n      dup1\n      0x04\n      add\n      sload\n      swap1\n      pop\n      dup6\n      jump\t// out\n        /* \"KavaContract.sol\":3771:4133  function setKavaPacket(... */\n    tag_99:\n        /* \"@openzeppelin/contracts/access/Ownable.sol\":1531:1544  _checkOwner() */\n      tag_238\n        /* \"@openzeppelin/contracts/access/Ownable.sol\":1531:1542  _checkOwner */\n      tag_130\n        /* \"@openzeppelin/contracts/access/Ownable.sol\":1531:1544  _checkOwner() */\n      jump\t// in\n    tag_238:\n        /* \"KavaContract.sol\":4038:4125  Packet(_sellerAddress, _sellerName, _sellerContact, _quality, _quantity, _price, false) */\n      mload(0x40)\n      dup1\n      0xe0\n      add\n      0x40\n      mstore\n      dup1\n        /* \"KavaContract.sol\":4045:4059  _sellerAddress */\n      dup8\n        /* \"KavaContract.sol\":4038:4125  Packet(_sellerAddress, _sellerName, _sellerContact, _quality, _quantity, _price, false) */\n      0xffffffffffffffffffffffffffffffffffffffff\n      and\n      dup2\n      mstore\n      0x20\n      add\n        /* \"KavaContract.sol\":4061:4072  _sellerName */\n      dup7\n        /* \"KavaContract.sol\":4038:4125  Packet(_sellerAddress, _sellerName, _sellerContact, _quality, _quantity, _price, false) */\n      dup2\n      mstore\n      0x20\n      add\n        /* \"KavaContract.sol\":4074:4088  _sellerContact */\n      dup6\n        /* \"KavaContract.sol\":4038:4125  Packet(_sellerAddress, _sellerName, _sellerContact, _quality, _quantity, _price, false) */\n      dup2\n      mstore\n      0x20\n      add\n        /* \"KavaContract.sol\":4090:4098  _quality */\n      dup5\n        /* \"KavaContract.sol\":4038:4125  Packet(_sellerAddress, _sellerName, _sellerContact, _quality, _quantity, _price, false) */\n      dup2\n      mstore\n      0x20\n      add\n        /* \"KavaContract.sol\":4100:4109  _quantity */\n      dup4\n        /* \"KavaContract.sol\":4038:4125  Packet(_sellerAddress, _sellerName, _sellerContact, _quality, _quantity, _price, false) */\n      dup2\n      mstore\n      0x20\n      add\n        /* \"KavaContract.sol\":4111:4117  _price */\n      dup3\n        /* \"KavaContract.sol\":4038:4125  Packet(_sellerAddress, _sellerName, _sellerContact, _quality, _quantity, _price, false) */\n      dup2\n      mstore\n      0x20\n      add\n        /* \"KavaContract.sol\":4119:4124  false */\n      0x00\n        /* \"KavaContract.sol\":4038:4125  Packet(_sellerAddress, _sellerName, _sellerContact, _quality, _quantity, _price, false) */\n      iszero\n      iszero\n      dup2\n      mstore\n      pop\n        /* \"KavaContract.sol\":4025:4035  kavaPacket */\n      0x06\n        /* \"KavaContract.sol\":4025:4125  kavaPacket = Packet(_sellerAddress, _sellerName, _sellerContact, _quality, _quantity, _price, false) */\n      0x00\n      dup3\n      add\n      mload\n      dup2\n      0x00\n      add\n      exp(0x0100, 0x00)\n      dup2\n      sload\n      dup2\n      0xffffffffffffffffffffffffffffffffffffffff\n      mul\n      not\n      and\n      swap1\n      dup4\n      0xffffffffffffffffffffffffffffffffffffffff\n      and\n      mul\n      or\n      swap1\n      sstore\n      pop\n      0x20\n      dup3\n      add\n      mload\n      dup2\n      0x01\n      add\n      swap1\n      dup2\n      tag_240\n      swap2\n      swap1\n      tag_134\n      jump\t// in\n    tag_240:\n      pop\n      0x40\n      dup3\n      add\n      mload\n      dup2\n      0x02\n      add\n      swap1\n      dup2\n      tag_241\n      swap2\n      swap1\n      tag_134\n      jump\t// in\n    tag_241:\n      pop\n      0x60\n      dup3\n      add\n      mload\n      dup2\n      0x03\n      add\n      sstore\n      0x80\n      dup3\n      add\n      mload\n      dup2\n      0x04\n      add\n      sstore\n      0xa0\n      dup3\n      add\n      mload\n      dup2\n      0x05\n      add\n      sstore\n      0xc0\n      dup3\n      add\n      mload\n      dup2\n      0x06\n      add\n      exp(0x0100, 0x00)\n      dup2\n      sload\n      dup2\n      0xff\n      mul\n      not\n      and\n      swap1\n      dup4\n      iszero\n      iszero\n      mul\n      or\n      swap1\n      sstore\n      pop\n      swap1\n      pop\n      pop\n        /* \"KavaContract.sol\":3771:4133  function setKavaPacket(... */\n      pop\n      pop\n      pop\n      pop\n      pop\n      pop\n      jump\t// out\n        /* \"KavaContract.sol\":1557:1850  function recordPlanting(string memory _location, string memory _variety) public onlyOwner {... */\n    tag_104:\n        /* \"@openzeppelin/contracts/access/Ownable.sol\":1531:1544  _checkOwner() */\n      tag_243\n        /* \"@openzeppelin/contracts/access/Ownable.sol\":1531:1542  _checkOwner */\n      tag_130\n        /* \"@openzeppelin/contracts/access/Ownable.sol\":1531:1544  _checkOwner() */\n      jump\t// in\n    tag_243:\n        /* \"KavaContract.sol\":1658:1685  Planting memory newPlanting */\n      0x00\n        /* \"KavaContract.sol\":1688:1734  Planting(_location, _variety, block.timestamp) */\n      mload(0x40)\n      dup1\n      0x60\n      add\n      0x40\n      mstore\n      dup1\n        /* \"KavaContract.sol\":1697:1706  _location */\n      dup5\n        /* \"KavaContract.sol\":1688:1734  Planting(_location, _variety, block.timestamp) */\n      dup2\n      mstore\n      0x20\n      add\n        /* \"KavaContract.sol\":1708:1716  _variety */\n      dup4\n        /* \"KavaContract.sol\":1688:1734  Planting(_location, _variety, block.timestamp) */\n      dup2\n      mstore\n      0x20\n      add\n        /* \"KavaContract.sol\":1718:1733  block.timestamp */\n      timestamp\n        /* \"KavaContract.sol\":1688:1734  Planting(_location, _variety, block.timestamp) */\n      dup2\n      mstore\n      pop\n        /* \"KavaContract.sol\":1658:1734  Planting memory newPlanting = Planting(_location, _variety, block.timestamp) */\n      swap1\n      pop\n        /* \"KavaContract.sol\":1745:1754  plantings */\n      0x01\n        /* \"KavaContract.sol\":1760:1771  newPlanting */\n      dup2\n        /* \"KavaContract.sol\":1745:1772  plantings.push(newPlanting) */\n      swap1\n      dup1\n      0x01\n      dup2\n      sload\n      add\n      dup1\n      dup3\n      sstore\n      dup1\n      swap2\n      pop\n      pop\n      0x01\n      swap1\n      sub\n      swap1\n      0x00\n      mstore\n      keccak256(0x00, 0x20)\n      swap1\n      0x03\n      mul\n      add\n      0x00\n      swap1\n      swap2\n      swap1\n      swap2\n      swap1\n      swap2\n      pop\n      0x00\n      dup3\n      add\n      mload\n      dup2\n      0x00\n      add\n      swap1\n      dup2\n      tag_246\n      swap2\n      swap1\n      tag_134\n      jump\t// in\n    tag_246:\n      pop\n      0x20\n      dup3\n      add\n      mload\n      dup2\n      0x01\n      add\n      swap1\n      dup2\n      tag_247\n      swap2\n      swap1\n      tag_134\n      jump\t// in\n    tag_247:\n      pop\n      0x40\n      dup3\n      add\n      mload\n      dup2\n      0x02\n      add\n      sstore\n      pop\n      pop\n        /* \"KavaContract.sol\":1788:1842  PlantingRecorded(_location, _variety, block.timestamp) */\n      0xd64ecbd123c2815041454fc79c472c2c3379347ad140198431d3e3dd8031dda8\n        /* \"KavaContract.sol\":1805:1814  _location */\n      dup4\n        /* \"KavaContract.sol\":1816:1824  _variety */\n      dup4\n        /* \"KavaContract.sol\":1826:1841  block.timestamp */\n      timestamp\n        /* \"KavaContract.sol\":1788:1842  PlantingRecorded(_location, _variety, block.timestamp) */\n      mload(0x40)\n      tag_248\n      swap4\n      swap3\n      swap2\n      swap1\n      tag_82\n      jump\t// in\n    tag_248:\n      mload(0x40)\n      dup1\n      swap2\n      sub\n      swap1\n      log1\n        /* \"KavaContract.sol\":1647:1850  {... */\n      pop\n        /* \"KavaContract.sol\":1557:1850  function recordPlanting(string memory _location, string memory _variety) public onlyOwner {... */\n      pop\n      pop\n      jump\t// out\n        /* \"@openzeppelin/contracts/access/Ownable.sol\":2543:2758  function transferOwnership(address newOwner) public virtual onlyOwner {... */\n    tag_109:\n        /* \"@openzeppelin/contracts/access/Ownable.sol\":1531:1544  _checkOwner() */\n      tag_250\n        /* \"@openzeppelin/contracts/access/Ownable.sol\":1531:1542  _checkOwner */\n      tag_130\n        /* \"@openzeppelin/contracts/access/Ownable.sol\":1531:1544  _checkOwner() */\n      jump\t// in\n    tag_250:\n        /* \"@openzeppelin/contracts/access/Ownable.sol\":2647:2648  0 */\n      0x00\n        /* \"@openzeppelin/contracts/access/Ownable.sol\":2627:2649  newOwner == address(0) */\n      0xffffffffffffffffffffffffffffffffffffffff\n      and\n        /* \"@openzeppelin/contracts/access/Ownable.sol\":2627:2635  newOwner */\n      dup2\n        /* \"@openzeppelin/contracts/access/Ownable.sol\":2627:2649  newOwner == address(0) */\n      0xffffffffffffffffffffffffffffffffffffffff\n      and\n      sub\n        /* \"@openzeppelin/contracts/access/Ownable.sol\":2623:2714  if (newOwner == address(0)) {... */\n      tag_252\n      jumpi\n        /* \"@openzeppelin/contracts/access/Ownable.sol\":2700:2701  0 */\n      0x00\n        /* \"@openzeppelin/contracts/access/Ownable.sol\":2672:2703  OwnableInvalidOwner(address(0)) */\n      mload(0x40)\n      0x1e4fbdf700000000000000000000000000000000000000000000000000000000\n      dup2\n      mstore\n      0x04\n      add\n      tag_253\n      swap2\n      swap1\n      tag_76\n      jump\t// in\n    tag_253:\n      mload(0x40)\n      dup1\n      swap2\n      sub\n      swap1\n      revert\n        /* \"@openzeppelin/contracts/access/Ownable.sol\":2623:2714  if (newOwner == address(0)) {... */\n    tag_252:\n        /* \"@openzeppelin/contracts/access/Ownable.sol\":2723:2751  _transferOwnership(newOwner) */\n      tag_254\n        /* \"@openzeppelin/contracts/access/Ownable.sol\":2742:2750  newOwner */\n      dup2\n        /* \"@openzeppelin/contracts/access/Ownable.sol\":2723:2741  _transferOwnership */\n      tag_197\n        /* \"@openzeppelin/contracts/access/Ownable.sol\":2723:2751  _transferOwnership(newOwner) */\n      jump\t// in\n    tag_254:\n        /* \"@openzeppelin/contracts/access/Ownable.sol\":2543:2758  function transferOwnership(address newOwner) public virtual onlyOwner {... */\n      pop\n      jump\t// out\n        /* \"@openzeppelin/contracts/access/Ownable.sol\":1796:1958  function _checkOwner() internal view virtual {... */\n    tag_130:\n        /* \"@openzeppelin/contracts/access/Ownable.sol\":1866:1878  _msgSender() */\n      tag_256\n        /* \"@openzeppelin/contracts/access/Ownable.sol\":1866:1876  _msgSender */\n      tag_257\n        /* \"@openzeppelin/contracts/access/Ownable.sol\":1866:1878  _msgSender() */\n      jump\t// in\n    tag_256:\n        /* \"@openzeppelin/contracts/access/Ownable.sol\":1855:1878  owner() != _msgSender() */\n      0xffffffffffffffffffffffffffffffffffffffff\n      and\n        /* \"@openzeppelin/contracts/access/Ownable.sol\":1855:1862  owner() */\n      tag_258\n        /* \"@openzeppelin/contracts/access/Ownable.sol\":1855:1860  owner */\n      tag_74\n        /* \"@openzeppelin/contracts/access/Ownable.sol\":1855:1862  owner() */\n      jump\t// in\n    tag_258:\n        /* \"@openzeppelin/contracts/access/Ownable.sol\":1855:1878  owner() != _msgSender() */\n      0xffffffffffffffffffffffffffffffffffffffff\n      and\n      eq\n        /* \"@openzeppelin/contracts/access/Ownable.sol\":1851:1952  if (owner() != _msgSender()) {... */\n      tag_259\n      jumpi\n        /* \"@openzeppelin/contracts/access/Ownable.sol\":1928:1940  _msgSender() */\n      tag_260\n        /* \"@openzeppelin/contracts/access/Ownable.sol\":1928:1938  _msgSender */\n      tag_257\n        /* \"@openzeppelin/contracts/access/Ownable.sol\":1928:1940  _msgSender() */\n      jump\t// in\n    tag_260:\n        /* \"@openzeppelin/contracts/access/Ownable.sol\":1901:1941  OwnableUnauthorizedAccount(_msgSender()) */\n      mload(0x40)\n      0x118cdaa700000000000000000000000000000000000000000000000000000000\n      dup2\n      mstore\n      0x04\n      add\n      tag_261\n      swap2\n      swap1\n      tag_76\n      jump\t// in\n    tag_261:\n      mload(0x40)\n      dup1\n      swap2\n      sub\n      swap1\n      revert\n        /* \"@openzeppelin/contracts/access/Ownable.sol\":1851:1952  if (owner() != _msgSender()) {... */\n    tag_259:\n        /* \"@openzeppelin/contracts/access/Ownable.sol\":1796:1958  function _checkOwner() internal view virtual {... */\n      jump\t// out\n        /* \"@openzeppelin/contracts/access/Ownable.sol\":2912:3099  function _transferOwnership(address newOwner) internal virtual {... */\n    tag_197:\n        /* \"@openzeppelin/contracts/access/Ownable.sol\":2985:3001  address oldOwner */\n      0x00\n        /* \"@openzeppelin/contracts/access/Ownable.sol\":3004:3010  _owner */\n      dup1\n      0x00\n      swap1\n      sload\n      swap1\n      0x0100\n      exp\n      swap1\n      div\n      0xffffffffffffffffffffffffffffffffffffffff\n      and\n        /* \"@openzeppelin/contracts/access/Ownable.sol\":2985:3010  address oldOwner = _owner */\n      swap1\n      pop\n        /* \"@openzeppelin/contracts/access/Ownable.sol\":3029:3037  newOwner */\n      dup2\n        /* \"@openzeppelin/contracts/access/Ownable.sol\":3020:3026  _owner */\n      0x00\n      dup1\n        /* \"@openzeppelin/contracts/access/Ownable.sol\":3020:3037  _owner = newOwner */\n      0x0100\n      exp\n      dup2\n      sload\n      dup2\n      0xffffffffffffffffffffffffffffffffffffffff\n      mul\n      not\n      and\n      swap1\n      dup4\n      0xffffffffffffffffffffffffffffffffffffffff\n      and\n      mul\n      or\n      swap1\n      sstore\n      pop\n        /* \"@openzeppelin/contracts/access/Ownable.sol\":3083:3091  newOwner */\n      dup2\n        /* \"@openzeppelin/contracts/access/Ownable.sol\":3052:3092  OwnershipTransferred(oldOwner, newOwner) */\n      0xffffffffffffffffffffffffffffffffffffffff\n      and\n        /* \"@openzeppelin/contracts/access/Ownable.sol\":3073:3081  oldOwner */\n      dup2\n        /* \"@openzeppelin/contracts/access/Ownable.sol\":3052:3092  OwnershipTransferred(oldOwner, newOwner) */\n      0xffffffffffffffffffffffffffffffffffffffff\n      and\n      0x8be0079c531659141344cd1fd0a4f28419497f9722a3daafe3b4186f6b6457e0\n      mload(0x40)\n      mload(0x40)\n      dup1\n      swap2\n      sub\n      swap1\n      log3\n        /* \"@openzeppelin/contracts/access/Ownable.sol\":2975:3099  {... */\n      pop\n        /* \"@openzeppelin/contracts/access/Ownable.sol\":2912:3099  function _transferOwnership(address newOwner) internal virtual {... */\n      pop\n      jump\t// out\n        /* \"@openzeppelin/contracts/utils/Context.sol\":656:752  function _msgSender() internal view virtual returns (address) {... */\n    tag_257:\n        /* \"@openzeppelin/contracts/utils/Context.sol\":709:716  address */\n      0x00\n        /* \"@openzeppelin/contracts/utils/Context.sol\":735:745  msg.sender */\n      caller\n        /* \"@openzeppelin/contracts/utils/Context.sol\":728:745  return msg.sender */\n      swap1\n      pop\n        /* \"@openzeppelin/contracts/utils/Context.sol\":656:752  function _msgSender() internal view virtual returns (address) {... */\n      swap1\n      jump\t// out\n        /* \"#utility.yul\":7:82   */\n    tag_264:\n        /* \"#utility.yul\":40:46   */\n      0x00\n        /* \"#utility.yul\":73:75   */\n      0x40\n        /* \"#utility.yul\":67:76   */\n      mload\n        /* \"#utility.yul\":57:76   */\n      swap1\n      pop\n        /* \"#utility.yul\":7:82   */\n      swap1\n      jump\t// out\n        /* \"#utility.yul\":88:205   */\n    tag_265:\n        /* \"#utility.yul\":197:198   */\n      0x00\n        /* \"#utility.yul\":194:195   */\n      dup1\n        /* \"#utility.yul\":187:199   */\n      revert\n        /* \"#utility.yul\":211:328   */\n    tag_266:\n        /* \"#utility.yul\":320:321   */\n      0x00\n        /* \"#utility.yul\":317:318   */\n      dup1\n        /* \"#utility.yul\":310:322   */\n      revert\n        /* \"#utility.yul\":334:411   */\n    tag_267:\n        /* \"#utility.yul\":371:378   */\n      0x00\n        /* \"#utility.yul\":400:405   */\n      dup2\n        /* \"#utility.yul\":389:405   */\n      swap1\n      pop\n        /* \"#utility.yul\":334:411   */\n      swap2\n      swap1\n      pop\n      jump\t// out\n        /* \"#utility.yul\":417:539   */\n    tag_268:\n        /* \"#utility.yul\":490:514   */\n      tag_324\n        /* \"#utility.yul\":508:513   */\n      dup2\n        /* \"#utility.yul\":490:514   */\n      tag_267\n      jump\t// in\n    tag_324:\n        /* \"#utility.yul\":483:488   */\n      dup2\n        /* \"#utility.yul\":480:515   */\n      eq\n        /* \"#utility.yul\":470:533   */\n      tag_325\n      jumpi\n        /* \"#utility.yul\":529:530   */\n      0x00\n        /* \"#utility.yul\":526:527   */\n      dup1\n        /* \"#utility.yul\":519:531   */\n      revert\n        /* \"#utility.yul\":470:533   */\n    tag_325:\n        /* \"#utility.yul\":417:539   */\n      pop\n      jump\t// out\n        /* \"#utility.yul\":545:684   */\n    tag_269:\n        /* \"#utility.yul\":591:596   */\n      0x00\n        /* \"#utility.yul\":629:635   */\n      dup2\n        /* \"#utility.yul\":616:636   */\n      calldataload\n        /* \"#utility.yul\":607:636   */\n      swap1\n      pop\n        /* \"#utility.yul\":645:678   */\n      tag_327\n        /* \"#utility.yul\":672:677   */\n      dup2\n        /* \"#utility.yul\":645:678   */\n      tag_268\n      jump\t// in\n    tag_327:\n        /* \"#utility.yul\":545:684   */\n      swap3\n      swap2\n      pop\n      pop\n      jump\t// out\n        /* \"#utility.yul\":690:1019   */\n    tag_28:\n        /* \"#utility.yul\":749:755   */\n      0x00\n        /* \"#utility.yul\":798:800   */\n      0x20\n        /* \"#utility.yul\":786:795   */\n      dup3\n        /* \"#utility.yul\":777:784   */\n      dup5\n        /* \"#utility.yul\":773:796   */\n      sub\n        /* \"#utility.yul\":769:801   */\n      slt\n        /* \"#utility.yul\":766:885   */\n      iszero\n      tag_329\n      jumpi\n        /* \"#utility.yul\":804:883   */\n      tag_330\n      tag_265\n      jump\t// in\n    tag_330:\n        /* \"#utility.yul\":766:885   */\n    tag_329:\n        /* \"#utility.yul\":924:925   */\n      0x00\n        /* \"#utility.yul\":949:1002   */\n      tag_331\n        /* \"#utility.yul\":994:1001   */\n      dup5\n        /* \"#utility.yul\":985:991   */\n      dup3\n        /* \"#utility.yul\":974:983   */\n      dup6\n        /* \"#utility.yul\":970:992   */\n      add\n        /* \"#utility.yul\":949:1002   */\n      tag_269\n      jump\t// in\n    tag_331:\n        /* \"#utility.yul\":939:1002   */\n      swap2\n      pop\n        /* \"#utility.yul\":895:1012   */\n      pop\n        /* \"#utility.yul\":690:1019   */\n      swap3\n      swap2\n      pop\n      pop\n      jump\t// out\n        /* \"#utility.yul\":1025:1124   */\n    tag_270:\n        /* \"#utility.yul\":1077:1083   */\n      0x00\n        /* \"#utility.yul\":1111:1116   */\n      dup2\n        /* \"#utility.yul\":1105:1117   */\n      mload\n        /* \"#utility.yul\":1095:1117   */\n      swap1\n      pop\n        /* \"#utility.yul\":1025:1124   */\n      swap2\n      swap1\n      pop\n      jump\t// out\n        /* \"#utility.yul\":1130:1299   */\n    tag_271:\n        /* \"#utility.yul\":1214:1225   */\n      0x00\n        /* \"#utility.yul\":1248:1254   */\n      dup3\n        /* \"#utility.yul\":1243:1246   */\n      dup3\n        /* \"#utility.yul\":1236:1255   */\n      mstore\n        /* \"#utility.yul\":1288:1292   */\n      0x20\n        /* \"#utility.yul\":1283:1286   */\n      dup3\n        /* \"#utility.yul\":1279:1293   */\n      add\n        /* \"#utility.yul\":1264:1293   */\n      swap1\n      pop\n        /* \"#utility.yul\":1130:1299   */\n      swap3\n      swap2\n      pop\n      pop\n      jump\t// out\n        /* \"#utility.yul\":1305:1444   */\n    tag_272:\n        /* \"#utility.yul\":1394:1400   */\n      dup3\n        /* \"#utility.yul\":1389:1392   */\n      dup2\n        /* \"#utility.yul\":1384:1387   */\n      dup4\n        /* \"#utility.yul\":1378:1401   */\n      mcopy\n        /* \"#utility.yul\":1435:1436   */\n      0x00\n        /* \"#utility.yul\":1426:1432   */\n      dup4\n        /* \"#utility.yul\":1421:1424   */\n      dup4\n        /* \"#utility.yul\":1417:1433   */\n      add\n        /* \"#utility.yul\":1410:1437   */\n      mstore\n        /* \"#utility.yul\":1305:1444   */\n      pop\n      pop\n      pop\n      jump\t// out\n        /* \"#utility.yul\":1450:1552   */\n    tag_273:\n        /* \"#utility.yul\":1491:1497   */\n      0x00\n        /* \"#utility.yul\":1542:1544   */\n      0x1f\n        /* \"#utility.yul\":1538:1545   */\n      not\n        /* \"#utility.yul\":1533:1535   */\n      0x1f\n        /* \"#utility.yul\":1526:1531   */\n      dup4\n        /* \"#utility.yul\":1522:1536   */\n      add\n        /* \"#utility.yul\":1518:1546   */\n      and\n        /* \"#utility.yul\":1508:1546   */\n      swap1\n      pop\n        /* \"#utility.yul\":1450:1552   */\n      swap2\n      swap1\n      pop\n      jump\t// out\n        /* \"#utility.yul\":1558:1935   */\n    tag_274:\n        /* \"#utility.yul\":1646:1649   */\n      0x00\n        /* \"#utility.yul\":1674:1713   */\n      tag_337\n        /* \"#utility.yul\":1707:1712   */\n      dup3\n        /* \"#utility.yul\":1674:1713   */\n      tag_270\n      jump\t// in\n    tag_337:\n        /* \"#utility.yul\":1729:1800   */\n      tag_338\n        /* \"#utility.yul\":1793:1799   */\n      dup2\n        /* \"#utility.yul\":1788:1791   */\n      dup6\n        /* \"#utility.yul\":1729:1800   */\n      tag_271\n      jump\t// in\n    tag_338:\n        /* \"#utility.yul\":1722:1800   */\n      swap4\n      pop\n        /* \"#utility.yul\":1809:1874   */\n      tag_339\n        /* \"#utility.yul\":1867:1873   */\n      dup2\n        /* \"#utility.yul\":1862:1865   */\n      dup6\n        /* \"#utility.yul\":1855:1859   */\n      0x20\n        /* \"#utility.yul\":1848:1853   */\n      dup7\n        /* \"#utility.yul\":1844:1860   */\n      add\n        /* \"#utility.yul\":1809:1874   */\n      tag_272\n      jump\t// in\n    tag_339:\n        /* \"#utility.yul\":1899:1928   */\n      tag_340\n        /* \"#utility.yul\":1921:1927   */\n      dup2\n        /* \"#utility.yul\":1899:1928   */\n      tag_273\n      jump\t// in\n    tag_340:\n        /* \"#utility.yul\":1894:1897   */\n      dup5\n        /* \"#utility.yul\":1890:1929   */\n      add\n        /* \"#utility.yul\":1883:1929   */\n      swap2\n      pop\n        /* \"#utility.yul\":1650:1935   */\n      pop\n        /* \"#utility.yul\":1558:1935   */\n      swap3\n      swap2\n      pop\n      pop\n      jump\t// out\n        /* \"#utility.yul\":1941:2059   */\n    tag_275:\n        /* \"#utility.yul\":2028:2052   */\n      tag_342\n        /* \"#utility.yul\":2046:2051   */\n      dup2\n        /* \"#utility.yul\":2028:2052   */\n      tag_267\n      jump\t// in\n    tag_342:\n        /* \"#utility.yul\":2023:2026   */\n      dup3\n        /* \"#utility.yul\":2016:2053   */\n      mstore\n        /* \"#utility.yul\":1941:2059   */\n      pop\n      pop\n      jump\t// out\n        /* \"#utility.yul\":2065:2891   */\n    tag_31:\n        /* \"#utility.yul\":2302:2306   */\n      0x00\n        /* \"#utility.yul\":2340:2343   */\n      0x80\n        /* \"#utility.yul\":2329:2338   */\n      dup3\n        /* \"#utility.yul\":2325:2344   */\n      add\n        /* \"#utility.yul\":2317:2344   */\n      swap1\n      pop\n        /* \"#utility.yul\":2390:2399   */\n      dup2\n        /* \"#utility.yul\":2384:2388   */\n      dup2\n        /* \"#utility.yul\":2380:2400   */\n      sub\n        /* \"#utility.yul\":2376:2377   */\n      0x00\n        /* \"#utility.yul\":2365:2374   */\n      dup4\n        /* \"#utility.yul\":2361:2378   */\n      add\n        /* \"#utility.yul\":2354:2401   */\n      mstore\n        /* \"#utility.yul\":2418:2496   */\n      tag_344\n        /* \"#utility.yul\":2491:2495   */\n      dup2\n        /* \"#utility.yul\":2482:2488   */\n      dup8\n        /* \"#utility.yul\":2418:2496   */\n      tag_274\n      jump\t// in\n    tag_344:\n        /* \"#utility.yul\":2410:2496   */\n      swap1\n      pop\n        /* \"#utility.yul\":2543:2552   */\n      dup2\n        /* \"#utility.yul\":2537:2541   */\n      dup2\n        /* \"#utility.yul\":2533:2553   */\n      sub\n        /* \"#utility.yul\":2528:2530   */\n      0x20\n        /* \"#utility.yul\":2517:2526   */\n      dup4\n        /* \"#utility.yul\":2513:2531   */\n      add\n        /* \"#utility.yul\":2506:2554   */\n      mstore\n        /* \"#utility.yul\":2571:2649   */\n      tag_345\n        /* \"#utility.yul\":2644:2648   */\n      dup2\n        /* \"#utility.yul\":2635:2641   */\n      dup7\n        /* \"#utility.yul\":2571:2649   */\n      tag_274\n      jump\t// in\n    tag_345:\n        /* \"#utility.yul\":2563:2649   */\n      swap1\n      pop\n        /* \"#utility.yul\":2696:2705   */\n      dup2\n        /* \"#utility.yul\":2690:2694   */\n      dup2\n        /* \"#utility.yul\":2686:2706   */\n      sub\n        /* \"#utility.yul\":2681:2683   */\n      0x40\n        /* \"#utility.yul\":2670:2679   */\n      dup4\n        /* \"#utility.yul\":2666:2684   */\n      add\n        /* \"#utility.yul\":2659:2707   */\n      mstore\n        /* \"#utility.yul\":2724:2802   */\n      tag_346\n        /* \"#utility.yul\":2797:2801   */\n      dup2\n        /* \"#utility.yul\":2788:2794   */\n      dup6\n        /* \"#utility.yul\":2724:2802   */\n      tag_274\n      jump\t// in\n    tag_346:\n        /* \"#utility.yul\":2716:2802   */\n      swap1\n      pop\n        /* \"#utility.yul\":2812:2884   */\n      tag_347\n        /* \"#utility.yul\":2880:2882   */\n      0x60\n        /* \"#utility.yul\":2869:2878   */\n      dup4\n        /* \"#utility.yul\":2865:2883   */\n      add\n        /* \"#utility.yul\":2856:2862   */\n      dup5\n        /* \"#utility.yul\":2812:2884   */\n      tag_275\n      jump\t// in\n    tag_347:\n        /* \"#utility.yul\":2065:2891   */\n      swap6\n      swap5\n      pop\n      pop\n      pop\n      pop\n      pop\n      jump\t// out\n        /* \"#utility.yul\":2897:3014   */\n    tag_276:\n        /* \"#utility.yul\":3006:3007   */\n      0x00\n        /* \"#utility.yul\":3003:3004   */\n      dup1\n        /* \"#utility.yul\":2996:3008   */\n      revert\n        /* \"#utility.yul\":3020:3137   */\n    tag_277:\n        /* \"#utility.yul\":3129:3130   */\n      0x00\n        /* \"#utility.yul\":3126:3127   */\n      dup1\n        /* \"#utility.yul\":3119:3131   */\n      revert\n        /* \"#utility.yul\":3143:3323   */\n    tag_278:\n        /* \"#utility.yul\":3191:3268   */\n      0x4e487b7100000000000000000000000000000000000000000000000000000000\n        /* \"#utility.yul\":3188:3189   */\n      0x00\n        /* \"#utility.yul\":3181:3269   */\n      mstore\n        /* \"#utility.yul\":3288:3292   */\n      0x41\n        /* \"#utility.yul\":3285:3286   */\n      0x04\n        /* \"#utility.yul\":3278:3293   */\n      mstore\n        /* \"#utility.yul\":3312:3316   */\n      0x24\n        /* \"#utility.yul\":3309:3310   */\n      0x00\n        /* \"#utility.yul\":3302:3317   */\n      revert\n        /* \"#utility.yul\":3329:3610   */\n    tag_279:\n        /* \"#utility.yul\":3412:3439   */\n      tag_352\n        /* \"#utility.yul\":3434:3438   */\n      dup3\n        /* \"#utility.yul\":3412:3439   */\n      tag_273\n      jump\t// in\n    tag_352:\n        /* \"#utility.yul\":3404:3410   */\n      dup2\n        /* \"#utility.yul\":3400:3440   */\n      add\n        /* \"#utility.yul\":3542:3548   */\n      dup2\n        /* \"#utility.yul\":3530:3540   */\n      dup2\n        /* \"#utility.yul\":3527:3549   */\n      lt\n        /* \"#utility.yul\":3506:3524   */\n      0xffffffffffffffff\n        /* \"#utility.yul\":3494:3504   */\n      dup3\n        /* \"#utility.yul\":3491:3525   */\n      gt\n        /* \"#utility.yul\":3488:3550   */\n      or\n        /* \"#utility.yul\":3485:3573   */\n      iszero\n      tag_353\n      jumpi\n        /* \"#utility.yul\":3553:3571   */\n      tag_354\n      tag_278\n      jump\t// in\n    tag_354:\n        /* \"#utility.yul\":3485:3573   */\n    tag_353:\n        /* \"#utility.yul\":3593:3603   */\n      dup1\n        /* \"#utility.yul\":3589:3591   */\n      0x40\n        /* \"#utility.yul\":3582:3604   */\n      mstore\n        /* \"#utility.yul\":3372:3610   */\n      pop\n        /* \"#utility.yul\":3329:3610   */\n      pop\n      pop\n      jump\t// out\n        /* \"#utility.yul\":3616:3745   */\n    tag_280:\n        /* \"#utility.yul\":3650:3656   */\n      0x00\n        /* \"#utility.yul\":3677:3697   */\n      tag_356\n      tag_264\n      jump\t// in\n    tag_356:\n        /* \"#utility.yul\":3667:3697   */\n      swap1\n      pop\n        /* \"#utility.yul\":3706:3739   */\n      tag_357\n        /* \"#utility.yul\":3734:3738   */\n      dup3\n        /* \"#utility.yul\":3726:3732   */\n      dup3\n        /* \"#utility.yul\":3706:3739   */\n      tag_279\n      jump\t// in\n    tag_357:\n        /* \"#utility.yul\":3616:3745   */\n      swap2\n      swap1\n      pop\n      jump\t// out\n        /* \"#utility.yul\":3751:4059   */\n    tag_281:\n        /* \"#utility.yul\":3813:3817   */\n      0x00\n        /* \"#utility.yul\":3903:3921   */\n      0xffffffffffffffff\n        /* \"#utility.yul\":3895:3901   */\n      dup3\n        /* \"#utility.yul\":3892:3922   */\n      gt\n        /* \"#utility.yul\":3889:3945   */\n      iszero\n      tag_359\n      jumpi\n        /* \"#utility.yul\":3925:3943   */\n      tag_360\n      tag_278\n      jump\t// in\n    tag_360:\n        /* \"#utility.yul\":3889:3945   */\n    tag_359:\n        /* \"#utility.yul\":3963:3992   */\n      tag_361\n        /* \"#utility.yul\":3985:3991   */\n      dup3\n        /* \"#utility.yul\":3963:3992   */\n      tag_273\n      jump\t// in\n    tag_361:\n        /* \"#utility.yul\":3955:3992   */\n      swap1\n      pop\n        /* \"#utility.yul\":4047:4051   */\n      0x20\n        /* \"#utility.yul\":4041:4045   */\n      dup2\n        /* \"#utility.yul\":4037:4052   */\n      add\n        /* \"#utility.yul\":4029:4052   */\n      swap1\n      pop\n        /* \"#utility.yul\":3751:4059   */\n      swap2\n      swap1\n      pop\n      jump\t// out\n        /* \"#utility.yul\":4065:4213   */\n    tag_282:\n        /* \"#utility.yul\":4163:4169   */\n      dup3\n        /* \"#utility.yul\":4158:4161   */\n      dup2\n        /* \"#utility.yul\":4153:4156   */\n      dup4\n        /* \"#utility.yul\":4140:4170   */\n      calldatacopy\n        /* \"#utility.yul\":4204:4205   */\n      0x00\n        /* \"#utility.yul\":4195:4201   */\n      dup4\n        /* \"#utility.yul\":4190:4193   */\n      dup4\n        /* \"#utility.yul\":4186:4202   */\n      add\n        /* \"#utility.yul\":4179:4206   */\n      mstore\n        /* \"#utility.yul\":4065:4213   */\n      pop\n      pop\n      pop\n      jump\t// out\n        /* \"#utility.yul\":4219:4644   */\n    tag_283:\n        /* \"#utility.yul\":4297:4302   */\n      0x00\n        /* \"#utility.yul\":4322:4388   */\n      tag_364\n        /* \"#utility.yul\":4338:4387   */\n      tag_365\n        /* \"#utility.yul\":4380:4386   */\n      dup5\n        /* \"#utility.yul\":4338:4387   */\n      tag_281\n      jump\t// in\n    tag_365:\n        /* \"#utility.yul\":4322:4388   */\n      tag_280\n      jump\t// in\n    tag_364:\n        /* \"#utility.yul\":4313:4388   */\n      swap1\n      pop\n        /* \"#utility.yul\":4411:4417   */\n      dup3\n        /* \"#utility.yul\":4404:4409   */\n      dup2\n        /* \"#utility.yul\":4397:4418   */\n      mstore\n        /* \"#utility.yul\":4449:4453   */\n      0x20\n        /* \"#utility.yul\":4442:4447   */\n      dup2\n        /* \"#utility.yul\":4438:4454   */\n      add\n        /* \"#utility.yul\":4487:4490   */\n      dup5\n        /* \"#utility.yul\":4478:4484   */\n      dup5\n        /* \"#utility.yul\":4473:4476   */\n      dup5\n        /* \"#utility.yul\":4469:4485   */\n      add\n        /* \"#utility.yul\":4466:4491   */\n      gt\n        /* \"#utility.yul\":4463:4575   */\n      iszero\n      tag_366\n      jumpi\n        /* \"#utility.yul\":4494:4573   */\n      tag_367\n      tag_277\n      jump\t// in\n    tag_367:\n        /* \"#utility.yul\":4463:4575   */\n    tag_366:\n        /* \"#utility.yul\":4584:4638   */\n      tag_368\n        /* \"#utility.yul\":4631:4637   */\n      dup5\n        /* \"#utility.yul\":4626:4629   */\n      dup3\n        /* \"#utility.yul\":4621:4624   */\n      dup6\n        /* \"#utility.yul\":4584:4638   */\n      tag_282\n      jump\t// in\n    tag_368:\n        /* \"#utility.yul\":4303:4644   */\n      pop\n        /* \"#utility.yul\":4219:4644   */\n      swap4\n      swap3\n      pop\n      pop\n      pop\n      jump\t// out\n        /* \"#utility.yul\":4664:5004   */\n    tag_284:\n        /* \"#utility.yul\":4720:4725   */\n      0x00\n        /* \"#utility.yul\":4769:4772   */\n      dup3\n        /* \"#utility.yul\":4762:4766   */\n      0x1f\n        /* \"#utility.yul\":4754:4760   */\n      dup4\n        /* \"#utility.yul\":4750:4767   */\n      add\n        /* \"#utility.yul\":4746:4773   */\n      slt\n        /* \"#utility.yul\":4736:4858   */\n      tag_370\n      jumpi\n        /* \"#utility.yul\":4777:4856   */\n      tag_371\n      tag_276\n      jump\t// in\n    tag_371:\n        /* \"#utility.yul\":4736:4858   */\n    tag_370:\n        /* \"#utility.yul\":4894:4900   */\n      dup2\n        /* \"#utility.yul\":4881:4901   */\n      calldataload\n        /* \"#utility.yul\":4919:4998   */\n      tag_372\n        /* \"#utility.yul\":4994:4997   */\n      dup5\n        /* \"#utility.yul\":4986:4992   */\n      dup3\n        /* \"#utility.yul\":4979:4983   */\n      0x20\n        /* \"#utility.yul\":4971:4977   */\n      dup7\n        /* \"#utility.yul\":4967:4984   */\n      add\n        /* \"#utility.yul\":4919:4998   */\n      tag_283\n      jump\t// in\n    tag_372:\n        /* \"#utility.yul\":4910:4998   */\n      swap2\n      pop\n        /* \"#utility.yul\":4726:5004   */\n      pop\n        /* \"#utility.yul\":4664:5004   */\n      swap3\n      swap2\n      pop\n      pop\n      jump\t// out\n        /* \"#utility.yul\":5010:6169   */\n    tag_35:\n        /* \"#utility.yul\":5117:5123   */\n      0x00\n        /* \"#utility.yul\":5125:5131   */\n      dup1\n        /* \"#utility.yul\":5133:5139   */\n      0x00\n        /* \"#utility.yul\":5182:5184   */\n      0x60\n        /* \"#utility.yul\":5170:5179   */\n      dup5\n        /* \"#utility.yul\":5161:5168   */\n      dup7\n        /* \"#utility.yul\":5157:5180   */\n      sub\n        /* \"#utility.yul\":5153:5185   */\n      slt\n        /* \"#utility.yul\":5150:5269   */\n      iszero\n      tag_374\n      jumpi\n        /* \"#utility.yul\":5188:5267   */\n      tag_375\n      tag_265\n      jump\t// in\n    tag_375:\n        /* \"#utility.yul\":5150:5269   */\n    tag_374:\n        /* \"#utility.yul\":5336:5337   */\n      0x00\n        /* \"#utility.yul\":5325:5334   */\n      dup5\n        /* \"#utility.yul\":5321:5338   */\n      add\n        /* \"#utility.yul\":5308:5339   */\n      calldataload\n        /* \"#utility.yul\":5366:5384   */\n      0xffffffffffffffff\n        /* \"#utility.yul\":5358:5364   */\n      dup2\n        /* \"#utility.yul\":5355:5385   */\n      gt\n        /* \"#utility.yul\":5352:5469   */\n      iszero\n      tag_376\n      jumpi\n        /* \"#utility.yul\":5388:5467   */\n      tag_377\n      tag_266\n      jump\t// in\n    tag_377:\n        /* \"#utility.yul\":5352:5469   */\n    tag_376:\n        /* \"#utility.yul\":5493:5556   */\n      tag_378\n        /* \"#utility.yul\":5548:5555   */\n      dup7\n        /* \"#utility.yul\":5539:5545   */\n      dup3\n        /* \"#utility.yul\":5528:5537   */\n      dup8\n        /* \"#utility.yul\":5524:5546   */\n      add\n        /* \"#utility.yul\":5493:5556   */\n      tag_284\n      jump\t// in\n    tag_378:\n        /* \"#utility.yul\":5483:5556   */\n      swap4\n      pop\n        /* \"#utility.yul\":5279:5566   */\n      pop\n        /* \"#utility.yul\":5633:5635   */\n      0x20\n        /* \"#utility.yul\":5622:5631   */\n      dup5\n        /* \"#utility.yul\":5618:5636   */\n      add\n        /* \"#utility.yul\":5605:5637   */\n      calldataload\n        /* \"#utility.yul\":5664:5682   */\n      0xffffffffffffffff\n        /* \"#utility.yul\":5656:5662   */\n      dup2\n        /* \"#utility.yul\":5653:5683   */\n      gt\n        /* \"#utility.yul\":5650:5767   */\n      iszero\n      tag_379\n      jumpi\n        /* \"#utility.yul\":5686:5765   */\n      tag_380\n      tag_266\n      jump\t// in\n    tag_380:\n        /* \"#utility.yul\":5650:5767   */\n    tag_379:\n        /* \"#utility.yul\":5791:5854   */\n      tag_381\n        /* \"#utility.yul\":5846:5853   */\n      dup7\n        /* \"#utility.yul\":5837:5843   */\n      dup3\n        /* \"#utility.yul\":5826:5835   */\n      dup8\n        /* \"#utility.yul\":5822:5844   */\n      add\n        /* \"#utility.yul\":5791:5854   */\n      tag_284\n      jump\t// in\n    tag_381:\n        /* \"#utility.yul\":5781:5854   */\n      swap3\n      pop\n        /* \"#utility.yul\":5576:5864   */\n      pop\n        /* \"#utility.yul\":5931:5933   */\n      0x40\n        /* \"#utility.yul\":5920:5929   */\n      dup5\n        /* \"#utility.yul\":5916:5934   */\n      add\n        /* \"#utility.yul\":5903:5935   */\n      calldataload\n        /* \"#utility.yul\":5962:5980   */\n      0xffffffffffffffff\n        /* \"#utility.yul\":5954:5960   */\n      dup2\n        /* \"#utility.yul\":5951:5981   */\n      gt\n        /* \"#utility.yul\":5948:6065   */\n      iszero\n      tag_382\n      jumpi\n        /* \"#utility.yul\":5984:6063   */\n      tag_383\n      tag_266\n      jump\t// in\n    tag_383:\n        /* \"#utility.yul\":5948:6065   */\n    tag_382:\n        /* \"#utility.yul\":6089:6152   */\n      tag_384\n        /* \"#utility.yul\":6144:6151   */\n      dup7\n        /* \"#utility.yul\":6135:6141   */\n      dup3\n        /* \"#utility.yul\":6124:6133   */\n      dup8\n        /* \"#utility.yul\":6120:6142   */\n      add\n        /* \"#utility.yul\":6089:6152   */\n      tag_284\n      jump\t// in\n    tag_384:\n        /* \"#utility.yul\":6079:6152   */\n      swap2\n      pop\n        /* \"#utility.yul\":5874:6162   */\n      pop\n        /* \"#utility.yul\":5010:6169   */\n      swap3\n      pop\n      swap3\n      pop\n      swap3\n      jump\t// out\n        /* \"#utility.yul\":6175:6649   */\n    tag_40:\n        /* \"#utility.yul\":6243:6249   */\n      0x00\n        /* \"#utility.yul\":6251:6257   */\n      dup1\n        /* \"#utility.yul\":6300:6302   */\n      0x40\n        /* \"#utility.yul\":6288:6297   */\n      dup4\n        /* \"#utility.yul\":6279:6286   */\n      dup6\n        /* \"#utility.yul\":6275:6298   */\n      sub\n        /* \"#utility.yul\":6271:6303   */\n      slt\n        /* \"#utility.yul\":6268:6387   */\n      iszero\n      tag_386\n      jumpi\n        /* \"#utility.yul\":6306:6385   */\n      tag_387\n      tag_265\n      jump\t// in\n    tag_387:\n        /* \"#utility.yul\":6268:6387   */\n    tag_386:\n        /* \"#utility.yul\":6426:6427   */\n      0x00\n        /* \"#utility.yul\":6451:6504   */\n      tag_388\n        /* \"#utility.yul\":6496:6503   */\n      dup6\n        /* \"#utility.yul\":6487:6493   */\n      dup3\n        /* \"#utility.yul\":6476:6485   */\n      dup7\n        /* \"#utility.yul\":6472:6494   */\n      add\n        /* \"#utility.yul\":6451:6504   */\n      tag_269\n      jump\t// in\n    tag_388:\n        /* \"#utility.yul\":6441:6504   */\n      swap3\n      pop\n        /* \"#utility.yul\":6397:6514   */\n      pop\n        /* \"#utility.yul\":6553:6555   */\n      0x20\n        /* \"#utility.yul\":6579:6632   */\n      tag_389\n        /* \"#utility.yul\":6624:6631   */\n      dup6\n        /* \"#utility.yul\":6615:6621   */\n      dup3\n        /* \"#utility.yul\":6604:6613   */\n      dup7\n        /* \"#utility.yul\":6600:6622   */\n      add\n        /* \"#utility.yul\":6579:6632   */\n      tag_269\n      jump\t// in\n    tag_389:\n        /* \"#utility.yul\":6569:6632   */\n      swap2\n      pop\n        /* \"#utility.yul\":6524:6642   */\n      pop\n        /* \"#utility.yul\":6175:6649   */\n      swap3\n      pop\n      swap3\n      swap1\n      pop\n      jump\t// out\n        /* \"#utility.yul\":6655:7960   */\n    tag_45:\n        /* \"#utility.yul\":6771:6777   */\n      0x00\n        /* \"#utility.yul\":6779:6785   */\n      dup1\n        /* \"#utility.yul\":6787:6793   */\n      0x00\n        /* \"#utility.yul\":6795:6801   */\n      dup1\n        /* \"#utility.yul\":6844:6847   */\n      0x80\n        /* \"#utility.yul\":6832:6841   */\n      dup6\n        /* \"#utility.yul\":6823:6830   */\n      dup8\n        /* \"#utility.yul\":6819:6842   */\n      sub\n        /* \"#utility.yul\":6815:6848   */\n      slt\n        /* \"#utility.yul\":6812:6932   */\n      iszero\n      tag_391\n      jumpi\n        /* \"#utility.yul\":6851:6930   */\n      tag_392\n      tag_265\n      jump\t// in\n    tag_392:\n        /* \"#utility.yul\":6812:6932   */\n    tag_391:\n        /* \"#utility.yul\":6999:7000   */\n      0x00\n        /* \"#utility.yul\":6988:6997   */\n      dup6\n        /* \"#utility.yul\":6984:7001   */\n      add\n        /* \"#utility.yul\":6971:7002   */\n      calldataload\n        /* \"#utility.yul\":7029:7047   */\n      0xffffffffffffffff\n        /* \"#utility.yul\":7021:7027   */\n      dup2\n        /* \"#utility.yul\":7018:7048   */\n      gt\n        /* \"#utility.yul\":7015:7132   */\n      iszero\n      tag_393\n      jumpi\n        /* \"#utility.yul\":7051:7130   */\n      tag_394\n      tag_266\n      jump\t// in\n    tag_394:\n        /* \"#utility.yul\":7015:7132   */\n    tag_393:\n        /* \"#utility.yul\":7156:7219   */\n      tag_395\n        /* \"#utility.yul\":7211:7218   */\n      dup8\n        /* \"#utility.yul\":7202:7208   */\n      dup3\n        /* \"#utility.yul\":7191:7200   */\n      dup9\n        /* \"#utility.yul\":7187:7209   */\n      add\n        /* \"#utility.yul\":7156:7219   */\n      tag_284\n      jump\t// in\n    tag_395:\n        /* \"#utility.yul\":7146:7219   */\n      swap5\n      pop\n        /* \"#utility.yul\":6942:7229   */\n      pop\n        /* \"#utility.yul\":7296:7298   */\n      0x20\n        /* \"#utility.yul\":7285:7294   */\n      dup6\n        /* \"#utility.yul\":7281:7299   */\n      add\n        /* \"#utility.yul\":7268:7300   */\n      calldataload\n        /* \"#utility.yul\":7327:7345   */\n      0xffffffffffffffff\n        /* \"#utility.yul\":7319:7325   */\n      dup2\n        /* \"#utility.yul\":7316:7346   */\n      gt\n        /* \"#utility.yul\":7313:7430   */\n      iszero\n      tag_396\n      jumpi\n        /* \"#utility.yul\":7349:7428   */\n      tag_397\n      tag_266\n      jump\t// in\n    tag_397:\n        /* \"#utility.yul\":7313:7430   */\n    tag_396:\n        /* \"#utility.yul\":7454:7517   */\n      tag_398\n        /* \"#utility.yul\":7509:7516   */\n      dup8\n        /* \"#utility.yul\":7500:7506   */\n      dup3\n        /* \"#utility.yul\":7489:7498   */\n      dup9\n        /* \"#utility.yul\":7485:7507   */\n      add\n        /* \"#utility.yul\":7454:7517   */\n      tag_284\n      jump\t// in\n    tag_398:\n        /* \"#utility.yul\":7444:7517   */\n      swap4\n      pop\n        /* \"#utility.yul\":7239:7527   */\n      pop\n        /* \"#utility.yul\":7594:7596   */\n      0x40\n        /* \"#utility.yul\":7583:7592   */\n      dup6\n        /* \"#utility.yul\":7579:7597   */\n      add\n        /* \"#utility.yul\":7566:7598   */\n      calldataload\n        /* \"#utility.yul\":7625:7643   */\n      0xffffffffffffffff\n        /* \"#utility.yul\":7617:7623   */\n      dup2\n        /* \"#utility.yul\":7614:7644   */\n      gt\n        /* \"#utility.yul\":7611:7728   */\n      iszero\n      tag_399\n      jumpi\n        /* \"#utility.yul\":7647:7726   */\n      tag_400\n      tag_266\n      jump\t// in\n    tag_400:\n        /* \"#utility.yul\":7611:7728   */\n    tag_399:\n        /* \"#utility.yul\":7752:7815   */\n      tag_401\n        /* \"#utility.yul\":7807:7814   */\n      dup8\n        /* \"#utility.yul\":7798:7804   */\n      dup3\n        /* \"#utility.yul\":7787:7796   */\n      dup9\n        /* \"#utility.yul\":7783:7805   */\n      add\n        /* \"#utility.yul\":7752:7815   */\n      tag_284\n      jump\t// in\n    tag_401:\n        /* \"#utility.yul\":7742:7815   */\n      swap3\n      pop\n        /* \"#utility.yul\":7537:7825   */\n      pop\n        /* \"#utility.yul\":7864:7866   */\n      0x60\n        /* \"#utility.yul\":7890:7943   */\n      tag_402\n        /* \"#utility.yul\":7935:7942   */\n      dup8\n        /* \"#utility.yul\":7926:7932   */\n      dup3\n        /* \"#utility.yul\":7915:7924   */\n      dup9\n        /* \"#utility.yul\":7911:7933   */\n      add\n        /* \"#utility.yul\":7890:7943   */\n      tag_269\n      jump\t// in\n    tag_402:\n        /* \"#utility.yul\":7880:7943   */\n      swap2\n      pop\n        /* \"#utility.yul\":7835:7953   */\n      pop\n        /* \"#utility.yul\":6655:7960   */\n      swap3\n      swap6\n      swap2\n      swap5\n      pop\n      swap3\n      pop\n      jump\t// out\n        /* \"#utility.yul\":7966:8701   */\n    tag_56:\n        /* \"#utility.yul\":8183:8187   */\n      0x00\n        /* \"#utility.yul\":8221:8224   */\n      0x80\n        /* \"#utility.yul\":8210:8219   */\n      dup3\n        /* \"#utility.yul\":8206:8225   */\n      add\n        /* \"#utility.yul\":8198:8225   */\n      swap1\n      pop\n        /* \"#utility.yul\":8271:8280   */\n      dup2\n        /* \"#utility.yul\":8265:8269   */\n      dup2\n        /* \"#utility.yul\":8261:8281   */\n      sub\n        /* \"#utility.yul\":8257:8258   */\n      0x00\n        /* \"#utility.yul\":8246:8255   */\n      dup4\n        /* \"#utility.yul\":8242:8259   */\n      add\n        /* \"#utility.yul\":8235:8282   */\n      mstore\n        /* \"#utility.yul\":8299:8377   */\n      tag_404\n        /* \"#utility.yul\":8372:8376   */\n      dup2\n        /* \"#utility.yul\":8363:8369   */\n      dup8\n        /* \"#utility.yul\":8299:8377   */\n      tag_274\n      jump\t// in\n    tag_404:\n        /* \"#utility.yul\":8291:8377   */\n      swap1\n      pop\n        /* \"#utility.yul\":8424:8433   */\n      dup2\n        /* \"#utility.yul\":8418:8422   */\n      dup2\n        /* \"#utility.yul\":8414:8434   */\n      sub\n        /* \"#utility.yul\":8409:8411   */\n      0x20\n        /* \"#utility.yul\":8398:8407   */\n      dup4\n        /* \"#utility.yul\":8394:8412   */\n      add\n        /* \"#utility.yul\":8387:8435   */\n      mstore\n        /* \"#utility.yul\":8452:8530   */\n      tag_405\n        /* \"#utility.yul\":8525:8529   */\n      dup2\n        /* \"#utility.yul\":8516:8522   */\n      dup7\n        /* \"#utility.yul\":8452:8530   */\n      tag_274\n      jump\t// in\n    tag_405:\n        /* \"#utility.yul\":8444:8530   */\n      swap1\n      pop\n        /* \"#utility.yul\":8540:8612   */\n      tag_406\n        /* \"#utility.yul\":8608:8610   */\n      0x40\n        /* \"#utility.yul\":8597:8606   */\n      dup4\n        /* \"#utility.yul\":8593:8611   */\n      add\n        /* \"#utility.yul\":8584:8590   */\n      dup6\n        /* \"#utility.yul\":8540:8612   */\n      tag_275\n      jump\t// in\n    tag_406:\n        /* \"#utility.yul\":8622:8694   */\n      tag_407\n        /* \"#utility.yul\":8690:8692   */\n      0x60\n        /* \"#utility.yul\":8679:8688   */\n      dup4\n        /* \"#utility.yul\":8675:8693   */\n      add\n        /* \"#utility.yul\":8666:8672   */\n      dup5\n        /* \"#utility.yul\":8622:8694   */\n      tag_275\n      jump\t// in\n    tag_407:\n        /* \"#utility.yul\":7966:8701   */\n      swap6\n      swap5\n      pop\n      pop\n      pop\n      pop\n      pop\n      jump\t// out\n        /* \"#utility.yul\":8707:8833   */\n    tag_285:\n        /* \"#utility.yul\":8744:8751   */\n      0x00\n        /* \"#utility.yul\":8784:8826   */\n      0xffffffffffffffffffffffffffffffffffffffff\n        /* \"#utility.yul\":8777:8782   */\n      dup3\n        /* \"#utility.yul\":8773:8827   */\n      and\n        /* \"#utility.yul\":8762:8827   */\n      swap1\n      pop\n        /* \"#utility.yul\":8707:8833   */\n      swap2\n      swap1\n      pop\n      jump\t// out\n        /* \"#utility.yul\":8839:8943   */\n    tag_286:\n        /* \"#utility.yul\":8884:8891   */\n      0x00\n        /* \"#utility.yul\":8913:8937   */\n      tag_410\n        /* \"#utility.yul\":8931:8936   */\n      dup3\n        /* \"#utility.yul\":8913:8937   */\n      tag_285\n      jump\t// in\n    tag_410:\n        /* \"#utility.yul\":8902:8937   */\n      swap1\n      pop\n        /* \"#utility.yul\":8839:8943   */\n      swap2\n      swap1\n      pop\n      jump\t// out\n        /* \"#utility.yul\":8949:9091   */\n    tag_287:\n        /* \"#utility.yul\":9052:9084   */\n      tag_412\n        /* \"#utility.yul\":9078:9083   */\n      dup2\n        /* \"#utility.yul\":9052:9084   */\n      tag_286\n      jump\t// in\n    tag_412:\n        /* \"#utility.yul\":9047:9050   */\n      dup3\n        /* \"#utility.yul\":9040:9085   */\n      mstore\n        /* \"#utility.yul\":8949:9091   */\n      pop\n      pop\n      jump\t// out\n        /* \"#utility.yul\":9097:9187   */\n    tag_288:\n        /* \"#utility.yul\":9131:9138   */\n      0x00\n        /* \"#utility.yul\":9174:9179   */\n      dup2\n        /* \"#utility.yul\":9167:9180   */\n      iszero\n        /* \"#utility.yul\":9160:9181   */\n      iszero\n        /* \"#utility.yul\":9149:9181   */\n      swap1\n      pop\n        /* \"#utility.yul\":9097:9187   */\n      swap2\n      swap1\n      pop\n      jump\t// out\n        /* \"#utility.yul\":9193:9302   */\n    tag_289:\n        /* \"#utility.yul\":9274:9295   */\n      tag_415\n        /* \"#utility.yul\":9289:9294   */\n      dup2\n        /* \"#utility.yul\":9274:9295   */\n      tag_288\n      jump\t// in\n    tag_415:\n        /* \"#utility.yul\":9269:9272   */\n      dup3\n        /* \"#utility.yul\":9262:9296   */\n      mstore\n        /* \"#utility.yul\":9193:9302   */\n      pop\n      pop\n      jump\t// out\n        /* \"#utility.yul\":9308:10396   */\n    tag_61:\n        /* \"#utility.yul\":9619:9623   */\n      0x00\n        /* \"#utility.yul\":9657:9660   */\n      0xe0\n        /* \"#utility.yul\":9646:9655   */\n      dup3\n        /* \"#utility.yul\":9642:9661   */\n      add\n        /* \"#utility.yul\":9634:9661   */\n      swap1\n      pop\n        /* \"#utility.yul\":9671:9758   */\n      tag_417\n        /* \"#utility.yul\":9755:9756   */\n      0x00\n        /* \"#utility.yul\":9744:9753   */\n      dup4\n        /* \"#utility.yul\":9740:9757   */\n      add\n        /* \"#utility.yul\":9731:9737   */\n      dup11\n        /* \"#utility.yul\":9671:9758   */\n      tag_287\n      jump\t// in\n    tag_417:\n        /* \"#utility.yul\":9805:9814   */\n      dup2\n        /* \"#utility.yul\":9799:9803   */\n      dup2\n        /* \"#utility.yul\":9795:9815   */\n      sub\n        /* \"#utility.yul\":9790:9792   */\n      0x20\n        /* \"#utility.yul\":9779:9788   */\n      dup4\n        /* \"#utility.yul\":9775:9793   */\n      add\n        /* \"#utility.yul\":9768:9816   */\n      mstore\n        /* \"#utility.yul\":9833:9911   */\n      tag_418\n        /* \"#utility.yul\":9906:9910   */\n      dup2\n        /* \"#utility.yul\":9897:9903   */\n      dup10\n        /* \"#utility.yul\":9833:9911   */\n      tag_274\n      jump\t// in\n    tag_418:\n        /* \"#utility.yul\":9825:9911   */\n      swap1\n      pop\n        /* \"#utility.yul\":9958:9967   */\n      dup2\n        /* \"#utility.yul\":9952:9956   */\n      dup2\n        /* \"#utility.yul\":9948:9968   */\n      sub\n        /* \"#utility.yul\":9943:9945   */\n      0x40\n        /* \"#utility.yul\":9932:9941   */\n      dup4\n        /* \"#utility.yul\":9928:9946   */\n      add\n        /* \"#utility.yul\":9921:9969   */\n      mstore\n        /* \"#utility.yul\":9986:10064   */\n      tag_419\n        /* \"#utility.yul\":10059:10063   */\n      dup2\n        /* \"#utility.yul\":10050:10056   */\n      dup9\n        /* \"#utility.yul\":9986:10064   */\n      tag_274\n      jump\t// in\n    tag_419:\n        /* \"#utility.yul\":9978:10064   */\n      swap1\n      pop\n        /* \"#utility.yul\":10074:10146   */\n      tag_420\n        /* \"#utility.yul\":10142:10144   */\n      0x60\n        /* \"#utility.yul\":10131:10140   */\n      dup4\n        /* \"#utility.yul\":10127:10145   */\n      add\n        /* \"#utility.yul\":10118:10124   */\n      dup8\n        /* \"#utility.yul\":10074:10146   */\n      tag_275\n      jump\t// in\n    tag_420:\n        /* \"#utility.yul\":10156:10229   */\n      tag_421\n        /* \"#utility.yul\":10224:10227   */\n      0x80\n        /* \"#utility.yul\":10213:10222   */\n      dup4\n        /* \"#utility.yul\":10209:10228   */\n      add\n        /* \"#utility.yul\":10200:10206   */\n      dup7\n        /* \"#utility.yul\":10156:10229   */\n      tag_275\n      jump\t// in\n    tag_421:\n        /* \"#utility.yul\":10239:10312   */\n      tag_422\n        /* \"#utility.yul\":10307:10310   */\n      0xa0\n        /* \"#utility.yul\":10296:10305   */\n      dup4\n        /* \"#utility.yul\":10292:10311   */\n      add\n        /* \"#utility.yul\":10283:10289   */\n      dup6\n        /* \"#utility.yul\":10239:10312   */\n      tag_275\n      jump\t// in\n    tag_422:\n        /* \"#utility.yul\":10322:10389   */\n      tag_423\n        /* \"#utility.yul\":10384:10387   */\n      0xc0\n        /* \"#utility.yul\":10373:10382   */\n      dup4\n        /* \"#utility.yul\":10369:10388   */\n      add\n        /* \"#utility.yul\":10360:10366   */\n      dup5\n        /* \"#utility.yul\":10322:10389   */\n      tag_289\n      jump\t// in\n    tag_423:\n        /* \"#utility.yul\":9308:10396   */\n      swap9\n      swap8\n      pop\n      pop\n      pop\n      pop\n      pop\n      pop\n      pop\n      pop\n      jump\t// out\n        /* \"#utility.yul\":10402:11381   */\n    tag_70:\n        /* \"#utility.yul\":10499:10505   */\n      0x00\n        /* \"#utility.yul\":10507:10513   */\n      dup1\n        /* \"#utility.yul\":10515:10521   */\n      0x00\n        /* \"#utility.yul\":10564:10566   */\n      0x60\n        /* \"#utility.yul\":10552:10561   */\n      dup5\n        /* \"#utility.yul\":10543:10550   */\n      dup7\n        /* \"#utility.yul\":10539:10562   */\n      sub\n        /* \"#utility.yul\":10535:10567   */\n      slt\n        /* \"#utility.yul\":10532:10651   */\n      iszero\n      tag_425\n      jumpi\n        /* \"#utility.yul\":10570:10649   */\n      tag_426\n      tag_265\n      jump\t// in\n    tag_426:\n        /* \"#utility.yul\":10532:10651   */\n    tag_425:\n        /* \"#utility.yul\":10718:10719   */\n      0x00\n        /* \"#utility.yul\":10707:10716   */\n      dup5\n        /* \"#utility.yul\":10703:10720   */\n      add\n        /* \"#utility.yul\":10690:10721   */\n      calldataload\n        /* \"#utility.yul\":10748:10766   */\n      0xffffffffffffffff\n        /* \"#utility.yul\":10740:10746   */\n      dup2\n        /* \"#utility.yul\":10737:10767   */\n      gt\n        /* \"#utility.yul\":10734:10851   */\n      iszero\n      tag_427\n      jumpi\n        /* \"#utility.yul\":10770:10849   */\n      tag_428\n      tag_266\n      jump\t// in\n    tag_428:\n        /* \"#utility.yul\":10734:10851   */\n    tag_427:\n        /* \"#utility.yul\":10875:10938   */\n      tag_429\n        /* \"#utility.yul\":10930:10937   */\n      dup7\n        /* \"#utility.yul\":10921:10927   */\n      dup3\n        /* \"#utility.yul\":10910:10919   */\n      dup8\n        /* \"#utility.yul\":10906:10928   */\n      add\n        /* \"#utility.yul\":10875:10938   */\n      tag_284\n      jump\t// in\n    tag_429:\n        /* \"#utility.yul\":10865:10938   */\n      swap4\n      pop\n        /* \"#utility.yul\":10661:10948   */\n      pop\n        /* \"#utility.yul\":11015:11017   */\n      0x20\n        /* \"#utility.yul\":11004:11013   */\n      dup5\n        /* \"#utility.yul\":11000:11018   */\n      add\n        /* \"#utility.yul\":10987:11019   */\n      calldataload\n        /* \"#utility.yul\":11046:11064   */\n      0xffffffffffffffff\n        /* \"#utility.yul\":11038:11044   */\n      dup2\n        /* \"#utility.yul\":11035:11065   */\n      gt\n        /* \"#utility.yul\":11032:11149   */\n      iszero\n      tag_430\n      jumpi\n        /* \"#utility.yul\":11068:11147   */\n      tag_431\n      tag_266\n      jump\t// in\n    tag_431:\n        /* \"#utility.yul\":11032:11149   */\n    tag_430:\n        /* \"#utility.yul\":11173:11236   */\n      tag_432\n        /* \"#utility.yul\":11228:11235   */\n      dup7\n        /* \"#utility.yul\":11219:11225   */\n      dup3\n        /* \"#utility.yul\":11208:11217   */\n      dup8\n        /* \"#utility.yul\":11204:11226   */\n      add\n        /* \"#utility.yul\":11173:11236   */\n      tag_284\n      jump\t// in\n    tag_432:\n        /* \"#utility.yul\":11163:11236   */\n      swap3\n      pop\n        /* \"#utility.yul\":10958:11246   */\n      pop\n        /* \"#utility.yul\":11285:11287   */\n      0x40\n        /* \"#utility.yul\":11311:11364   */\n      tag_433\n        /* \"#utility.yul\":11356:11363   */\n      dup7\n        /* \"#utility.yul\":11347:11353   */\n      dup3\n        /* \"#utility.yul\":11336:11345   */\n      dup8\n        /* \"#utility.yul\":11332:11354   */\n      add\n        /* \"#utility.yul\":11311:11364   */\n      tag_269\n      jump\t// in\n    tag_433:\n        /* \"#utility.yul\":11301:11364   */\n      swap2\n      pop\n        /* \"#utility.yul\":11256:11374   */\n      pop\n        /* \"#utility.yul\":10402:11381   */\n      swap3\n      pop\n      swap3\n      pop\n      swap3\n      jump\t// out\n        /* \"#utility.yul\":11387:11483   */\n    tag_290:\n        /* \"#utility.yul\":11424:11431   */\n      0x00\n        /* \"#utility.yul\":11453:11477   */\n      tag_435\n        /* \"#utility.yul\":11471:11476   */\n      dup3\n        /* \"#utility.yul\":11453:11477   */\n      tag_285\n      jump\t// in\n    tag_435:\n        /* \"#utility.yul\":11442:11477   */\n      swap1\n      pop\n        /* \"#utility.yul\":11387:11483   */\n      swap2\n      swap1\n      pop\n      jump\t// out\n        /* \"#utility.yul\":11489:11607   */\n    tag_291:\n        /* \"#utility.yul\":11576:11600   */\n      tag_437\n        /* \"#utility.yul\":11594:11599   */\n      dup2\n        /* \"#utility.yul\":11576:11600   */\n      tag_290\n      jump\t// in\n    tag_437:\n        /* \"#utility.yul\":11571:11574   */\n      dup3\n        /* \"#utility.yul\":11564:11601   */\n      mstore\n        /* \"#utility.yul\":11489:11607   */\n      pop\n      pop\n      jump\t// out\n        /* \"#utility.yul\":11613:11835   */\n    tag_76:\n        /* \"#utility.yul\":11706:11710   */\n      0x00\n        /* \"#utility.yul\":11744:11746   */\n      0x20\n        /* \"#utility.yul\":11733:11742   */\n      dup3\n        /* \"#utility.yul\":11729:11747   */\n      add\n        /* \"#utility.yul\":11721:11747   */\n      swap1\n      pop\n        /* \"#utility.yul\":11757:11828   */\n      tag_439\n        /* \"#utility.yul\":11825:11826   */\n      0x00\n        /* \"#utility.yul\":11814:11823   */\n      dup4\n        /* \"#utility.yul\":11810:11827   */\n      add\n        /* \"#utility.yul\":11801:11807   */\n      dup5\n        /* \"#utility.yul\":11757:11828   */\n      tag_291\n      jump\t// in\n    tag_439:\n        /* \"#utility.yul\":11613:11835   */\n      swap3\n      swap2\n      pop\n      pop\n      jump\t// out\n        /* \"#utility.yul\":11841:12465   */\n    tag_82:\n        /* \"#utility.yul\":12030:12034   */\n      0x00\n        /* \"#utility.yul\":12068:12070   */\n      0x60\n        /* \"#utility.yul\":12057:12066   */\n      dup3\n        /* \"#utility.yul\":12053:12071   */\n      add\n        /* \"#utility.yul\":12045:12071   */\n      swap1\n      pop\n        /* \"#utility.yul\":12117:12126   */\n      dup2\n        /* \"#utility.yul\":12111:12115   */\n      dup2\n        /* \"#utility.yul\":12107:12127   */\n      sub\n        /* \"#utility.yul\":12103:12104   */\n      0x00\n        /* \"#utility.yul\":12092:12101   */\n      dup4\n        /* \"#utility.yul\":12088:12105   */\n      add\n        /* \"#utility.yul\":12081:12128   */\n      mstore\n        /* \"#utility.yul\":12145:12223   */\n      tag_441\n        /* \"#utility.yul\":12218:12222   */\n      dup2\n        /* \"#utility.yul\":12209:12215   */\n      dup7\n        /* \"#utility.yul\":12145:12223   */\n      tag_274\n      jump\t// in\n    tag_441:\n        /* \"#utility.yul\":12137:12223   */\n      swap1\n      pop\n        /* \"#utility.yul\":12270:12279   */\n      dup2\n        /* \"#utility.yul\":12264:12268   */\n      dup2\n        /* \"#utility.yul\":12260:12280   */\n      sub\n        /* \"#utility.yul\":12255:12257   */\n      0x20\n        /* \"#utility.yul\":12244:12253   */\n      dup4\n        /* \"#utility.yul\":12240:12258   */\n      add\n        /* \"#utility.yul\":12233:12281   */\n      mstore\n        /* \"#utility.yul\":12298:12376   */\n      tag_442\n        /* \"#utility.yul\":12371:12375   */\n      dup2\n        /* \"#utility.yul\":12362:12368   */\n      dup6\n        /* \"#utility.yul\":12298:12376   */\n      tag_274\n      jump\t// in\n    tag_442:\n        /* \"#utility.yul\":12290:12376   */\n      swap1\n      pop\n        /* \"#utility.yul\":12386:12458   */\n      tag_443\n        /* \"#utility.yul\":12454:12456   */\n      0x40\n        /* \"#utility.yul\":12443:12452   */\n      dup4\n        /* \"#utility.yul\":12439:12457   */\n      add\n        /* \"#utility.yul\":12430:12436   */\n      dup5\n        /* \"#utility.yul\":12386:12458   */\n      tag_275\n      jump\t// in\n    tag_443:\n        /* \"#utility.yul\":11841:12465   */\n      swap5\n      swap4\n      pop\n      pop\n      pop\n      pop\n      jump\t// out\n        /* \"#utility.yul\":12471:12913   */\n    tag_88:\n        /* \"#utility.yul\":12620:12624   */\n      0x00\n        /* \"#utility.yul\":12658:12660   */\n      0x60\n        /* \"#utility.yul\":12647:12656   */\n      dup3\n        /* \"#utility.yul\":12643:12661   */\n      add\n        /* \"#utility.yul\":12635:12661   */\n      swap1\n      pop\n        /* \"#utility.yul\":12671:12742   */\n      tag_445\n        /* \"#utility.yul\":12739:12740   */\n      0x00\n        /* \"#utility.yul\":12728:12737   */\n      dup4\n        /* \"#utility.yul\":12724:12741   */\n      add\n        /* \"#utility.yul\":12715:12721   */\n      dup7\n        /* \"#utility.yul\":12671:12742   */\n      tag_275\n      jump\t// in\n    tag_445:\n        /* \"#utility.yul\":12752:12824   */\n      tag_446\n        /* \"#utility.yul\":12820:12822   */\n      0x20\n        /* \"#utility.yul\":12809:12818   */\n      dup4\n        /* \"#utility.yul\":12805:12823   */\n      add\n        /* \"#utility.yul\":12796:12802   */\n      dup6\n        /* \"#utility.yul\":12752:12824   */\n      tag_275\n      jump\t// in\n    tag_446:\n        /* \"#utility.yul\":12834:12906   */\n      tag_447\n        /* \"#utility.yul\":12902:12904   */\n      0x40\n        /* \"#utility.yul\":12891:12900   */\n      dup4\n        /* \"#utility.yul\":12887:12905   */\n      add\n        /* \"#utility.yul\":12878:12884   */\n      dup5\n        /* \"#utility.yul\":12834:12906   */\n      tag_275\n      jump\t// in\n    tag_447:\n        /* \"#utility.yul\":12471:12913   */\n      swap5\n      swap4\n      pop\n      pop\n      pop\n      pop\n      jump\t// out\n        /* \"#utility.yul\":12919:13856   */\n    tag_94:\n        /* \"#utility.yul\":13184:13188   */\n      0x00\n        /* \"#utility.yul\":13222:13225   */\n      0xa0\n        /* \"#utility.yul\":13211:13220   */\n      dup3\n        /* \"#utility.yul\":13207:13226   */\n      add\n        /* \"#utility.yul\":13199:13226   */\n      swap1\n      pop\n        /* \"#utility.yul\":13272:13281   */\n      dup2\n        /* \"#utility.yul\":13266:13270   */\n      dup2\n        /* \"#utility.yul\":13262:13282   */\n      sub\n        /* \"#utility.yul\":13258:13259   */\n      0x00\n        /* \"#utility.yul\":13247:13256   */\n      dup4\n        /* \"#utility.yul\":13243:13260   */\n      add\n        /* \"#utility.yul\":13236:13283   */\n      mstore\n        /* \"#utility.yul\":13300:13378   */\n      tag_449\n        /* \"#utility.yul\":13373:13377   */\n      dup2\n        /* \"#utility.yul\":13364:13370   */\n      dup9\n        /* \"#utility.yul\":13300:13378   */\n      tag_274\n      jump\t// in\n    tag_449:\n        /* \"#utility.yul\":13292:13378   */\n      swap1\n      pop\n        /* \"#utility.yul\":13425:13434   */\n      dup2\n        /* \"#utility.yul\":13419:13423   */\n      dup2\n        /* \"#utility.yul\":13415:13435   */\n      sub\n        /* \"#utility.yul\":13410:13412   */\n      0x20\n        /* \"#utility.yul\":13399:13408   */\n      dup4\n        /* \"#utility.yul\":13395:13413   */\n      add\n        /* \"#utility.yul\":13388:13436   */\n      mstore\n        /* \"#utility.yul\":13453:13531   */\n      tag_450\n        /* \"#utility.yul\":13526:13530   */\n      dup2\n        /* \"#utility.yul\":13517:13523   */\n      dup8\n        /* \"#utility.yul\":13453:13531   */\n      tag_274\n      jump\t// in\n    tag_450:\n        /* \"#utility.yul\":13445:13531   */\n      swap1\n      pop\n        /* \"#utility.yul\":13578:13587   */\n      dup2\n        /* \"#utility.yul\":13572:13576   */\n      dup2\n        /* \"#utility.yul\":13568:13588   */\n      sub\n        /* \"#utility.yul\":13563:13565   */\n      0x40\n        /* \"#utility.yul\":13552:13561   */\n      dup4\n        /* \"#utility.yul\":13548:13566   */\n      add\n        /* \"#utility.yul\":13541:13589   */\n      mstore\n        /* \"#utility.yul\":13606:13684   */\n      tag_451\n        /* \"#utility.yul\":13679:13683   */\n      dup2\n        /* \"#utility.yul\":13670:13676   */\n      dup7\n        /* \"#utility.yul\":13606:13684   */\n      tag_274\n      jump\t// in\n    tag_451:\n        /* \"#utility.yul\":13598:13684   */\n      swap1\n      pop\n        /* \"#utility.yul\":13694:13766   */\n      tag_452\n        /* \"#utility.yul\":13762:13764   */\n      0x60\n        /* \"#utility.yul\":13751:13760   */\n      dup4\n        /* \"#utility.yul\":13747:13765   */\n      add\n        /* \"#utility.yul\":13738:13744   */\n      dup6\n        /* \"#utility.yul\":13694:13766   */\n      tag_275\n      jump\t// in\n    tag_452:\n        /* \"#utility.yul\":13776:13849   */\n      tag_453\n        /* \"#utility.yul\":13844:13847   */\n      0x80\n        /* \"#utility.yul\":13833:13842   */\n      dup4\n        /* \"#utility.yul\":13829:13848   */\n      add\n        /* \"#utility.yul\":13820:13826   */\n      dup5\n        /* \"#utility.yul\":13776:13849   */\n      tag_275\n      jump\t// in\n    tag_453:\n        /* \"#utility.yul\":12919:13856   */\n      swap7\n      swap6\n      pop\n      pop\n      pop\n      pop\n      pop\n      pop\n      jump\t// out\n        /* \"#utility.yul\":13862:14000   */\n    tag_292:\n        /* \"#utility.yul\":13943:13975   */\n      tag_455\n        /* \"#utility.yul\":13969:13974   */\n      dup2\n        /* \"#utility.yul\":13943:13975   */\n      tag_286\n      jump\t// in\n    tag_455:\n        /* \"#utility.yul\":13936:13941   */\n      dup2\n        /* \"#utility.yul\":13933:13976   */\n      eq\n        /* \"#utility.yul\":13923:13994   */\n      tag_456\n      jumpi\n        /* \"#utility.yul\":13990:13991   */\n      0x00\n        /* \"#utility.yul\":13987:13988   */\n      dup1\n        /* \"#utility.yul\":13980:13992   */\n      revert\n        /* \"#utility.yul\":13923:13994   */\n    tag_456:\n        /* \"#utility.yul\":13862:14000   */\n      pop\n      jump\t// out\n        /* \"#utility.yul\":14006:14161   */\n    tag_293:\n        /* \"#utility.yul\":14060:14065   */\n      0x00\n        /* \"#utility.yul\":14098:14104   */\n      dup2\n        /* \"#utility.yul\":14085:14105   */\n      calldataload\n        /* \"#utility.yul\":14076:14105   */\n      swap1\n      pop\n        /* \"#utility.yul\":14114:14155   */\n      tag_458\n        /* \"#utility.yul\":14149:14154   */\n      dup2\n        /* \"#utility.yul\":14114:14155   */\n      tag_292\n      jump\t// in\n    tag_458:\n        /* \"#utility.yul\":14006:14161   */\n      swap3\n      swap2\n      pop\n      pop\n      jump\t// out\n        /* \"#utility.yul\":14167:15600   */\n    tag_98:\n        /* \"#utility.yul\":14299:14305   */\n      0x00\n        /* \"#utility.yul\":14307:14313   */\n      dup1\n        /* \"#utility.yul\":14315:14321   */\n      0x00\n        /* \"#utility.yul\":14323:14329   */\n      dup1\n        /* \"#utility.yul\":14331:14337   */\n      0x00\n        /* \"#utility.yul\":14339:14345   */\n      dup1\n        /* \"#utility.yul\":14388:14391   */\n      0xc0\n        /* \"#utility.yul\":14376:14385   */\n      dup8\n        /* \"#utility.yul\":14367:14374   */\n      dup10\n        /* \"#utility.yul\":14363:14386   */\n      sub\n        /* \"#utility.yul\":14359:14392   */\n      slt\n        /* \"#utility.yul\":14356:14476   */\n      iszero\n      tag_460\n      jumpi\n        /* \"#utility.yul\":14395:14474   */\n      tag_461\n      tag_265\n      jump\t// in\n    tag_461:\n        /* \"#utility.yul\":14356:14476   */\n    tag_460:\n        /* \"#utility.yul\":14515:14516   */\n      0x00\n        /* \"#utility.yul\":14540:14601   */\n      tag_462\n        /* \"#utility.yul\":14593:14600   */\n      dup10\n        /* \"#utility.yul\":14584:14590   */\n      dup3\n        /* \"#utility.yul\":14573:14582   */\n      dup11\n        /* \"#utility.yul\":14569:14591   */\n      add\n        /* \"#utility.yul\":14540:14601   */\n      tag_293\n      jump\t// in\n    tag_462:\n        /* \"#utility.yul\":14530:14601   */\n      swap7\n      pop\n        /* \"#utility.yul\":14486:14611   */\n      pop\n        /* \"#utility.yul\":14678:14680   */\n      0x20\n        /* \"#utility.yul\":14667:14676   */\n      dup8\n        /* \"#utility.yul\":14663:14681   */\n      add\n        /* \"#utility.yul\":14650:14682   */\n      calldataload\n        /* \"#utility.yul\":14709:14727   */\n      0xffffffffffffffff\n        /* \"#utility.yul\":14701:14707   */\n      dup2\n        /* \"#utility.yul\":14698:14728   */\n      gt\n        /* \"#utility.yul\":14695:14812   */\n      iszero\n      tag_463\n      jumpi\n        /* \"#utility.yul\":14731:14810   */\n      tag_464\n      tag_266\n      jump\t// in\n    tag_464:\n        /* \"#utility.yul\":14695:14812   */\n    tag_463:\n        /* \"#utility.yul\":14836:14899   */\n      tag_465\n        /* \"#utility.yul\":14891:14898   */\n      dup10\n        /* \"#utility.yul\":14882:14888   */\n      dup3\n        /* \"#utility.yul\":14871:14880   */\n      dup11\n        /* \"#utility.yul\":14867:14889   */\n      add\n        /* \"#utility.yul\":14836:14899   */\n      tag_284\n      jump\t// in\n    tag_465:\n        /* \"#utility.yul\":14826:14899   */\n      swap6\n      pop\n        /* \"#utility.yul\":14621:14909   */\n      pop\n        /* \"#utility.yul\":14976:14978   */\n      0x40\n        /* \"#utility.yul\":14965:14974   */\n      dup8\n        /* \"#utility.yul\":14961:14979   */\n      add\n        /* \"#utility.yul\":14948:14980   */\n      calldataload\n        /* \"#utility.yul\":15007:15025   */\n      0xffffffffffffffff\n        /* \"#utility.yul\":14999:15005   */\n      dup2\n        /* \"#utility.yul\":14996:15026   */\n      gt\n        /* \"#utility.yul\":14993:15110   */\n      iszero\n      tag_466\n      jumpi\n        /* \"#utility.yul\":15029:15108   */\n      tag_467\n      tag_266\n      jump\t// in\n    tag_467:\n        /* \"#utility.yul\":14993:15110   */\n    tag_466:\n        /* \"#utility.yul\":15134:15197   */\n      tag_468\n        /* \"#utility.yul\":15189:15196   */\n      dup10\n        /* \"#utility.yul\":15180:15186   */\n      dup3\n        /* \"#utility.yul\":15169:15178   */\n      dup11\n        /* \"#utility.yul\":15165:15187   */\n      add\n        /* \"#utility.yul\":15134:15197   */\n      tag_284\n      jump\t// in\n    tag_468:\n        /* \"#utility.yul\":15124:15197   */\n      swap5\n      pop\n        /* \"#utility.yul\":14919:15207   */\n      pop\n        /* \"#utility.yul\":15246:15248   */\n      0x60\n        /* \"#utility.yul\":15272:15325   */\n      tag_469\n        /* \"#utility.yul\":15317:15324   */\n      dup10\n        /* \"#utility.yul\":15308:15314   */\n      dup3\n        /* \"#utility.yul\":15297:15306   */\n      dup11\n        /* \"#utility.yul\":15293:15315   */\n      add\n        /* \"#utility.yul\":15272:15325   */\n      tag_269\n      jump\t// in\n    tag_469:\n        /* \"#utility.yul\":15262:15325   */\n      swap4\n      pop\n        /* \"#utility.yul\":15217:15335   */\n      pop\n        /* \"#utility.yul\":15374:15377   */\n      0x80\n        /* \"#utility.yul\":15401:15454   */\n      tag_470\n        /* \"#utility.yul\":15446:15453   */\n      dup10\n        /* \"#utility.yul\":15437:15443   */\n      dup3\n        /* \"#utility.yul\":15426:15435   */\n      dup11\n        /* \"#utility.yul\":15422:15444   */\n      add\n        /* \"#utility.yul\":15401:15454   */\n      tag_269\n      jump\t// in\n    tag_470:\n        /* \"#utility.yul\":15391:15454   */\n      swap3\n      pop\n        /* \"#utility.yul\":15345:15464   */\n      pop\n        /* \"#utility.yul\":15503:15506   */\n      0xa0\n        /* \"#utility.yul\":15530:15583   */\n      tag_471\n        /* \"#utility.yul\":15575:15582   */\n      dup10\n        /* \"#utility.yul\":15566:15572   */\n      dup3\n        /* \"#utility.yul\":15555:15564   */\n      dup11\n        /* \"#utility.yul\":15551:15573   */\n      add\n        /* \"#utility.yul\":15530:15583   */\n      tag_269\n      jump\t// in\n    tag_471:\n        /* \"#utility.yul\":15520:15583   */\n      swap2\n      pop\n        /* \"#utility.yul\":15474:15593   */\n      pop\n        /* \"#utility.yul\":14167:15600   */\n      swap3\n      swap6\n      pop\n      swap3\n      swap6\n      pop\n      swap3\n      swap6\n      jump\t// out\n        /* \"#utility.yul\":15606:16440   */\n    tag_103:\n        /* \"#utility.yul\":15694:15700   */\n      0x00\n        /* \"#utility.yul\":15702:15708   */\n      dup1\n        /* \"#utility.yul\":15751:15753   */\n      0x40\n        /* \"#utility.yul\":15739:15748   */\n      dup4\n        /* \"#utility.yul\":15730:15737   */\n      dup6\n        /* \"#utility.yul\":15726:15749   */\n      sub\n        /* \"#utility.yul\":15722:15754   */\n      slt\n        /* \"#utility.yul\":15719:15838   */\n      iszero\n      tag_473\n      jumpi\n        /* \"#utility.yul\":15757:15836   */\n      tag_474\n      tag_265\n      jump\t// in\n    tag_474:\n        /* \"#utility.yul\":15719:15838   */\n    tag_473:\n        /* \"#utility.yul\":15905:15906   */\n      0x00\n        /* \"#utility.yul\":15894:15903   */\n      dup4\n        /* \"#utility.yul\":15890:15907   */\n      add\n        /* \"#utility.yul\":15877:15908   */\n      calldataload\n        /* \"#utility.yul\":15935:15953   */\n      0xffffffffffffffff\n        /* \"#utility.yul\":15927:15933   */\n      dup2\n        /* \"#utility.yul\":15924:15954   */\n      gt\n        /* \"#utility.yul\":15921:16038   */\n      iszero\n      tag_475\n      jumpi\n        /* \"#utility.yul\":15957:16036   */\n      tag_476\n      tag_266\n      jump\t// in\n    tag_476:\n        /* \"#utility.yul\":15921:16038   */\n    tag_475:\n        /* \"#utility.yul\":16062:16125   */\n      tag_477\n        /* \"#utility.yul\":16117:16124   */\n      dup6\n        /* \"#utility.yul\":16108:16114   */\n      dup3\n        /* \"#utility.yul\":16097:16106   */\n      dup7\n        /* \"#utility.yul\":16093:16115   */\n      add\n        /* \"#utility.yul\":16062:16125   */\n      tag_284\n      jump\t// in\n    tag_477:\n        /* \"#utility.yul\":16052:16125   */\n      swap3\n      pop\n        /* \"#utility.yul\":15848:16135   */\n      pop\n        /* \"#utility.yul\":16202:16204   */\n      0x20\n        /* \"#utility.yul\":16191:16200   */\n      dup4\n        /* \"#utility.yul\":16187:16205   */\n      add\n        /* \"#utility.yul\":16174:16206   */\n      calldataload\n        /* \"#utility.yul\":16233:16251   */\n      0xffffffffffffffff\n        /* \"#utility.yul\":16225:16231   */\n      dup2\n        /* \"#utility.yul\":16222:16252   */\n      gt\n        /* \"#utility.yul\":16219:16336   */\n      iszero\n      tag_478\n      jumpi\n        /* \"#utility.yul\":16255:16334   */\n      tag_479\n      tag_266\n      jump\t// in\n    tag_479:\n        /* \"#utility.yul\":16219:16336   */\n    tag_478:\n        /* \"#utility.yul\":16360:16423   */\n      tag_480\n        /* \"#utility.yul\":16415:16422   */\n      dup6\n        /* \"#utility.yul\":16406:16412   */\n      dup3\n        /* \"#utility.yul\":16395:16404   */\n      dup7\n        /* \"#utility.yul\":16391:16413   */\n      add\n        /* \"#utility.yul\":16360:16423   */\n      tag_284\n      jump\t// in\n    tag_480:\n        /* \"#utility.yul\":16350:16423   */\n      swap2\n      pop\n        /* \"#utility.yul\":16145:16433   */\n      pop\n        /* \"#utility.yul\":15606:16440   */\n      swap3\n      pop\n      swap3\n      swap1\n      pop\n      jump\t// out\n        /* \"#utility.yul\":16446:16568   */\n    tag_294:\n        /* \"#utility.yul\":16519:16543   */\n      tag_482\n        /* \"#utility.yul\":16537:16542   */\n      dup2\n        /* \"#utility.yul\":16519:16543   */\n      tag_290\n      jump\t// in\n    tag_482:\n        /* \"#utility.yul\":16512:16517   */\n      dup2\n        /* \"#utility.yul\":16509:16544   */\n      eq\n        /* \"#utility.yul\":16499:16562   */\n      tag_483\n      jumpi\n        /* \"#utility.yul\":16558:16559   */\n      0x00\n        /* \"#utility.yul\":16555:16556   */\n      dup1\n        /* \"#utility.yul\":16548:16560   */\n      revert\n        /* \"#utility.yul\":16499:16562   */\n    tag_483:\n        /* \"#utility.yul\":16446:16568   */\n      pop\n      jump\t// out\n        /* \"#utility.yul\":16574:16713   */\n    tag_295:\n        /* \"#utility.yul\":16620:16625   */\n      0x00\n        /* \"#utility.yul\":16658:16664   */\n      dup2\n        /* \"#utility.yul\":16645:16665   */\n      calldataload\n        /* \"#utility.yul\":16636:16665   */\n      swap1\n      pop\n        /* \"#utility.yul\":16674:16707   */\n      tag_485\n        /* \"#utility.yul\":16701:16706   */\n      dup2\n        /* \"#utility.yul\":16674:16707   */\n      tag_294\n      jump\t// in\n    tag_485:\n        /* \"#utility.yul\":16574:16713   */\n      swap3\n      swap2\n      pop\n      pop\n      jump\t// out\n        /* \"#utility.yul\":16719:17048   */\n    tag_108:\n        /* \"#utility.yul\":16778:16784   */\n      0x00\n        /* \"#utility.yul\":16827:16829   */\n      0x20\n        /* \"#utility.yul\":16815:16824   */\n      dup3\n        /* \"#utility.yul\":16806:16813   */\n      dup5\n        /* \"#utility.yul\":16802:16825   */\n      sub\n        /* \"#utility.yul\":16798:16830   */\n      slt\n        /* \"#utility.yul\":16795:16914   */\n      iszero\n      tag_487\n      jumpi\n        /* \"#utility.yul\":16833:16912   */\n      tag_488\n      tag_265\n      jump\t// in\n    tag_488:\n        /* \"#utility.yul\":16795:16914   */\n    tag_487:\n        /* \"#utility.yul\":16953:16954   */\n      0x00\n        /* \"#utility.yul\":16978:17031   */\n      tag_489\n        /* \"#utility.yul\":17023:17030   */\n      dup5\n        /* \"#utility.yul\":17014:17020   */\n      dup3\n        /* \"#utility.yul\":17003:17012   */\n      dup6\n        /* \"#utility.yul\":16999:17021   */\n      add\n        /* \"#utility.yul\":16978:17031   */\n      tag_295\n      jump\t// in\n    tag_489:\n        /* \"#utility.yul\":16968:17031   */\n      swap2\n      pop\n        /* \"#utility.yul\":16924:17041   */\n      pop\n        /* \"#utility.yul\":16719:17048   */\n      swap3\n      swap2\n      pop\n      pop\n      jump\t// out\n        /* \"#utility.yul\":17054:17234   */\n    tag_296:\n        /* \"#utility.yul\":17102:17179   */\n      0x4e487b7100000000000000000000000000000000000000000000000000000000\n        /* \"#utility.yul\":17099:17100   */\n      0x00\n        /* \"#utility.yul\":17092:17180   */\n      mstore\n        /* \"#utility.yul\":17199:17203   */\n      0x22\n        /* \"#utility.yul\":17196:17197   */\n      0x04\n        /* \"#utility.yul\":17189:17204   */\n      mstore\n        /* \"#utility.yul\":17223:17227   */\n      0x24\n        /* \"#utility.yul\":17220:17221   */\n      0x00\n        /* \"#utility.yul\":17213:17228   */\n      revert\n        /* \"#utility.yul\":17240:17560   */\n    tag_113:\n        /* \"#utility.yul\":17284:17290   */\n      0x00\n        /* \"#utility.yul\":17321:17322   */\n      0x02\n        /* \"#utility.yul\":17315:17319   */\n      dup3\n        /* \"#utility.yul\":17311:17323   */\n      div\n        /* \"#utility.yul\":17301:17323   */\n      swap1\n      pop\n        /* \"#utility.yul\":17368:17369   */\n      0x01\n        /* \"#utility.yul\":17362:17366   */\n      dup3\n        /* \"#utility.yul\":17358:17370   */\n      and\n        /* \"#utility.yul\":17389:17407   */\n      dup1\n        /* \"#utility.yul\":17379:17460   */\n      tag_492\n      jumpi\n        /* \"#utility.yul\":17445:17449   */\n      0x7f\n        /* \"#utility.yul\":17437:17443   */\n      dup3\n        /* \"#utility.yul\":17433:17450   */\n      and\n        /* \"#utility.yul\":17423:17450   */\n      swap2\n      pop\n        /* \"#utility.yul\":17379:17460   */\n    tag_492:\n        /* \"#utility.yul\":17507:17509   */\n      0x20\n        /* \"#utility.yul\":17499:17505   */\n      dup3\n        /* \"#utility.yul\":17496:17510   */\n      lt\n        /* \"#utility.yul\":17476:17494   */\n      dup2\n        /* \"#utility.yul\":17473:17511   */\n      sub\n        /* \"#utility.yul\":17470:17554   */\n      tag_493\n      jumpi\n        /* \"#utility.yul\":17526:17544   */\n      tag_494\n      tag_296\n      jump\t// in\n    tag_494:\n        /* \"#utility.yul\":17470:17554   */\n    tag_493:\n        /* \"#utility.yul\":17291:17560   */\n      pop\n        /* \"#utility.yul\":17240:17560   */\n      swap2\n      swap1\n      pop\n      jump\t// out\n        /* \"#utility.yul\":17566:17707   */\n    tag_297:\n        /* \"#utility.yul\":17615:17619   */\n      0x00\n        /* \"#utility.yul\":17638:17641   */\n      dup2\n        /* \"#utility.yul\":17630:17641   */\n      swap1\n      pop\n        /* \"#utility.yul\":17661:17664   */\n      dup2\n        /* \"#utility.yul\":17658:17659   */\n      0x00\n        /* \"#utility.yul\":17651:17665   */\n      mstore\n        /* \"#utility.yul\":17695:17699   */\n      0x20\n        /* \"#utility.yul\":17692:17693   */\n      0x00\n        /* \"#utility.yul\":17682:17700   */\n      keccak256\n        /* \"#utility.yul\":17674:17700   */\n      swap1\n      pop\n        /* \"#utility.yul\":17566:17707   */\n      swap2\n      swap1\n      pop\n      jump\t// out\n        /* \"#utility.yul\":17713:17806   */\n    tag_298:\n        /* \"#utility.yul\":17750:17756   */\n      0x00\n        /* \"#utility.yul\":17797:17799   */\n      0x20\n        /* \"#utility.yul\":17792:17794   */\n      0x1f\n        /* \"#utility.yul\":17785:17790   */\n      dup4\n        /* \"#utility.yul\":17781:17795   */\n      add\n        /* \"#utility.yul\":17777:17800   */\n      div\n        /* \"#utility.yul\":17767:17800   */\n      swap1\n      pop\n        /* \"#utility.yul\":17713:17806   */\n      swap2\n      swap1\n      pop\n      jump\t// out\n        /* \"#utility.yul\":17812:17919   */\n    tag_299:\n        /* \"#utility.yul\":17856:17864   */\n      0x00\n        /* \"#utility.yul\":17906:17911   */\n      dup3\n        /* \"#utility.yul\":17900:17904   */\n      dup3\n        /* \"#utility.yul\":17896:17912   */\n      shl\n        /* \"#utility.yul\":17875:17912   */\n      swap1\n      pop\n        /* \"#utility.yul\":17812:17919   */\n      swap3\n      swap2\n      pop\n      pop\n      jump\t// out\n        /* \"#utility.yul\":17925:18318   */\n    tag_300:\n        /* \"#utility.yul\":17994:18000   */\n      0x00\n        /* \"#utility.yul\":18044:18045   */\n      0x08\n        /* \"#utility.yul\":18032:18042   */\n      dup4\n        /* \"#utility.yul\":18028:18046   */\n      mul\n        /* \"#utility.yul\":18067:18164   */\n      tag_499\n        /* \"#utility.yul\":18097:18163   */\n      0xffffffffffffffffffffffffffffffffffffffffffffffffffffffffffffffff\n        /* \"#utility.yul\":18086:18095   */\n      dup3\n        /* \"#utility.yul\":18067:18164   */\n      tag_299\n      jump\t// in\n    tag_499:\n        /* \"#utility.yul\":18185:18224   */\n      tag_500\n        /* \"#utility.yul\":18215:18223   */\n      dup7\n        /* \"#utility.yul\":18204:18213   */\n      dup4\n        /* \"#utility.yul\":18185:18224   */\n      tag_299\n      jump\t// in\n    tag_500:\n        /* \"#utility.yul\":18173:18224   */\n      swap6\n      pop\n        /* \"#utility.yul\":18257:18261   */\n      dup1\n        /* \"#utility.yul\":18253:18262   */\n      not\n        /* \"#utility.yul\":18246:18251   */\n      dup5\n        /* \"#utility.yul\":18242:18263   */\n      and\n        /* \"#utility.yul\":18233:18263   */\n      swap4\n      pop\n        /* \"#utility.yul\":18306:18310   */\n      dup1\n        /* \"#utility.yul\":18296:18304   */\n      dup7\n        /* \"#utility.yul\":18292:18311   */\n      and\n        /* \"#utility.yul\":18285:18290   */\n      dup5\n        /* \"#utility.yul\":18282:18312   */\n      or\n        /* \"#utility.yul\":18272:18312   */\n      swap3\n      pop\n        /* \"#utility.yul\":18001:18318   */\n      pop\n      pop\n        /* \"#utility.yul\":17925:18318   */\n      swap4\n      swap3\n      pop\n      pop\n      pop\n      jump\t// out\n        /* \"#utility.yul\":18324:18384   */\n    tag_301:\n        /* \"#utility.yul\":18352:18355   */\n      0x00\n        /* \"#utility.yul\":18373:18378   */\n      dup2\n        /* \"#utility.yul\":18366:18378   */\n      swap1\n      pop\n        /* \"#utility.yul\":18324:18384   */\n      swap2\n      swap1\n      pop\n      jump\t// out\n        /* \"#utility.yul\":18390:18532   */\n    tag_302:\n        /* \"#utility.yul\":18440:18449   */\n      0x00\n        /* \"#utility.yul\":18473:18526   */\n      tag_503\n        /* \"#utility.yul\":18491:18525   */\n      tag_504\n        /* \"#utility.yul\":18500:18524   */\n      tag_505\n        /* \"#utility.yul\":18518:18523   */\n      dup5\n        /* \"#utility.yul\":18500:18524   */\n      tag_267\n      jump\t// in\n    tag_505:\n        /* \"#utility.yul\":18491:18525   */\n      tag_301\n      jump\t// in\n    tag_504:\n        /* \"#utility.yul\":18473:18526   */\n      tag_267\n      jump\t// in\n    tag_503:\n        /* \"#utility.yul\":18460:18526   */\n      swap1\n      pop\n        /* \"#utility.yul\":18390:18532   */\n      swap2\n      swap1\n      pop\n      jump\t// out\n        /* \"#utility.yul\":18538:18613   */\n    tag_303:\n        /* \"#utility.yul\":18581:18584   */\n      0x00\n        /* \"#utility.yul\":18602:18607   */\n      dup2\n        /* \"#utility.yul\":18595:18607   */\n      swap1\n      pop\n        /* \"#utility.yul\":18538:18613   */\n      swap2\n      swap1\n      pop\n      jump\t// out\n        /* \"#utility.yul\":18619:18888   */\n    tag_304:\n        /* \"#utility.yul\":18729:18768   */\n      tag_508\n        /* \"#utility.yul\":18760:18767   */\n      dup4\n        /* \"#utility.yul\":18729:18768   */\n      tag_302\n      jump\t// in\n    tag_508:\n        /* \"#utility.yul\":18790:18881   */\n      tag_509\n        /* \"#utility.yul\":18839:18880   */\n      tag_510\n        /* \"#utility.yul\":18863:18879   */\n      dup3\n        /* \"#utility.yul\":18839:18880   */\n      tag_303\n      jump\t// in\n    tag_510:\n        /* \"#utility.yul\":18831:18837   */\n      dup5\n        /* \"#utility.yul\":18824:18828   */\n      dup5\n        /* \"#utility.yul\":18818:18829   */\n      sload\n        /* \"#utility.yul\":18790:18881   */\n      tag_300\n      jump\t// in\n    tag_509:\n        /* \"#utility.yul\":18784:18788   */\n      dup3\n        /* \"#utility.yul\":18777:18882   */\n      sstore\n        /* \"#utility.yul\":18695:18888   */\n      pop\n        /* \"#utility.yul\":18619:18888   */\n      pop\n      pop\n      pop\n      jump\t// out\n        /* \"#utility.yul\":18894:18967   */\n    tag_305:\n        /* \"#utility.yul\":18939:18942   */\n      0x00\n        /* \"#utility.yul\":18894:18967   */\n      swap1\n      jump\t// out\n        /* \"#utility.yul\":18973:19162   */\n    tag_306:\n        /* \"#utility.yul\":19050:19082   */\n      tag_513\n      tag_305\n      jump\t// in\n    tag_513:\n        /* \"#utility.yul\":19091:19156   */\n      tag_514\n        /* \"#utility.yul\":19149:19155   */\n      dup2\n        /* \"#utility.yul\":19141:19147   */\n      dup5\n        /* \"#utility.yul\":19135:19139   */\n      dup5\n        /* \"#utility.yul\":19091:19156   */\n      tag_304\n      jump\t// in\n    tag_514:\n        /* \"#utility.yul\":19026:19162   */\n      pop\n        /* \"#utility.yul\":18973:19162   */\n      pop\n      pop\n      jump\t// out\n        /* \"#utility.yul\":19168:19354   */\n    tag_307:\n        /* \"#utility.yul\":19228:19348   */\n    tag_516:\n        /* \"#utility.yul\":19245:19248   */\n      dup2\n        /* \"#utility.yul\":19238:19243   */\n      dup2\n        /* \"#utility.yul\":19235:19249   */\n      lt\n        /* \"#utility.yul\":19228:19348   */\n      iszero\n      tag_518\n      jumpi\n        /* \"#utility.yul\":19299:19338   */\n      tag_519\n        /* \"#utility.yul\":19336:19337   */\n      0x00\n        /* \"#utility.yul\":19329:19334   */\n      dup3\n        /* \"#utility.yul\":19299:19338   */\n      tag_306\n      jump\t// in\n    tag_519:\n        /* \"#utility.yul\":19272:19273   */\n      0x01\n        /* \"#utility.yul\":19265:19270   */\n      dup2\n        /* \"#utility.yul\":19261:19274   */\n      add\n        /* \"#utility.yul\":19252:19274   */\n      swap1\n      pop\n        /* \"#utility.yul\":19228:19348   */\n      jump(tag_516)\n    tag_518:\n        /* \"#utility.yul\":19168:19354   */\n      pop\n      pop\n      jump\t// out\n        /* \"#utility.yul\":19360:19903   */\n    tag_308:\n        /* \"#utility.yul\":19461:19463   */\n      0x1f\n        /* \"#utility.yul\":19456:19459   */\n      dup3\n        /* \"#utility.yul\":19453:19464   */\n      gt\n        /* \"#utility.yul\":19450:19896   */\n      iszero\n      tag_521\n      jumpi\n        /* \"#utility.yul\":19495:19533   */\n      tag_522\n        /* \"#utility.yul\":19527:19532   */\n      dup2\n        /* \"#utility.yul\":19495:19533   */\n      tag_297\n      jump\t// in\n    tag_522:\n        /* \"#utility.yul\":19579:19608   */\n      tag_523\n        /* \"#utility.yul\":19597:19607   */\n      dup5\n        /* \"#utility.yul\":19579:19608   */\n      tag_298\n      jump\t// in\n    tag_523:\n        /* \"#utility.yul\":19569:19577   */\n      dup2\n        /* \"#utility.yul\":19565:19609   */\n      add\n        /* \"#utility.yul\":19762:19764   */\n      0x20\n        /* \"#utility.yul\":19750:19760   */\n      dup6\n        /* \"#utility.yul\":19747:19765   */\n      lt\n        /* \"#utility.yul\":19744:19793   */\n      iszero\n      tag_524\n      jumpi\n        /* \"#utility.yul\":19783:19791   */\n      dup2\n        /* \"#utility.yul\":19768:19791   */\n      swap1\n      pop\n        /* \"#utility.yul\":19744:19793   */\n    tag_524:\n        /* \"#utility.yul\":19806:19886   */\n      tag_525\n        /* \"#utility.yul\":19862:19884   */\n      tag_526\n        /* \"#utility.yul\":19880:19883   */\n      dup6\n        /* \"#utility.yul\":19862:19884   */\n      tag_298\n      jump\t// in\n    tag_526:\n        /* \"#utility.yul\":19852:19860   */\n      dup4\n        /* \"#utility.yul\":19848:19885   */\n      add\n        /* \"#utility.yul\":19835:19846   */\n      dup3\n        /* \"#utility.yul\":19806:19886   */\n      tag_307\n      jump\t// in\n    tag_525:\n        /* \"#utility.yul\":19465:19896   */\n      pop\n      pop\n        /* \"#utility.yul\":19450:19896   */\n    tag_521:\n        /* \"#utility.yul\":19360:19903   */\n      pop\n      pop\n      pop\n      jump\t// out\n        /* \"#utility.yul\":19909:20026   */\n    tag_309:\n        /* \"#utility.yul\":19963:19971   */\n      0x00\n        /* \"#utility.yul\":20013:20018   */\n      dup3\n        /* \"#utility.yul\":20007:20011   */\n      dup3\n        /* \"#utility.yul\":20003:20019   */\n      shr\n        /* \"#utility.yul\":19982:20019   */\n      swap1\n      pop\n        /* \"#utility.yul\":19909:20026   */\n      swap3\n      swap2\n      pop\n      pop\n      jump\t// out\n        /* \"#utility.yul\":20032:20201   */\n    tag_310:\n        /* \"#utility.yul\":20076:20082   */\n      0x00\n        /* \"#utility.yul\":20109:20160   */\n      tag_529\n        /* \"#utility.yul\":20157:20158   */\n      0x00\n        /* \"#utility.yul\":20153:20159   */\n      not\n        /* \"#utility.yul\":20145:20150   */\n      dup5\n        /* \"#utility.yul\":20142:20143   */\n      0x08\n        /* \"#utility.yul\":20138:20151   */\n      mul\n        /* \"#utility.yul\":20109:20160   */\n      tag_309\n      jump\t// in\n    tag_529:\n        /* \"#utility.yul\":20105:20161   */\n      not\n        /* \"#utility.yul\":20190:20194   */\n      dup1\n        /* \"#utility.yul\":20184:20188   */\n      dup4\n        /* \"#utility.yul\":20180:20195   */\n      and\n        /* \"#utility.yul\":20170:20195   */\n      swap2\n      pop\n        /* \"#utility.yul\":20083:20201   */\n      pop\n        /* \"#utility.yul\":20032:20201   */\n      swap3\n      swap2\n      pop\n      pop\n      jump\t// out\n        /* \"#utility.yul\":20206:20501   */\n    tag_311:\n        /* \"#utility.yul\":20282:20286   */\n      0x00\n        /* \"#utility.yul\":20428:20457   */\n      tag_531\n        /* \"#utility.yul\":20453:20456   */\n      dup4\n        /* \"#utility.yul\":20447:20451   */\n      dup4\n        /* \"#utility.yul\":20428:20457   */\n      tag_310\n      jump\t// in\n    tag_531:\n        /* \"#utility.yul\":20420:20457   */\n      swap2\n      pop\n        /* \"#utility.yul\":20490:20493   */\n      dup3\n        /* \"#utility.yul\":20487:20488   */\n      0x02\n        /* \"#utility.yul\":20483:20494   */\n      mul\n        /* \"#utility.yul\":20477:20481   */\n      dup3\n        /* \"#utility.yul\":20474:20495   */\n      or\n        /* \"#utility.yul\":20466:20495   */\n      swap1\n      pop\n        /* \"#utility.yul\":20206:20501   */\n      swap3\n      swap2\n      pop\n      pop\n      jump\t// out\n        /* \"#utility.yul\":20506:21901   */\n    tag_134:\n        /* \"#utility.yul\":20623:20660   */\n      tag_533\n        /* \"#utility.yul\":20656:20659   */\n      dup3\n        /* \"#utility.yul\":20623:20660   */\n      tag_270\n      jump\t// in\n    tag_533:\n        /* \"#utility.yul\":20725:20743   */\n      0xffffffffffffffff\n        /* \"#utility.yul\":20717:20723   */\n      dup2\n        /* \"#utility.yul\":20714:20744   */\n      gt\n        /* \"#utility.yul\":20711:20767   */\n      iszero\n      tag_534\n      jumpi\n        /* \"#utility.yul\":20747:20765   */\n      tag_535\n      tag_278\n      jump\t// in\n    tag_535:\n        /* \"#utility.yul\":20711:20767   */\n    tag_534:\n        /* \"#utility.yul\":20791:20829   */\n      tag_536\n        /* \"#utility.yul\":20823:20827   */\n      dup3\n        /* \"#utility.yul\":20817:20828   */\n      sload\n        /* \"#utility.yul\":20791:20829   */\n      tag_113\n      jump\t// in\n    tag_536:\n        /* \"#utility.yul\":20876:20943   */\n      tag_537\n        /* \"#utility.yul\":20936:20942   */\n      dup3\n        /* \"#utility.yul\":20928:20934   */\n      dup3\n        /* \"#utility.yul\":20922:20926   */\n      dup6\n        /* \"#utility.yul\":20876:20943   */\n      tag_308\n      jump\t// in\n    tag_537:\n        /* \"#utility.yul\":20970:20971   */\n      0x00\n        /* \"#utility.yul\":20994:20998   */\n      0x20\n        /* \"#utility.yul\":20981:20998   */\n      swap1\n      pop\n        /* \"#utility.yul\":21026:21028   */\n      0x1f\n        /* \"#utility.yul\":21018:21024   */\n      dup4\n        /* \"#utility.yul\":21015:21029   */\n      gt\n        /* \"#utility.yul\":21043:21044   */\n      0x01\n        /* \"#utility.yul\":21038:21656   */\n      dup2\n      eq\n      tag_539\n      jumpi\n        /* \"#utility.yul\":21700:21701   */\n      0x00\n        /* \"#utility.yul\":21717:21723   */\n      dup5\n        /* \"#utility.yul\":21714:21791   */\n      iszero\n      tag_540\n      jumpi\n        /* \"#utility.yul\":21766:21775   */\n      dup3\n        /* \"#utility.yul\":21761:21764   */\n      dup8\n        /* \"#utility.yul\":21757:21776   */\n      add\n        /* \"#utility.yul\":21751:21777   */\n      mload\n        /* \"#utility.yul\":21742:21777   */\n      swap1\n      pop\n        /* \"#utility.yul\":21714:21791   */\n    tag_540:\n        /* \"#utility.yul\":21817:21884   */\n      tag_541\n        /* \"#utility.yul\":21877:21883   */\n      dup6\n        /* \"#utility.yul\":21870:21875   */\n      dup3\n        /* \"#utility.yul\":21817:21884   */\n      tag_311\n      jump\t// in\n    tag_541:\n        /* \"#utility.yul\":21811:21815   */\n      dup7\n        /* \"#utility.yul\":21804:21885   */\n      sstore\n        /* \"#utility.yul\":21673:21895   */\n      pop\n        /* \"#utility.yul\":21008:21895   */\n      jump(tag_538)\n        /* \"#utility.yul\":21038:21656   */\n    tag_539:\n        /* \"#utility.yul\":21090:21094   */\n      0x1f\n        /* \"#utility.yul\":21086:21095   */\n      not\n        /* \"#utility.yul\":21078:21084   */\n      dup5\n        /* \"#utility.yul\":21074:21096   */\n      and\n        /* \"#utility.yul\":21124:21161   */\n      tag_542\n        /* \"#utility.yul\":21156:21160   */\n      dup7\n        /* \"#utility.yul\":21124:21161   */\n      tag_297\n      jump\t// in\n    tag_542:\n        /* \"#utility.yul\":21183:21184   */\n      0x00\n        /* \"#utility.yul\":21197:21405   */\n    tag_543:\n        /* \"#utility.yul\":21211:21218   */\n      dup3\n        /* \"#utility.yul\":21208:21209   */\n      dup2\n        /* \"#utility.yul\":21205:21219   */\n      lt\n        /* \"#utility.yul\":21197:21405   */\n      iszero\n      tag_545\n      jumpi\n        /* \"#utility.yul\":21290:21299   */\n      dup5\n        /* \"#utility.yul\":21285:21288   */\n      dup10\n        /* \"#utility.yul\":21281:21300   */\n      add\n        /* \"#utility.yul\":21275:21301   */\n      mload\n        /* \"#utility.yul\":21267:21273   */\n      dup3\n        /* \"#utility.yul\":21260:21302   */\n      sstore\n        /* \"#utility.yul\":21341:21342   */\n      0x01\n        /* \"#utility.yul\":21333:21339   */\n      dup3\n        /* \"#utility.yul\":21329:21343   */\n      add\n        /* \"#utility.yul\":21319:21343   */\n      swap2\n      pop\n        /* \"#utility.yul\":21388:21390   */\n      0x20\n        /* \"#utility.yul\":21377:21386   */\n      dup6\n        /* \"#utility.yul\":21373:21391   */\n      add\n        /* \"#utility.yul\":21360:21391   */\n      swap5\n      pop\n        /* \"#utility.yul\":21234:21238   */\n      0x20\n        /* \"#utility.yul\":21231:21232   */\n      dup2\n        /* \"#utility.yul\":21227:21239   */\n      add\n        /* \"#utility.yul\":21222:21239   */\n      swap1\n      pop\n        /* \"#utility.yul\":21197:21405   */\n      jump(tag_543)\n    tag_545:\n        /* \"#utility.yul\":21433:21439   */\n      dup7\n        /* \"#utility.yul\":21424:21431   */\n      dup4\n        /* \"#utility.yul\":21421:21440   */\n      lt\n        /* \"#utility.yul\":21418:21597   */\n      iszero\n      tag_546\n      jumpi\n        /* \"#utility.yul\":21491:21500   */\n      dup5\n        /* \"#utility.yul\":21486:21489   */\n      dup10\n        /* \"#utility.yul\":21482:21501   */\n      add\n        /* \"#utility.yul\":21476:21502   */\n      mload\n        /* \"#utility.yul\":21534:21582   */\n      tag_547\n        /* \"#utility.yul\":21576:21580   */\n      0x1f\n        /* \"#utility.yul\":21568:21574   */\n      dup10\n        /* \"#utility.yul\":21564:21581   */\n      and\n        /* \"#utility.yul\":21553:21562   */\n      dup3\n        /* \"#utility.yul\":21534:21582   */\n      tag_310\n      jump\t// in\n    tag_547:\n        /* \"#utility.yul\":21526:21532   */\n      dup4\n        /* \"#utility.yul\":21519:21583   */\n      sstore\n        /* \"#utility.yul\":21441:21597   */\n      pop\n        /* \"#utility.yul\":21418:21597   */\n    tag_546:\n        /* \"#utility.yul\":21643:21644   */\n      0x01\n        /* \"#utility.yul\":21639:21640   */\n      0x02\n        /* \"#utility.yul\":21631:21637   */\n      dup9\n        /* \"#utility.yul\":21627:21641   */\n      mul\n        /* \"#utility.yul\":21623:21645   */\n      add\n        /* \"#utility.yul\":21617:21621   */\n      dup9\n        /* \"#utility.yul\":21610:21646   */\n      sstore\n        /* \"#utility.yul\":21045:21656   */\n      pop\n      pop\n      pop\n        /* \"#utility.yul\":21008:21895   */\n    tag_538:\n      pop\n        /* \"#utility.yul\":20598:21901   */\n      pop\n      pop\n      pop\n        /* \"#utility.yul\":20506:21901   */\n      pop\n      pop\n      jump\t// out\n        /* \"#utility.yul\":21907:22086   */\n    tag_312:\n        /* \"#utility.yul\":22047:22078   */\n      0x496e73756666696369656e7420636f6e74726163742062616c616e6365000000\n        /* \"#utility.yul\":22043:22044   */\n      0x00\n        /* \"#utility.yul\":22035:22041   */\n      dup3\n        /* \"#utility.yul\":22031:22045   */\n      add\n        /* \"#utility.yul\":22024:22079   */\n      mstore\n        /* \"#utility.yul\":21907:22086   */\n      pop\n      jump\t// out\n        /* \"#utility.yul\":22092:22458   */\n    tag_313:\n        /* \"#utility.yul\":22234:22237   */\n      0x00\n        /* \"#utility.yul\":22255:22322   */\n      tag_550\n        /* \"#utility.yul\":22319:22321   */\n      0x1d\n        /* \"#utility.yul\":22314:22317   */\n      dup4\n        /* \"#utility.yul\":22255:22322   */\n      tag_271\n      jump\t// in\n    tag_550:\n        /* \"#utility.yul\":22248:22322   */\n      swap2\n      pop\n        /* \"#utility.yul\":22331:22424   */\n      tag_551\n        /* \"#utility.yul\":22420:22423   */\n      dup3\n        /* \"#utility.yul\":22331:22424   */\n      tag_312\n      jump\t// in\n    tag_551:\n        /* \"#utility.yul\":22449:22451   */\n      0x20\n        /* \"#utility.yul\":22444:22447   */\n      dup3\n        /* \"#utility.yul\":22440:22452   */\n      add\n        /* \"#utility.yul\":22433:22452   */\n      swap1\n      pop\n        /* \"#utility.yul\":22092:22458   */\n      swap2\n      swap1\n      pop\n      jump\t// out\n        /* \"#utility.yul\":22464:22883   */\n    tag_156:\n        /* \"#utility.yul\":22630:22634   */\n      0x00\n        /* \"#utility.yul\":22668:22670   */\n      0x20\n        /* \"#utility.yul\":22657:22666   */\n      dup3\n        /* \"#utility.yul\":22653:22671   */\n      add\n        /* \"#utility.yul\":22645:22671   */\n      swap1\n      pop\n        /* \"#utility.yul\":22717:22726   */\n      dup2\n        /* \"#utility.yul\":22711:22715   */\n      dup2\n        /* \"#utility.yul\":22707:22727   */\n      sub\n        /* \"#utility.yul\":22703:22704   */\n      0x00\n        /* \"#utility.yul\":22692:22701   */\n      dup4\n        /* \"#utility.yul\":22688:22705   */\n      add\n        /* \"#utility.yul\":22681:22728   */\n      mstore\n        /* \"#utility.yul\":22745:22876   */\n      tag_553\n        /* \"#utility.yul\":22871:22875   */\n      dup2\n        /* \"#utility.yul\":22745:22876   */\n      tag_313\n      jump\t// in\n    tag_553:\n        /* \"#utility.yul\":22737:22876   */\n      swap1\n      pop\n        /* \"#utility.yul\":22464:22883   */\n      swap2\n      swap1\n      pop\n      jump\t// out\n        /* \"#utility.yul\":22889:23061   */\n    tag_314:\n        /* \"#utility.yul\":23029:23053   */\n      0x5061636b657420697320616c726561647920736f6c6400000000000000000000\n        /* \"#utility.yul\":23025:23026   */\n      0x00\n        /* \"#utility.yul\":23017:23023   */\n      dup3\n        /* \"#utility.yul\":23013:23027   */\n      add\n        /* \"#utility.yul\":23006:23054   */\n      mstore\n        /* \"#utility.yul\":22889:23061   */\n      pop\n      jump\t// out\n        /* \"#utility.yul\":23067:23433   */\n    tag_315:\n        /* \"#utility.yul\":23209:23212   */\n      0x00\n        /* \"#utility.yul\":23230:23297   */\n      tag_556\n        /* \"#utility.yul\":23294:23296   */\n      0x16\n        /* \"#utility.yul\":23289:23292   */\n      dup4\n        /* \"#utility.yul\":23230:23297   */\n      tag_271\n      jump\t// in\n    tag_556:\n        /* \"#utility.yul\":23223:23297   */\n      swap2\n      pop\n        /* \"#utility.yul\":23306:23399   */\n      tag_557\n        /* \"#utility.yul\":23395:23398   */\n      dup3\n        /* \"#utility.yul\":23306:23399   */\n      tag_314\n      jump\t// in\n    tag_557:\n        /* \"#utility.yul\":23424:23426   */\n      0x20\n        /* \"#utility.yul\":23419:23422   */\n      dup3\n        /* \"#utility.yul\":23415:23427   */\n      add\n        /* \"#utility.yul\":23408:23427   */\n      swap1\n      pop\n        /* \"#utility.yul\":23067:23433   */\n      swap2\n      swap1\n      pop\n      jump\t// out\n        /* \"#utility.yul\":23439:23858   */\n    tag_185:\n        /* \"#utility.yul\":23605:23609   */\n      0x00\n        /* \"#utility.yul\":23643:23645   */\n      0x20\n        /* \"#utility.yul\":23632:23641   */\n      dup3\n        /* \"#utility.yul\":23628:23646   */\n      add\n        /* \"#utility.yul\":23620:23646   */\n      swap1\n      pop\n        /* \"#utility.yul\":23692:23701   */\n      dup2\n        /* \"#utility.yul\":23686:23690   */\n      dup2\n        /* \"#utility.yul\":23682:23702   */\n      sub\n        /* \"#utility.yul\":23678:23679   */\n      0x00\n        /* \"#utility.yul\":23667:23676   */\n      dup4\n        /* \"#utility.yul\":23663:23680   */\n      add\n        /* \"#utility.yul\":23656:23703   */\n      mstore\n        /* \"#utility.yul\":23720:23851   */\n      tag_559\n        /* \"#utility.yul\":23846:23850   */\n      dup2\n        /* \"#utility.yul\":23720:23851   */\n      tag_315\n      jump\t// in\n    tag_559:\n        /* \"#utility.yul\":23712:23851   */\n      swap1\n      pop\n        /* \"#utility.yul\":23439:23858   */\n      swap2\n      swap1\n      pop\n      jump\t// out\n        /* \"#utility.yul\":23864:24032   */\n    tag_316:\n        /* \"#utility.yul\":24004:24024   */\n      0x496e73756666696369656e742066756e64730000000000000000000000000000\n        /* \"#utility.yul\":24000:24001   */\n      0x00\n        /* \"#utility.yul\":23992:23998   */\n      dup3\n        /* \"#utility.yul\":23988:24002   */\n      add\n        /* \"#utility.yul\":23981:24025   */\n      mstore\n        /* \"#utility.yul\":23864:24032   */\n      pop\n      jump\t// out\n        /* \"#utility.yul\":24038:24404   */\n    tag_317:\n        /* \"#utility.yul\":24180:24183   */\n      0x00\n        /* \"#utility.yul\":24201:24268   */\n      tag_562\n        /* \"#utility.yul\":24265:24267   */\n      0x12\n        /* \"#utility.yul\":24260:24263   */\n      dup4\n        /* \"#utility.yul\":24201:24268   */\n      tag_271\n      jump\t// in\n    tag_562:\n        /* \"#utility.yul\":24194:24268   */\n      swap2\n      pop\n        /* \"#utility.yul\":24277:24370   */\n      tag_563\n        /* \"#utility.yul\":24366:24369   */\n      dup3\n        /* \"#utility.yul\":24277:24370   */\n      tag_316\n      jump\t// in\n    tag_563:\n        /* \"#utility.yul\":24395:24397   */\n      0x20\n        /* \"#utility.yul\":24390:24393   */\n      dup3\n        /* \"#utility.yul\":24386:24398   */\n      add\n        /* \"#utility.yul\":24379:24398   */\n      swap1\n      pop\n        /* \"#utility.yul\":24038:24404   */\n      swap2\n      swap1\n      pop\n      jump\t// out\n        /* \"#utility.yul\":24410:24829   */\n    tag_188:\n        /* \"#utility.yul\":24576:24580   */\n      0x00\n        /* \"#utility.yul\":24614:24616   */\n      0x20\n        /* \"#utility.yul\":24603:24612   */\n      dup3\n        /* \"#utility.yul\":24599:24617   */\n      add\n        /* \"#utility.yul\":24591:24617   */\n      swap1\n      pop\n        /* \"#utility.yul\":24663:24672   */\n      dup2\n        /* \"#utility.yul\":24657:24661   */\n      dup2\n        /* \"#utility.yul\":24653:24673   */\n      sub\n        /* \"#utility.yul\":24649:24650   */\n      0x00\n        /* \"#utility.yul\":24638:24647   */\n      dup4\n        /* \"#utility.yul\":24634:24651   */\n      add\n        /* \"#utility.yul\":24627:24674   */\n      mstore\n        /* \"#utility.yul\":24691:24822   */\n      tag_565\n        /* \"#utility.yul\":24817:24821   */\n      dup2\n        /* \"#utility.yul\":24691:24822   */\n      tag_317\n      jump\t// in\n    tag_565:\n        /* \"#utility.yul\":24683:24822   */\n      swap1\n      pop\n        /* \"#utility.yul\":24410:24829   */\n      swap2\n      swap1\n      pop\n      jump\t// out\n        /* \"#utility.yul\":24835:25057   */\n    tag_192:\n        /* \"#utility.yul\":24928:24932   */\n      0x00\n        /* \"#utility.yul\":24966:24968   */\n      0x20\n        /* \"#utility.yul\":24955:24964   */\n      dup3\n        /* \"#utility.yul\":24951:24969   */\n      add\n        /* \"#utility.yul\":24943:24969   */\n      swap1\n      pop\n        /* \"#utility.yul\":24979:25050   */\n      tag_567\n        /* \"#utility.yul\":25047:25048   */\n      0x00\n        /* \"#utility.yul\":25036:25045   */\n      dup4\n        /* \"#utility.yul\":25032:25049   */\n      add\n        /* \"#utility.yul\":25023:25029   */\n      dup5\n        /* \"#utility.yul\":24979:25050   */\n      tag_275\n      jump\t// in\n    tag_567:\n        /* \"#utility.yul\":24835:25057   */\n      swap3\n      swap2\n      pop\n      pop\n      jump\t// out\n\n    auxdata: 0xa26469706673582212209bac2becd7bbef8434a54b31936e0ff23aa75272145167f1c12389cab5c877c264736f6c634300081a0033\n}\n",
				"bytecode": {
					"linkReferences": {},
					"object": "608060405234801561000f575f80fd5b5073cd4c773a5ba577075a3758499f22e5fbd55fdc6a5f73ffffffffffffffffffffffffffffffffffffffff168173ffffffffffffffffffffffffffffffffffffffff1603610095575f6040517f1e4fbdf700000000000000000000000000000000000000000000000000000000815260040161008c91906101aa565b60405180910390fd5b6100a4816100aa60201b60201c565b506101c3565b5f805f9054906101000a900473ffffffffffffffffffffffffffffffffffffffff169050815f806101000a81548173ffffffffffffffffffffffffffffffffffffffff021916908373ffffffffffffffffffffffffffffffffffffffff1602179055508173ffffffffffffffffffffffffffffffffffffffff168173ffffffffffffffffffffffffffffffffffffffff167f8be0079c531659141344cd1fd0a4f28419497f9722a3daafe3b4186f6b6457e060405160405180910390a35050565b5f73ffffffffffffffffffffffffffffffffffffffff82169050919050565b5f6101948261016b565b9050919050565b6101a48161018a565b82525050565b5f6020820190506101bd5f83018461019b565b92915050565b6121e7806101d05f395ff3fe608060405260043610610101575f3560e01c8063715018a611610094578063b5f522f711610063578063b5f522f71461030a578063c1aa2fc414610348578063e3ffcc8c14610388578063edb32960146103b0578063f2fde38b146103d857610108565b8063715018a6146102645780637a8617641461027a5780638da5cb5b146102a257806390eeb918146102cc57610108565b80632e1a7d4d116100d05780632e1a7d4d146101c357806335a423b0146101eb5780633cb61bb31461022a578063518e61c41461025a57610108565b80630240579a1461010c57806305bbfe541461014b57806323586685146101735780632a785dd91461019b57610108565b3661010857005b5f80fd5b348015610117575f80fd5b50610132600480360381019061012d9190611555565b610400565b60405161014294939291906115ff565b60405180910390f35b348015610156575f80fd5b50610171600480360381019061016c9190611783565b6105cd565b005b34801561017e575f80fd5b5061019960048036038101906101949190611827565b6106b1565b005b3480156101a6575f80fd5b506101c160048036038101906101bc9190611865565b61075e565b005b3480156101ce575f80fd5b506101e960048036038101906101e49190611555565b610855565b005b3480156101f6575f80fd5b50610211600480360381019061020c9190611555565b6108ee565b604051610221949392919061191d565b60405180910390f35b348015610235575f80fd5b5061023e610a35565b60405161025197969594939291906119c7565b60405180910390f35b610262610b9b565b005b34801561026f575f80fd5b50610278610d11565b005b348015610285575f80fd5b506102a0600480360381019061029b9190611a42565b610d24565b005b3480156102ad575f80fd5b506102b6610dfc565b6040516102c39190611aea565b60405180910390f35b3480156102d7575f80fd5b506102f260048036038101906102ed9190611555565b610e23565b60405161030193929190611b03565b60405180910390f35b348015610315575f80fd5b50610330600480360381019061032b9190611555565b610f64565b60405161033f93929190611b46565b60405180910390f35b348015610353575f80fd5b5061036e60048036038101906103699190611555565b610f99565b60405161037f959493929190611b7b565b60405180910390f35b348015610393575f80fd5b506103ae60048036038101906103a99190611c0b565b61116c565b005b3480156103bb575f80fd5b506103d660048036038101906103d19190611ccc565b611279565b005b3480156103e3575f80fd5b506103fe60048036038101906103f99190611d6c565b61133e565b005b6003818154811061040f575f80fd5b905f5260205f2090600402015f91509050805f01805461042e90611dc4565b80601f016020809104026020016040519081016040528092919081815260200182805461045a90611dc4565b80156104a55780601f1061047c576101008083540402835291602001916104a5565b820191905f5260205f20905b81548152906001019060200180831161048857829003601f168201915b5050505050908060010180546104ba90611dc4565b80601f01602080910402602001604051908101604052809291908181526020018280546104e690611dc4565b80156105315780601f1061050857610100808354040283529160200191610531565b820191905f5260205f20905b81548152906001019060200180831161051457829003601f168201915b50505050509080600201805461054690611dc4565b80601f016020809104026020016040519081016040528092919081815260200182805461057290611dc4565b80156105bd5780601f10610594576101008083540402835291602001916105bd565b820191905f5260205f20905b8154815290600101906020018083116105a057829003601f168201915b5050505050908060030154905084565b6105d56113c2565b5f6040518060800160405280858152602001848152602001838152602001428152509050600381908060018154018082558091505060019003905f5260205f2090600402015f909190919091505f820151815f0190816106359190611f91565b50602082015181600101908161064b9190611f91565b5060408201518160020190816106619190611f91565b506060820151816003015550507f4e856a989d4072cc7e3f5a66b4b4e63ecde73eadc9d6d80e5d634f7202bec318848484426040516106a394939291906115ff565b60405180910390a150505050565b6106b96113c2565b5f6040518060600160405280848152602001838152602001428152509050600581908060018154018082558091505060019003905f5260205f2090600302015f909190919091505f820151815f0155602082015181600101556040820151816002015550507f63f8d95ad35c512226027f0fa3a6190eb75ecd6c07350dce6343ed46caf7de7f83834260405161075193929190611b46565b60405180910390a1505050565b6107666113c2565b5f6040518060a00160405280868152602001858152602001848152602001838152602001428152509050600281908060018154018082558091505060019003905f5260205f2090600502015f909190919091505f820151815f0190816107cc9190611f91565b5060208201518160010190816107e29190611f91565b5060408201518160020190816107f89190611f91565b50606082015181600301556080820151816004015550507f3da0000b91ae3aa1147054f643820745dbd78252e4f6669045c582d7fa18c7d48585858542604051610846959493929190611b7b565b60405180910390a15050505050565b61085d6113c2565b478111156108a0576040517f08c379a0000000000000000000000000000000000000000000000000000000008152600401610897906120aa565b60405180910390fd5b6108a8610dfc565b73ffffffffffffffffffffffffffffffffffffffff166108fc8290811502906040515f60405180830381858888f193505050501580156108ea573d5f803e3d5ffd5b5050565b600481815481106108fd575f80fd5b905f5260205f2090600402015f91509050805f01805461091c90611dc4565b80601f016020809104026020016040519081016040528092919081815260200182805461094890611dc4565b80156109935780601f1061096a57610100808354040283529160200191610993565b820191905f5260205f20905b81548152906001019060200180831161097657829003601f168201915b5050505050908060010180546109a890611dc4565b80601f01602080910402602001604051908101604052809291908181526020018280546109d490611dc4565b8015610a1f5780601f106109f657610100808354040283529160200191610a1f565b820191905f5260205f20905b815481529060010190602001808311610a0257829003601f168201915b5050505050908060020154908060030154905084565b6006805f015f9054906101000a900473ffffffffffffffffffffffffffffffffffffffff1690806001018054610a6a90611dc4565b80601f0160208091040260200160405190810160405280929190818152602001828054610a9690611dc4565b8015610ae15780601f10610ab857610100808354040283529160200191610ae1565b820191905f5260205f20905b815481529060010190602001808311610ac457829003601f168201915b505050505090806002018054610af690611dc4565b80601f0160208091040260200160405190810160405280929190818152602001828054610b2290611dc4565b8015610b6d5780601f10610b4457610100808354040283529160200191610b6d565b820191905f5260205f20905b815481529060010190602001808311610b5057829003601f168201915b505050505090806003015490806004015490806005015490806006015f9054906101000a900460ff16905087565b600680015f9054906101000a900460ff1615610bec576040517f08c379a0000000000000000000000000000000000000000000000000000000008152600401610be390612112565b60405180910390fd5b600660050154341015610c34576040517f08c379a0000000000000000000000000000000000000000000000000000000008152600401610c2b9061217a565b60405180910390fd5b5f60066005015490506001600680015f6101000a81548160ff02191690831515021790555060065f015f9054906101000a900473ffffffffffffffffffffffffffffffffffffffff1673ffffffffffffffffffffffffffffffffffffffff166108fc8290811502906040515f60405180830381858888f19350505050158015610cbf573d5f803e3d5ffd5b503373ffffffffffffffffffffffffffffffffffffffff167fbbd8e4496c407cea1babe34b0a17a1955f9971ea24328997fd91e03c232e0b5282604051610d069190612198565b60405180910390a250565b610d196113c2565b610d225f611449565b565b610d2c6113c2565b5f6040518060800160405280858152602001848152602001838152602001428152509050600481908060018154018082558091505060019003905f5260205f2090600402015f909190919091505f820151815f019081610d8c9190611f91565b506020820151816001019081610da29190611f91565b50604082015181600201556060820151816003015550507fe0f0eb181c5782d146af37bd93dd76081d90a3f76edf32a36a9a17a5a040a54284848442604051610dee949392919061191d565b60405180910390a150505050565b5f805f9054906101000a900473ffffffffffffffffffffffffffffffffffffffff16905090565b60018181548110610e32575f80fd5b905f5260205f2090600302015f91509050805f018054610e5190611dc4565b80601f0160208091040260200160405190810160405280929190818152602001828054610e7d90611dc4565b8015610ec85780601f10610e9f57610100808354040283529160200191610ec8565b820191905f5260205f20905b815481529060010190602001808311610eab57829003601f168201915b505050505090806001018054610edd90611dc4565b80601f0160208091040260200160405190810160405280929190818152602001828054610f0990611dc4565b8015610f545780601f10610f2b57610100808354040283529160200191610f54565b820191905f5260205f20905b815481529060010190602001808311610f3757829003601f168201915b5050505050908060020154905083565b60058181548110610f73575f80fd5b905f5260205f2090600302015f91509050805f0154908060010154908060020154905083565b60028181548110610fa8575f80fd5b905f5260205f2090600502015f91509050805f018054610fc790611dc4565b80601f0160208091040260200160405190810160405280929190818152602001828054610ff390611dc4565b801561103e5780601f106110155761010080835404028352916020019161103e565b820191905f5260205f20905b81548152906001019060200180831161102157829003601f168201915b50505050509080600101805461105390611dc4565b80601f016020809104026020016040519081016040528092919081815260200182805461107f90611dc4565b80156110ca5780601f106110a1576101008083540402835291602001916110ca565b820191905f5260205f20905b8154815290600101906020018083116110ad57829003601f168201915b5050505050908060020180546110df90611dc4565b80601f016020809104026020016040519081016040528092919081815260200182805461110b90611dc4565b80156111565780601f1061112d57610100808354040283529160200191611156565b820191905f5260205f20905b81548152906001019060200180831161113957829003601f168201915b5050505050908060030154908060040154905085565b6111746113c2565b6040518060e001604052808773ffffffffffffffffffffffffffffffffffffffff1681526020018681526020018581526020018481526020018381526020018281526020015f151581525060065f820151815f015f6101000a81548173ffffffffffffffffffffffffffffffffffffffff021916908373ffffffffffffffffffffffffffffffffffffffff160217905550602082015181600101908161121a9190611f91565b5060408201518160020190816112309190611f91565b50606082015181600301556080820151816004015560a0820151816005015560c0820151816006015f6101000a81548160ff021916908315150217905550905050505050505050565b6112816113c2565b5f6040518060600160405280848152602001838152602001428152509050600181908060018154018082558091505060019003905f5260205f2090600302015f909190919091505f820151815f0190816112db9190611f91565b5060208201518160010190816112f19190611f91565b506040820151816002015550507fd64ecbd123c2815041454fc79c472c2c3379347ad140198431d3e3dd8031dda883834260405161133193929190611b03565b60405180910390a1505050565b6113466113c2565b5f73ffffffffffffffffffffffffffffffffffffffff168173ffffffffffffffffffffffffffffffffffffffff16036113b6575f6040517f1e4fbdf70000000000000000000000000000000000000000000000000000000081526004016113ad9190611aea565b60405180910390fd5b6113bf81611449565b50565b6113ca61150a565b73ffffffffffffffffffffffffffffffffffffffff166113e8610dfc565b73ffffffffffffffffffffffffffffffffffffffff16146114475761140b61150a565b6040517f118cdaa700000000000000000000000000000000000000000000000000000000815260040161143e9190611aea565b60405180910390fd5b565b5f805f9054906101000a900473ffffffffffffffffffffffffffffffffffffffff169050815f806101000a81548173ffffffffffffffffffffffffffffffffffffffff021916908373ffffffffffffffffffffffffffffffffffffffff1602179055508173ffffffffffffffffffffffffffffffffffffffff168173ffffffffffffffffffffffffffffffffffffffff167f8be0079c531659141344cd1fd0a4f28419497f9722a3daafe3b4186f6b6457e060405160405180910390a35050565b5f33905090565b5f604051905090565b5f80fd5b5f80fd5b5f819050919050565b61153481611522565b811461153e575f80fd5b50565b5f8135905061154f8161152b565b92915050565b5f6020828403121561156a5761156961151a565b5b5f61157784828501611541565b91505092915050565b5f81519050919050565b5f82825260208201905092915050565b8281835e5f83830152505050565b5f601f19601f8301169050919050565b5f6115c282611580565b6115cc818561158a565b93506115dc81856020860161159a565b6115e5816115a8565b840191505092915050565b6115f981611522565b82525050565b5f6080820190508181035f83015261161781876115b8565b9050818103602083015261162b81866115b8565b9050818103604083015261163f81856115b8565b905061164e60608301846115f0565b95945050505050565b5f80fd5b5f80fd5b7f4e487b71000000000000000000000000000000000000000000000000000000005f52604160045260245ffd5b611695826115a8565b810181811067ffffffffffffffff821117156116b4576116b361165f565b5b80604052505050565b5f6116c6611511565b90506116d2828261168c565b919050565b5f67ffffffffffffffff8211156116f1576116f061165f565b5b6116fa826115a8565b9050602081019050919050565b828183375f83830152505050565b5f611727611722846116d7565b6116bd565b9050828152602081018484840111156117435761174261165b565b5b61174e848285611707565b509392505050565b5f82601f83011261176a57611769611657565b5b813561177a848260208601611715565b91505092915050565b5f805f6060848603121561179a5761179961151a565b5b5f84013567ffffffffffffffff8111156117b7576117b661151e565b5b6117c386828701611756565b935050602084013567ffffffffffffffff8111156117e4576117e361151e565b5b6117f086828701611756565b925050604084013567ffffffffffffffff8111156118115761181061151e565b5b61181d86828701611756565b9150509250925092565b5f806040838503121561183d5761183c61151a565b5b5f61184a85828601611541565b925050602061185b85828601611541565b9150509250929050565b5f805f806080858703121561187d5761187c61151a565b5b5f85013567ffffffffffffffff81111561189a5761189961151e565b5b6118a687828801611756565b945050602085013567ffffffffffffffff8111156118c7576118c661151e565b5b6118d387828801611756565b935050604085013567ffffffffffffffff8111156118f4576118f361151e565b5b61190087828801611756565b925050606061191187828801611541565b91505092959194509250565b5f6080820190508181035f83015261193581876115b8565b9050818103602083015261194981866115b8565b905061195860408301856115f0565b61196560608301846115f0565b95945050505050565b5f73ffffffffffffffffffffffffffffffffffffffff82169050919050565b5f6119978261196e565b9050919050565b6119a78161198d565b82525050565b5f8115159050919050565b6119c1816119ad565b82525050565b5f60e0820190506119da5f83018a61199e565b81810360208301526119ec81896115b8565b90508181036040830152611a0081886115b8565b9050611a0f60608301876115f0565b611a1c60808301866115f0565b611a2960a08301856115f0565b611a3660c08301846119b8565b98975050505050505050565b5f805f60608486031215611a5957611a5861151a565b5b5f84013567ffffffffffffffff811115611a7657611a7561151e565b5b611a8286828701611756565b935050602084013567ffffffffffffffff811115611aa357611aa261151e565b5b611aaf86828701611756565b9250506040611ac086828701611541565b9150509250925092565b5f611ad48261196e565b9050919050565b611ae481611aca565b82525050565b5f602082019050611afd5f830184611adb565b92915050565b5f6060820190508181035f830152611b1b81866115b8565b90508181036020830152611b2f81856115b8565b9050611b3e60408301846115f0565b949350505050565b5f606082019050611b595f8301866115f0565b611b6660208301856115f0565b611b7360408301846115f0565b949350505050565b5f60a0820190508181035f830152611b9381886115b8565b90508181036020830152611ba781876115b8565b90508181036040830152611bbb81866115b8565b9050611bca60608301856115f0565b611bd760808301846115f0565b9695505050505050565b611bea8161198d565b8114611bf4575f80fd5b50565b5f81359050611c0581611be1565b92915050565b5f805f805f8060c08789031215611c2557611c2461151a565b5b5f611c3289828a01611bf7565b965050602087013567ffffffffffffffff811115611c5357611c5261151e565b5b611c5f89828a01611756565b955050604087013567ffffffffffffffff811115611c8057611c7f61151e565b5b611c8c89828a01611756565b9450506060611c9d89828a01611541565b9350506080611cae89828a01611541565b92505060a0611cbf89828a01611541565b9150509295509295509295565b5f8060408385031215611ce257611ce161151a565b5b5f83013567ffffffffffffffff811115611cff57611cfe61151e565b5b611d0b85828601611756565b925050602083013567ffffffffffffffff811115611d2c57611d2b61151e565b5b611d3885828601611756565b9150509250929050565b611d4b81611aca565b8114611d55575f80fd5b50565b5f81359050611d6681611d42565b92915050565b5f60208284031215611d8157611d8061151a565b5b5f611d8e84828501611d58565b91505092915050565b7f4e487b71000000000000000000000000000000000000000000000000000000005f52602260045260245ffd5b5f6002820490506001821680611ddb57607f821691505b602082108103611dee57611ded611d97565b5b50919050565b5f819050815f5260205f209050919050565b5f6020601f8301049050919050565b5f82821b905092915050565b5f60088302611e507fffffffffffffffffffffffffffffffffffffffffffffffffffffffffffffffff82611e15565b611e5a8683611e15565b95508019841693508086168417925050509392505050565b5f819050919050565b5f611e95611e90611e8b84611522565b611e72565b611522565b9050919050565b5f819050919050565b611eae83611e7b565b611ec2611eba82611e9c565b848454611e21565b825550505050565b5f90565b611ed6611eca565b611ee1818484611ea5565b505050565b5b81811015611f0457611ef95f82611ece565b600181019050611ee7565b5050565b601f821115611f4957611f1a81611df4565b611f2384611e06565b81016020851015611f32578190505b611f46611f3e85611e06565b830182611ee6565b50505b505050565b5f82821c905092915050565b5f611f695f1984600802611f4e565b1980831691505092915050565b5f611f818383611f5a565b9150826002028217905092915050565b611f9a82611580565b67ffffffffffffffff811115611fb357611fb261165f565b5b611fbd8254611dc4565b611fc8828285611f08565b5f60209050601f831160018114611ff9575f8415611fe7578287015190505b611ff18582611f76565b865550612058565b601f19841661200786611df4565b5f5b8281101561202e57848901518255600182019150602085019450602081019050612009565b8683101561204b5784890151612047601f891682611f5a565b8355505b6001600288020188555050505b505050505050565b7f496e73756666696369656e7420636f6e74726163742062616c616e63650000005f82015250565b5f612094601d8361158a565b915061209f82612060565b602082019050919050565b5f6020820190508181035f8301526120c181612088565b9050919050565b7f5061636b657420697320616c726561647920736f6c64000000000000000000005f82015250565b5f6120fc60168361158a565b9150612107826120c8565b602082019050919050565b5f6020820190508181035f830152612129816120f0565b9050919050565b7f496e73756666696369656e742066756e647300000000000000000000000000005f82015250565b5f61216460128361158a565b915061216f82612130565b602082019050919050565b5f6020820190508181035f83015261219181612158565b9050919050565b5f6020820190506121ab5f8301846115f0565b9291505056fea26469706673582212209bac2becd7bbef8434a54b31936e0ff23aa75272145167f1c12389cab5c877c264736f6c634300081a0033",
					"opcodes": "PUSH1 0x80 PUSH1 0x40 MSTORE CALLVALUE DUP1 ISZERO PUSH2 0xF JUMPI PUSH0 DUP1 REVERT JUMPDEST POP PUSH20 0xCD4C773A5BA577075A3758499F22E5FBD55FDC6A PUSH0 PUSH20 0xFFFFFFFFFFFFFFFFFFFFFFFFFFFFFFFFFFFFFFFF AND DUP2 PUSH20 0xFFFFFFFFFFFFFFFFFFFFFFFFFFFFFFFFFFFFFFFF AND SUB PUSH2 0x95 JUMPI PUSH0 PUSH1 0x40 MLOAD PUSH32 0x1E4FBDF700000000000000000000000000000000000000000000000000000000 DUP2 MSTORE PUSH1 0x4 ADD PUSH2 0x8C SWAP2 SWAP1 PUSH2 0x1AA JUMP JUMPDEST PUSH1 0x40 MLOAD DUP1 SWAP2 SUB SWAP1 REVERT JUMPDEST PUSH2 0xA4 DUP2 PUSH2 0xAA PUSH1 0x20 SHL PUSH1 0x20 SHR JUMP JUMPDEST POP PUSH2 0x1C3 JUMP JUMPDEST PUSH0 DUP1 PUSH0 SWAP1 SLOAD SWAP1 PUSH2 0x100 EXP SWAP1 DIV PUSH20 0xFFFFFFFFFFFFFFFFFFFFFFFFFFFFFFFFFFFFFFFF AND SWAP1 POP DUP2 PUSH0 DUP1 PUSH2 0x100 EXP DUP2 SLOAD DUP2 PUSH20 0xFFFFFFFFFFFFFFFFFFFFFFFFFFFFFFFFFFFFFFFF MUL NOT AND SWAP1 DUP4 PUSH20 0xFFFFFFFFFFFFFFFFFFFFFFFFFFFFFFFFFFFFFFFF AND MUL OR SWAP1 SSTORE POP DUP2 PUSH20 0xFFFFFFFFFFFFFFFFFFFFFFFFFFFFFFFFFFFFFFFF AND DUP2 PUSH20 0xFFFFFFFFFFFFFFFFFFFFFFFFFFFFFFFFFFFFFFFF AND PUSH32 0x8BE0079C531659141344CD1FD0A4F28419497F9722A3DAAFE3B4186F6B6457E0 PUSH1 0x40 MLOAD PUSH1 0x40 MLOAD DUP1 SWAP2 SUB SWAP1 LOG3 POP POP JUMP JUMPDEST PUSH0 PUSH20 0xFFFFFFFFFFFFFFFFFFFFFFFFFFFFFFFFFFFFFFFF DUP3 AND SWAP1 POP SWAP2 SWAP1 POP JUMP JUMPDEST PUSH0 PUSH2 0x194 DUP3 PUSH2 0x16B JUMP JUMPDEST SWAP1 POP SWAP2 SWAP1 POP JUMP JUMPDEST PUSH2 0x1A4 DUP2 PUSH2 0x18A JUMP JUMPDEST DUP3 MSTORE POP POP JUMP JUMPDEST PUSH0 PUSH1 0x20 DUP3 ADD SWAP1 POP PUSH2 0x1BD PUSH0 DUP4 ADD DUP5 PUSH2 0x19B JUMP JUMPDEST SWAP3 SWAP2 POP POP JUMP JUMPDEST PUSH2 0x21E7 DUP1 PUSH2 0x1D0 PUSH0 CODECOPY PUSH0 RETURN INVALID PUSH1 0x80 PUSH1 0x40 MSTORE PUSH1 0x4 CALLDATASIZE LT PUSH2 0x101 JUMPI PUSH0 CALLDATALOAD PUSH1 0xE0 SHR DUP1 PUSH4 0x715018A6 GT PUSH2 0x94 JUMPI DUP1 PUSH4 0xB5F522F7 GT PUSH2 0x63 JUMPI DUP1 PUSH4 0xB5F522F7 EQ PUSH2 0x30A JUMPI DUP1 PUSH4 0xC1AA2FC4 EQ PUSH2 0x348 JUMPI DUP1 PUSH4 0xE3FFCC8C EQ PUSH2 0x388 JUMPI DUP1 PUSH4 0xEDB32960 EQ PUSH2 0x3B0 JUMPI DUP1 PUSH4 0xF2FDE38B EQ PUSH2 0x3D8 JUMPI PUSH2 0x108 JUMP JUMPDEST DUP1 PUSH4 0x715018A6 EQ PUSH2 0x264 JUMPI DUP1 PUSH4 0x7A861764 EQ PUSH2 0x27A JUMPI DUP1 PUSH4 0x8DA5CB5B EQ PUSH2 0x2A2 JUMPI DUP1 PUSH4 0x90EEB918 EQ PUSH2 0x2CC JUMPI PUSH2 0x108 JUMP JUMPDEST DUP1 PUSH4 0x2E1A7D4D GT PUSH2 0xD0 JUMPI DUP1 PUSH4 0x2E1A7D4D EQ PUSH2 0x1C3 JUMPI DUP1 PUSH4 0x35A423B0 EQ PUSH2 0x1EB JUMPI DUP1 PUSH4 0x3CB61BB3 EQ PUSH2 0x22A JUMPI DUP1 PUSH4 0x518E61C4 EQ PUSH2 0x25A JUMPI PUSH2 0x108 JUMP JUMPDEST DUP1 PUSH4 0x240579A EQ PUSH2 0x10C JUMPI DUP1 PUSH4 0x5BBFE54 EQ PUSH2 0x14B JUMPI DUP1 PUSH4 0x23586685 EQ PUSH2 0x173 JUMPI DUP1 PUSH4 0x2A785DD9 EQ PUSH2 0x19B JUMPI PUSH2 0x108 JUMP JUMPDEST CALLDATASIZE PUSH2 0x108 JUMPI STOP JUMPDEST PUSH0 DUP1 REVERT JUMPDEST CALLVALUE DUP1 ISZERO PUSH2 0x117 JUMPI PUSH0 DUP1 REVERT JUMPDEST POP PUSH2 0x132 PUSH1 0x4 DUP1 CALLDATASIZE SUB DUP2 ADD SWAP1 PUSH2 0x12D SWAP2 SWAP1 PUSH2 0x1555 JUMP JUMPDEST PUSH2 0x400 JUMP JUMPDEST PUSH1 0x40 MLOAD PUSH2 0x142 SWAP5 SWAP4 SWAP3 SWAP2 SWAP1 PUSH2 0x15FF JUMP JUMPDEST PUSH1 0x40 MLOAD DUP1 SWAP2 SUB SWAP1 RETURN JUMPDEST CALLVALUE DUP1 ISZERO PUSH2 0x156 JUMPI PUSH0 DUP1 REVERT JUMPDEST POP PUSH2 0x171 PUSH1 0x4 DUP1 CALLDATASIZE SUB DUP2 ADD SWAP1 PUSH2 0x16C SWAP2 SWAP1 PUSH2 0x1783 JUMP JUMPDEST PUSH2 0x5CD JUMP JUMPDEST STOP JUMPDEST CALLVALUE DUP1 ISZERO PUSH2 0x17E JUMPI PUSH0 DUP1 REVERT JUMPDEST POP PUSH2 0x199 PUSH1 0x4 DUP1 CALLDATASIZE SUB DUP2 ADD SWAP1 PUSH2 0x194 SWAP2 SWAP1 PUSH2 0x1827 JUMP JUMPDEST PUSH2 0x6B1 JUMP JUMPDEST STOP JUMPDEST CALLVALUE DUP1 ISZERO PUSH2 0x1A6 JUMPI PUSH0 DUP1 REVERT JUMPDEST POP PUSH2 0x1C1 PUSH1 0x4 DUP1 CALLDATASIZE SUB DUP2 ADD SWAP1 PUSH2 0x1BC SWAP2 SWAP1 PUSH2 0x1865 JUMP JUMPDEST PUSH2 0x75E JUMP JUMPDEST STOP JUMPDEST CALLVALUE DUP1 ISZERO PUSH2 0x1CE JUMPI PUSH0 DUP1 REVERT JUMPDEST POP PUSH2 0x1E9 PUSH1 0x4 DUP1 CALLDATASIZE SUB DUP2 ADD SWAP1 PUSH2 0x1E4 SWAP2 SWAP1 PUSH2 0x1555 JUMP JUMPDEST PUSH2 0x855 JUMP JUMPDEST STOP JUMPDEST CALLVALUE DUP1 ISZERO PUSH2 0x1F6 JUMPI PUSH0 DUP1 REVERT JUMPDEST POP PUSH2 0x211 PUSH1 0x4 DUP1 CALLDATASIZE SUB DUP2 ADD SWAP1 PUSH2 0x20C SWAP2 SWAP1 PUSH2 0x1555 JUMP JUMPDEST PUSH2 0x8EE JUMP JUMPDEST PUSH1 0x40 MLOAD PUSH2 0x221 SWAP5 SWAP4 SWAP3 SWAP2 SWAP1 PUSH2 0x191D JUMP JUMPDEST PUSH1 0x40 MLOAD DUP1 SWAP2 SUB SWAP1 RETURN JUMPDEST CALLVALUE DUP1 ISZERO PUSH2 0x235 JUMPI PUSH0 DUP1 REVERT JUMPDEST POP PUSH2 0x23E PUSH2 0xA35 JUMP JUMPDEST PUSH1 0x40 MLOAD PUSH2 0x251 SWAP8 SWAP7 SWAP6 SWAP5 SWAP4 SWAP3 SWAP2 SWAP1 PUSH2 0x19C7 JUMP JUMPDEST PUSH1 0x40 MLOAD DUP1 SWAP2 SUB SWAP1 RETURN JUMPDEST PUSH2 0x262 PUSH2 0xB9B JUMP JUMPDEST STOP JUMPDEST CALLVALUE DUP1 ISZERO PUSH2 0x26F JUMPI PUSH0 DUP1 REVERT JUMPDEST POP PUSH2 0x278 PUSH2 0xD11 JUMP JUMPDEST STOP JUMPDEST CALLVALUE DUP1 ISZERO PUSH2 0x285 JUMPI PUSH0 DUP1 REVERT JUMPDEST POP PUSH2 0x2A0 PUSH1 0x4 DUP1 CALLDATASIZE SUB DUP2 ADD SWAP1 PUSH2 0x29B SWAP2 SWAP1 PUSH2 0x1A42 JUMP JUMPDEST PUSH2 0xD24 JUMP JUMPDEST STOP JUMPDEST CALLVALUE DUP1 ISZERO PUSH2 0x2AD JUMPI PUSH0 DUP1 REVERT JUMPDEST POP PUSH2 0x2B6 PUSH2 0xDFC JUMP JUMPDEST PUSH1 0x40 MLOAD PUSH2 0x2C3 SWAP2 SWAP1 PUSH2 0x1AEA JUMP JUMPDEST PUSH1 0x40 MLOAD DUP1 SWAP2 SUB SWAP1 RETURN JUMPDEST CALLVALUE DUP1 ISZERO PUSH2 0x2D7 JUMPI PUSH0 DUP1 REVERT JUMPDEST POP PUSH2 0x2F2 PUSH1 0x4 DUP1 CALLDATASIZE SUB DUP2 ADD SWAP1 PUSH2 0x2ED SWAP2 SWAP1 PUSH2 0x1555 JUMP JUMPDEST PUSH2 0xE23 JUMP JUMPDEST PUSH1 0x40 MLOAD PUSH2 0x301 SWAP4 SWAP3 SWAP2 SWAP1 PUSH2 0x1B03 JUMP JUMPDEST PUSH1 0x40 MLOAD DUP1 SWAP2 SUB SWAP1 RETURN JUMPDEST CALLVALUE DUP1 ISZERO PUSH2 0x315 JUMPI PUSH0 DUP1 REVERT JUMPDEST POP PUSH2 0x330 PUSH1 0x4 DUP1 CALLDATASIZE SUB DUP2 ADD SWAP1 PUSH2 0x32B SWAP2 SWAP1 PUSH2 0x1555 JUMP JUMPDEST PUSH2 0xF64 JUMP JUMPDEST PUSH1 0x40 MLOAD PUSH2 0x33F SWAP4 SWAP3 SWAP2 SWAP1 PUSH2 0x1B46 JUMP JUMPDEST PUSH1 0x40 MLOAD DUP1 SWAP2 SUB SWAP1 RETURN JUMPDEST CALLVALUE DUP1 ISZERO PUSH2 0x353 JUMPI PUSH0 DUP1 REVERT JUMPDEST POP PUSH2 0x36E PUSH1 0x4 DUP1 CALLDATASIZE SUB DUP2 ADD SWAP1 PUSH2 0x369 SWAP2 SWAP1 PUSH2 0x1555 JUMP JUMPDEST PUSH2 0xF99 JUMP JUMPDEST PUSH1 0x40 MLOAD PUSH2 0x37F SWAP6 SWAP5 SWAP4 SWAP3 SWAP2 SWAP1 PUSH2 0x1B7B JUMP JUMPDEST PUSH1 0x40 MLOAD DUP1 SWAP2 SUB SWAP1 RETURN JUMPDEST CALLVALUE DUP1 ISZERO PUSH2 0x393 JUMPI PUSH0 DUP1 REVERT JUMPDEST POP PUSH2 0x3AE PUSH1 0x4 DUP1 CALLDATASIZE SUB DUP2 ADD SWAP1 PUSH2 0x3A9 SWAP2 SWAP1 PUSH2 0x1C0B JUMP JUMPDEST PUSH2 0x116C JUMP JUMPDEST STOP JUMPDEST CALLVALUE DUP1 ISZERO PUSH2 0x3BB JUMPI PUSH0 DUP1 REVERT JUMPDEST POP PUSH2 0x3D6 PUSH1 0x4 DUP1 CALLDATASIZE SUB DUP2 ADD SWAP1 PUSH2 0x3D1 SWAP2 SWAP1 PUSH2 0x1CCC JUMP JUMPDEST PUSH2 0x1279 JUMP JUMPDEST STOP JUMPDEST CALLVALUE DUP1 ISZERO PUSH2 0x3E3 JUMPI PUSH0 DUP1 REVERT JUMPDEST POP PUSH2 0x3FE PUSH1 0x4 DUP1 CALLDATASIZE SUB DUP2 ADD SWAP1 PUSH2 0x3F9 SWAP2 SWAP1 PUSH2 0x1D6C JUMP JUMPDEST PUSH2 0x133E JUMP JUMPDEST STOP JUMPDEST PUSH1 0x3 DUP2 DUP2 SLOAD DUP2 LT PUSH2 0x40F JUMPI PUSH0 DUP1 REVERT JUMPDEST SWAP1 PUSH0 MSTORE PUSH1 0x20 PUSH0 KECCAK256 SWAP1 PUSH1 0x4 MUL ADD PUSH0 SWAP2 POP SWAP1 POP DUP1 PUSH0 ADD DUP1 SLOAD PUSH2 0x42E SWAP1 PUSH2 0x1DC4 JUMP JUMPDEST DUP1 PUSH1 0x1F ADD PUSH1 0x20 DUP1 SWAP2 DIV MUL PUSH1 0x20 ADD PUSH1 0x40 MLOAD SWAP1 DUP2 ADD PUSH1 0x40 MSTORE DUP1 SWAP3 SWAP2 SWAP1 DUP2 DUP2 MSTORE PUSH1 0x20 ADD DUP3 DUP1 SLOAD PUSH2 0x45A SWAP1 PUSH2 0x1DC4 JUMP JUMPDEST DUP1 ISZERO PUSH2 0x4A5 JUMPI DUP1 PUSH1 0x1F LT PUSH2 0x47C JUMPI PUSH2 0x100 DUP1 DUP4 SLOAD DIV MUL DUP4 MSTORE SWAP2 PUSH1 0x20 ADD SWAP2 PUSH2 0x4A5 JUMP JUMPDEST DUP3 ADD SWAP2 SWAP1 PUSH0 MSTORE PUSH1 0x20 PUSH0 KECCAK256 SWAP1 JUMPDEST DUP2 SLOAD DUP2 MSTORE SWAP1 PUSH1 0x1 ADD SWAP1 PUSH1 0x20 ADD DUP1 DUP4 GT PUSH2 0x488 JUMPI DUP3 SWAP1 SUB PUSH1 0x1F AND DUP3 ADD SWAP2 JUMPDEST POP POP POP POP POP SWAP1 DUP1 PUSH1 0x1 ADD DUP1 SLOAD PUSH2 0x4BA SWAP1 PUSH2 0x1DC4 JUMP JUMPDEST DUP1 PUSH1 0x1F ADD PUSH1 0x20 DUP1 SWAP2 DIV MUL PUSH1 0x20 ADD PUSH1 0x40 MLOAD SWAP1 DUP2 ADD PUSH1 0x40 MSTORE DUP1 SWAP3 SWAP2 SWAP1 DUP2 DUP2 MSTORE PUSH1 0x20 ADD DUP3 DUP1 SLOAD PUSH2 0x4E6 SWAP1 PUSH2 0x1DC4 JUMP JUMPDEST DUP1 ISZERO PUSH2 0x531 JUMPI DUP1 PUSH1 0x1F LT PUSH2 0x508 JUMPI PUSH2 0x100 DUP1 DUP4 SLOAD DIV MUL DUP4 MSTORE SWAP2 PUSH1 0x20 ADD SWAP2 PUSH2 0x531 JUMP JUMPDEST DUP3 ADD SWAP2 SWAP1 PUSH0 MSTORE PUSH1 0x20 PUSH0 KECCAK256 SWAP1 JUMPDEST DUP2 SLOAD DUP2 MSTORE SWAP1 PUSH1 0x1 ADD SWAP1 PUSH1 0x20 ADD DUP1 DUP4 GT PUSH2 0x514 JUMPI DUP3 SWAP1 SUB PUSH1 0x1F AND DUP3 ADD SWAP2 JUMPDEST POP POP POP POP POP SWAP1 DUP1 PUSH1 0x2 ADD DUP1 SLOAD PUSH2 0x546 SWAP1 PUSH2 0x1DC4 JUMP JUMPDEST DUP1 PUSH1 0x1F ADD PUSH1 0x20 DUP1 SWAP2 DIV MUL PUSH1 0x20 ADD PUSH1 0x40 MLOAD SWAP1 DUP2 ADD PUSH1 0x40 MSTORE DUP1 SWAP3 SWAP2 SWAP1 DUP2 DUP2 MSTORE PUSH1 0x20 ADD DUP3 DUP1 SLOAD PUSH2 0x572 SWAP1 PUSH2 0x1DC4 JUMP JUMPDEST DUP1 ISZERO PUSH2 0x5BD JUMPI DUP1 PUSH1 0x1F LT PUSH2 0x594 JUMPI PUSH2 0x100 DUP1 DUP4 SLOAD DIV MUL DUP4 MSTORE SWAP2 PUSH1 0x20 ADD SWAP2 PUSH2 0x5BD JUMP JUMPDEST DUP3 ADD SWAP2 SWAP1 PUSH0 MSTORE PUSH1 0x20 PUSH0 KECCAK256 SWAP1 JUMPDEST DUP2 SLOAD DUP2 MSTORE SWAP1 PUSH1 0x1 ADD SWAP1 PUSH1 0x20 ADD DUP1 DUP4 GT PUSH2 0x5A0 JUMPI DUP3 SWAP1 SUB PUSH1 0x1F AND DUP3 ADD SWAP2 JUMPDEST POP POP POP POP POP SWAP1 DUP1 PUSH1 0x3 ADD SLOAD SWAP1 POP DUP5 JUMP JUMPDEST PUSH2 0x5D5 PUSH2 0x13C2 JUMP JUMPDEST PUSH0 PUSH1 0x40 MLOAD DUP1 PUSH1 0x80 ADD PUSH1 0x40 MSTORE DUP1 DUP6 DUP2 MSTORE PUSH1 0x20 ADD DUP5 DUP2 MSTORE PUSH1 0x20 ADD DUP4 DUP2 MSTORE PUSH1 0x20 ADD TIMESTAMP DUP2 MSTORE POP SWAP1 POP PUSH1 0x3 DUP2 SWAP1 DUP1 PUSH1 0x1 DUP2 SLOAD ADD DUP1 DUP3 SSTORE DUP1 SWAP2 POP POP PUSH1 0x1 SWAP1 SUB SWAP1 PUSH0 MSTORE PUSH1 0x20 PUSH0 KECCAK256 SWAP1 PUSH1 0x4 MUL ADD PUSH0 SWAP1 SWAP2 SWAP1 SWAP2 SWAP1 SWAP2 POP PUSH0 DUP3 ADD MLOAD DUP2 PUSH0 ADD SWAP1 DUP2 PUSH2 0x635 SWAP2 SWAP1 PUSH2 0x1F91 JUMP JUMPDEST POP PUSH1 0x20 DUP3 ADD MLOAD DUP2 PUSH1 0x1 ADD SWAP1 DUP2 PUSH2 0x64B SWAP2 SWAP1 PUSH2 0x1F91 JUMP JUMPDEST POP PUSH1 0x40 DUP3 ADD MLOAD DUP2 PUSH1 0x2 ADD SWAP1 DUP2 PUSH2 0x661 SWAP2 SWAP1 PUSH2 0x1F91 JUMP JUMPDEST POP PUSH1 0x60 DUP3 ADD MLOAD DUP2 PUSH1 0x3 ADD SSTORE POP POP PUSH32 0x4E856A989D4072CC7E3F5A66B4B4E63ECDE73EADC9D6D80E5D634F7202BEC318 DUP5 DUP5 DUP5 TIMESTAMP PUSH1 0x40 MLOAD PUSH2 0x6A3 SWAP5 SWAP4 SWAP3 SWAP2 SWAP1 PUSH2 0x15FF JUMP JUMPDEST PUSH1 0x40 MLOAD DUP1 SWAP2 SUB SWAP1 LOG1 POP POP POP POP JUMP JUMPDEST PUSH2 0x6B9 PUSH2 0x13C2 JUMP JUMPDEST PUSH0 PUSH1 0x40 MLOAD DUP1 PUSH1 0x60 ADD PUSH1 0x40 MSTORE DUP1 DUP5 DUP2 MSTORE PUSH1 0x20 ADD DUP4 DUP2 MSTORE PUSH1 0x20 ADD TIMESTAMP DUP2 MSTORE POP SWAP1 POP PUSH1 0x5 DUP2 SWAP1 DUP1 PUSH1 0x1 DUP2 SLOAD ADD DUP1 DUP3 SSTORE DUP1 SWAP2 POP POP PUSH1 0x1 SWAP1 SUB SWAP1 PUSH0 MSTORE PUSH1 0x20 PUSH0 KECCAK256 SWAP1 PUSH1 0x3 MUL ADD PUSH0 SWAP1 SWAP2 SWAP1 SWAP2 SWAP1 SWAP2 POP PUSH0 DUP3 ADD MLOAD DUP2 PUSH0 ADD SSTORE PUSH1 0x20 DUP3 ADD MLOAD DUP2 PUSH1 0x1 ADD SSTORE PUSH1 0x40 DUP3 ADD MLOAD DUP2 PUSH1 0x2 ADD SSTORE POP POP PUSH32 0x63F8D95AD35C512226027F0FA3A6190EB75ECD6C07350DCE6343ED46CAF7DE7F DUP4 DUP4 TIMESTAMP PUSH1 0x40 MLOAD PUSH2 0x751 SWAP4 SWAP3 SWAP2 SWAP1 PUSH2 0x1B46 JUMP JUMPDEST PUSH1 0x40 MLOAD DUP1 SWAP2 SUB SWAP1 LOG1 POP POP POP JUMP JUMPDEST PUSH2 0x766 PUSH2 0x13C2 JUMP JUMPDEST PUSH0 PUSH1 0x40 MLOAD DUP1 PUSH1 0xA0 ADD PUSH1 0x40 MSTORE DUP1 DUP7 DUP2 MSTORE PUSH1 0x20 ADD DUP6 DUP2 MSTORE PUSH1 0x20 ADD DUP5 DUP2 MSTORE PUSH1 0x20 ADD DUP4 DUP2 MSTORE PUSH1 0x20 ADD TIMESTAMP DUP2 MSTORE POP SWAP1 POP PUSH1 0x2 DUP2 SWAP1 DUP1 PUSH1 0x1 DUP2 SLOAD ADD DUP1 DUP3 SSTORE DUP1 SWAP2 POP POP PUSH1 0x1 SWAP1 SUB SWAP1 PUSH0 MSTORE PUSH1 0x20 PUSH0 KECCAK256 SWAP1 PUSH1 0x5 MUL ADD PUSH0 SWAP1 SWAP2 SWAP1 SWAP2 SWAP1 SWAP2 POP PUSH0 DUP3 ADD MLOAD DUP2 PUSH0 ADD SWAP1 DUP2 PUSH2 0x7CC SWAP2 SWAP1 PUSH2 0x1F91 JUMP JUMPDEST POP PUSH1 0x20 DUP3 ADD MLOAD DUP2 PUSH1 0x1 ADD SWAP1 DUP2 PUSH2 0x7E2 SWAP2 SWAP1 PUSH2 0x1F91 JUMP JUMPDEST POP PUSH1 0x40 DUP3 ADD MLOAD DUP2 PUSH1 0x2 ADD SWAP1 DUP2 PUSH2 0x7F8 SWAP2 SWAP1 PUSH2 0x1F91 JUMP JUMPDEST POP PUSH1 0x60 DUP3 ADD MLOAD DUP2 PUSH1 0x3 ADD SSTORE PUSH1 0x80 DUP3 ADD MLOAD DUP2 PUSH1 0x4 ADD SSTORE POP POP PUSH32 0x3DA0000B91AE3AA1147054F643820745DBD78252E4F6669045C582D7FA18C7D4 DUP6 DUP6 DUP6 DUP6 TIMESTAMP PUSH1 0x40 MLOAD PUSH2 0x846 SWAP6 SWAP5 SWAP4 SWAP3 SWAP2 SWAP1 PUSH2 0x1B7B JUMP JUMPDEST PUSH1 0x40 MLOAD DUP1 SWAP2 SUB SWAP1 LOG1 POP POP POP POP POP JUMP JUMPDEST PUSH2 0x85D PUSH2 0x13C2 JUMP JUMPDEST SELFBALANCE DUP2 GT ISZERO PUSH2 0x8A0 JUMPI PUSH1 0x40 MLOAD PUSH32 0x8C379A000000000000000000000000000000000000000000000000000000000 DUP2 MSTORE PUSH1 0x4 ADD PUSH2 0x897 SWAP1 PUSH2 0x20AA JUMP JUMPDEST PUSH1 0x40 MLOAD DUP1 SWAP2 SUB SWAP1 REVERT JUMPDEST PUSH2 0x8A8 PUSH2 0xDFC JUMP JUMPDEST PUSH20 0xFFFFFFFFFFFFFFFFFFFFFFFFFFFFFFFFFFFFFFFF AND PUSH2 0x8FC DUP3 SWAP1 DUP2 ISZERO MUL SWAP1 PUSH1 0x40 MLOAD PUSH0 PUSH1 0x40 MLOAD DUP1 DUP4 SUB DUP2 DUP6 DUP9 DUP9 CALL SWAP4 POP POP POP POP ISZERO DUP1 ISZERO PUSH2 0x8EA JUMPI RETURNDATASIZE PUSH0 DUP1 RETURNDATACOPY RETURNDATASIZE PUSH0 REVERT JUMPDEST POP POP JUMP JUMPDEST PUSH1 0x4 DUP2 DUP2 SLOAD DUP2 LT PUSH2 0x8FD JUMPI PUSH0 DUP1 REVERT JUMPDEST SWAP1 PUSH0 MSTORE PUSH1 0x20 PUSH0 KECCAK256 SWAP1 PUSH1 0x4 MUL ADD PUSH0 SWAP2 POP SWAP1 POP DUP1 PUSH0 ADD DUP1 SLOAD PUSH2 0x91C SWAP1 PUSH2 0x1DC4 JUMP JUMPDEST DUP1 PUSH1 0x1F ADD PUSH1 0x20 DUP1 SWAP2 DIV MUL PUSH1 0x20 ADD PUSH1 0x40 MLOAD SWAP1 DUP2 ADD PUSH1 0x40 MSTORE DUP1 SWAP3 SWAP2 SWAP1 DUP2 DUP2 MSTORE PUSH1 0x20 ADD DUP3 DUP1 SLOAD PUSH2 0x948 SWAP1 PUSH2 0x1DC4 JUMP JUMPDEST DUP1 ISZERO PUSH2 0x993 JUMPI DUP1 PUSH1 0x1F LT PUSH2 0x96A JUMPI PUSH2 0x100 DUP1 DUP4 SLOAD DIV MUL DUP4 MSTORE SWAP2 PUSH1 0x20 ADD SWAP2 PUSH2 0x993 JUMP JUMPDEST DUP3 ADD SWAP2 SWAP1 PUSH0 MSTORE PUSH1 0x20 PUSH0 KECCAK256 SWAP1 JUMPDEST DUP2 SLOAD DUP2 MSTORE SWAP1 PUSH1 0x1 ADD SWAP1 PUSH1 0x20 ADD DUP1 DUP4 GT PUSH2 0x976 JUMPI DUP3 SWAP1 SUB PUSH1 0x1F AND DUP3 ADD SWAP2 JUMPDEST POP POP POP POP POP SWAP1 DUP1 PUSH1 0x1 ADD DUP1 SLOAD PUSH2 0x9A8 SWAP1 PUSH2 0x1DC4 JUMP JUMPDEST DUP1 PUSH1 0x1F ADD PUSH1 0x20 DUP1 SWAP2 DIV MUL PUSH1 0x20 ADD PUSH1 0x40 MLOAD SWAP1 DUP2 ADD PUSH1 0x40 MSTORE DUP1 SWAP3 SWAP2 SWAP1 DUP2 DUP2 MSTORE PUSH1 0x20 ADD DUP3 DUP1 SLOAD PUSH2 0x9D4 SWAP1 PUSH2 0x1DC4 JUMP JUMPDEST DUP1 ISZERO PUSH2 0xA1F JUMPI DUP1 PUSH1 0x1F LT PUSH2 0x9F6 JUMPI PUSH2 0x100 DUP1 DUP4 SLOAD DIV MUL DUP4 MSTORE SWAP2 PUSH1 0x20 ADD SWAP2 PUSH2 0xA1F JUMP JUMPDEST DUP3 ADD SWAP2 SWAP1 PUSH0 MSTORE PUSH1 0x20 PUSH0 KECCAK256 SWAP1 JUMPDEST DUP2 SLOAD DUP2 MSTORE SWAP1 PUSH1 0x1 ADD SWAP1 PUSH1 0x20 ADD DUP1 DUP4 GT PUSH2 0xA02 JUMPI DUP3 SWAP1 SUB PUSH1 0x1F AND DUP3 ADD SWAP2 JUMPDEST POP POP POP POP POP SWAP1 DUP1 PUSH1 0x2 ADD SLOAD SWAP1 DUP1 PUSH1 0x3 ADD SLOAD SWAP1 POP DUP5 JUMP JUMPDEST PUSH1 0x6 DUP1 PUSH0 ADD PUSH0 SWAP1 SLOAD SWAP1 PUSH2 0x100 EXP SWAP1 DIV PUSH20 0xFFFFFFFFFFFFFFFFFFFFFFFFFFFFFFFFFFFFFFFF AND SWAP1 DUP1 PUSH1 0x1 ADD DUP1 SLOAD PUSH2 0xA6A SWAP1 PUSH2 0x1DC4 JUMP JUMPDEST DUP1 PUSH1 0x1F ADD PUSH1 0x20 DUP1 SWAP2 DIV MUL PUSH1 0x20 ADD PUSH1 0x40 MLOAD SWAP1 DUP2 ADD PUSH1 0x40 MSTORE DUP1 SWAP3 SWAP2 SWAP1 DUP2 DUP2 MSTORE PUSH1 0x20 ADD DUP3 DUP1 SLOAD PUSH2 0xA96 SWAP1 PUSH2 0x1DC4 JUMP JUMPDEST DUP1 ISZERO PUSH2 0xAE1 JUMPI DUP1 PUSH1 0x1F LT PUSH2 0xAB8 JUMPI PUSH2 0x100 DUP1 DUP4 SLOAD DIV MUL DUP4 MSTORE SWAP2 PUSH1 0x20 ADD SWAP2 PUSH2 0xAE1 JUMP JUMPDEST DUP3 ADD SWAP2 SWAP1 PUSH0 MSTORE PUSH1 0x20 PUSH0 KECCAK256 SWAP1 JUMPDEST DUP2 SLOAD DUP2 MSTORE SWAP1 PUSH1 0x1 ADD SWAP1 PUSH1 0x20 ADD DUP1 DUP4 GT PUSH2 0xAC4 JUMPI DUP3 SWAP1 SUB PUSH1 0x1F AND DUP3 ADD SWAP2 JUMPDEST POP POP POP POP POP SWAP1 DUP1 PUSH1 0x2 ADD DUP1 SLOAD PUSH2 0xAF6 SWAP1 PUSH2 0x1DC4 JUMP JUMPDEST DUP1 PUSH1 0x1F ADD PUSH1 0x20 DUP1 SWAP2 DIV MUL PUSH1 0x20 ADD PUSH1 0x40 MLOAD SWAP1 DUP2 ADD PUSH1 0x40 MSTORE DUP1 SWAP3 SWAP2 SWAP1 DUP2 DUP2 MSTORE PUSH1 0x20 ADD DUP3 DUP1 SLOAD PUSH2 0xB22 SWAP1 PUSH2 0x1DC4 JUMP JUMPDEST DUP1 ISZERO PUSH2 0xB6D JUMPI DUP1 PUSH1 0x1F LT PUSH2 0xB44 JUMPI PUSH2 0x100 DUP1 DUP4 SLOAD DIV MUL DUP4 MSTORE SWAP2 PUSH1 0x20 ADD SWAP2 PUSH2 0xB6D JUMP JUMPDEST DUP3 ADD SWAP2 SWAP1 PUSH0 MSTORE PUSH1 0x20 PUSH0 KECCAK256 SWAP1 JUMPDEST DUP2 SLOAD DUP2 MSTORE SWAP1 PUSH1 0x1 ADD SWAP1 PUSH1 0x20 ADD DUP1 DUP4 GT PUSH2 0xB50 JUMPI DUP3 SWAP1 SUB PUSH1 0x1F AND DUP3 ADD SWAP2 JUMPDEST POP POP POP POP POP SWAP1 DUP1 PUSH1 0x3 ADD SLOAD SWAP1 DUP1 PUSH1 0x4 ADD SLOAD SWAP1 DUP1 PUSH1 0x5 ADD SLOAD SWAP1 DUP1 PUSH1 0x6 ADD PUSH0 SWAP1 SLOAD SWAP1 PUSH2 0x100 EXP SWAP1 DIV PUSH1 0xFF AND SWAP1 POP DUP8 JUMP JUMPDEST PUSH1 0x6 DUP1 ADD PUSH0 SWAP1 SLOAD SWAP1 PUSH2 0x100 EXP SWAP1 DIV PUSH1 0xFF AND ISZERO PUSH2 0xBEC JUMPI PUSH1 0x40 MLOAD PUSH32 0x8C379A000000000000000000000000000000000000000000000000000000000 DUP2 MSTORE PUSH1 0x4 ADD PUSH2 0xBE3 SWAP1 PUSH2 0x2112 JUMP JUMPDEST PUSH1 0x40 MLOAD DUP1 SWAP2 SUB SWAP1 REVERT JUMPDEST PUSH1 0x6 PUSH1 0x5 ADD SLOAD CALLVALUE LT ISZERO PUSH2 0xC34 JUMPI PUSH1 0x40 MLOAD PUSH32 0x8C379A000000000000000000000000000000000000000000000000000000000 DUP2 MSTORE PUSH1 0x4 ADD PUSH2 0xC2B SWAP1 PUSH2 0x217A JUMP JUMPDEST PUSH1 0x40 MLOAD DUP1 SWAP2 SUB SWAP1 REVERT JUMPDEST PUSH0 PUSH1 0x6 PUSH1 0x5 ADD SLOAD SWAP1 POP PUSH1 0x1 PUSH1 0x6 DUP1 ADD PUSH0 PUSH2 0x100 EXP DUP2 SLOAD DUP2 PUSH1 0xFF MUL NOT AND SWAP1 DUP4 ISZERO ISZERO MUL OR SWAP1 SSTORE POP PUSH1 0x6 PUSH0 ADD PUSH0 SWAP1 SLOAD SWAP1 PUSH2 0x100 EXP SWAP1 DIV PUSH20 0xFFFFFFFFFFFFFFFFFFFFFFFFFFFFFFFFFFFFFFFF AND PUSH20 0xFFFFFFFFFFFFFFFFFFFFFFFFFFFFFFFFFFFFFFFF AND PUSH2 0x8FC DUP3 SWAP1 DUP2 ISZERO MUL SWAP1 PUSH1 0x40 MLOAD PUSH0 PUSH1 0x40 MLOAD DUP1 DUP4 SUB DUP2 DUP6 DUP9 DUP9 CALL SWAP4 POP POP POP POP ISZERO DUP1 ISZERO PUSH2 0xCBF JUMPI RETURNDATASIZE PUSH0 DUP1 RETURNDATACOPY RETURNDATASIZE PUSH0 REVERT JUMPDEST POP CALLER PUSH20 0xFFFFFFFFFFFFFFFFFFFFFFFFFFFFFFFFFFFFFFFF AND PUSH32 0xBBD8E4496C407CEA1BABE34B0A17A1955F9971EA24328997FD91E03C232E0B52 DUP3 PUSH1 0x40 MLOAD PUSH2 0xD06 SWAP2 SWAP1 PUSH2 0x2198 JUMP JUMPDEST PUSH1 0x40 MLOAD DUP1 SWAP2 SUB SWAP1 LOG2 POP JUMP JUMPDEST PUSH2 0xD19 PUSH2 0x13C2 JUMP JUMPDEST PUSH2 0xD22 PUSH0 PUSH2 0x1449 JUMP JUMPDEST JUMP JUMPDEST PUSH2 0xD2C PUSH2 0x13C2 JUMP JUMPDEST PUSH0 PUSH1 0x40 MLOAD DUP1 PUSH1 0x80 ADD PUSH1 0x40 MSTORE DUP1 DUP6 DUP2 MSTORE PUSH1 0x20 ADD DUP5 DUP2 MSTORE PUSH1 0x20 ADD DUP4 DUP2 MSTORE PUSH1 0x20 ADD TIMESTAMP DUP2 MSTORE POP SWAP1 POP PUSH1 0x4 DUP2 SWAP1 DUP1 PUSH1 0x1 DUP2 SLOAD ADD DUP1 DUP3 SSTORE DUP1 SWAP2 POP POP PUSH1 0x1 SWAP1 SUB SWAP1 PUSH0 MSTORE PUSH1 0x20 PUSH0 KECCAK256 SWAP1 PUSH1 0x4 MUL ADD PUSH0 SWAP1 SWAP2 SWAP1 SWAP2 SWAP1 SWAP2 POP PUSH0 DUP3 ADD MLOAD DUP2 PUSH0 ADD SWAP1 DUP2 PUSH2 0xD8C SWAP2 SWAP1 PUSH2 0x1F91 JUMP JUMPDEST POP PUSH1 0x20 DUP3 ADD MLOAD DUP2 PUSH1 0x1 ADD SWAP1 DUP2 PUSH2 0xDA2 SWAP2 SWAP1 PUSH2 0x1F91 JUMP JUMPDEST POP PUSH1 0x40 DUP3 ADD MLOAD DUP2 PUSH1 0x2 ADD SSTORE PUSH1 0x60 DUP3 ADD MLOAD DUP2 PUSH1 0x3 ADD SSTORE POP POP PUSH32 0xE0F0EB181C5782D146AF37BD93DD76081D90A3F76EDF32A36A9A17A5A040A542 DUP5 DUP5 DUP5 TIMESTAMP PUSH1 0x40 MLOAD PUSH2 0xDEE SWAP5 SWAP4 SWAP3 SWAP2 SWAP1 PUSH2 0x191D JUMP JUMPDEST PUSH1 0x40 MLOAD DUP1 SWAP2 SUB SWAP1 LOG1 POP POP POP POP JUMP JUMPDEST PUSH0 DUP1 PUSH0 SWAP1 SLOAD SWAP1 PUSH2 0x100 EXP SWAP1 DIV PUSH20 0xFFFFFFFFFFFFFFFFFFFFFFFFFFFFFFFFFFFFFFFF AND SWAP1 POP SWAP1 JUMP JUMPDEST PUSH1 0x1 DUP2 DUP2 SLOAD DUP2 LT PUSH2 0xE32 JUMPI PUSH0 DUP1 REVERT JUMPDEST SWAP1 PUSH0 MSTORE PUSH1 0x20 PUSH0 KECCAK256 SWAP1 PUSH1 0x3 MUL ADD PUSH0 SWAP2 POP SWAP1 POP DUP1 PUSH0 ADD DUP1 SLOAD PUSH2 0xE51 SWAP1 PUSH2 0x1DC4 JUMP JUMPDEST DUP1 PUSH1 0x1F ADD PUSH1 0x20 DUP1 SWAP2 DIV MUL PUSH1 0x20 ADD PUSH1 0x40 MLOAD SWAP1 DUP2 ADD PUSH1 0x40 MSTORE DUP1 SWAP3 SWAP2 SWAP1 DUP2 DUP2 MSTORE PUSH1 0x20 ADD DUP3 DUP1 SLOAD PUSH2 0xE7D SWAP1 PUSH2 0x1DC4 JUMP JUMPDEST DUP1 ISZERO PUSH2 0xEC8 JUMPI DUP1 PUSH1 0x1F LT PUSH2 0xE9F JUMPI PUSH2 0x100 DUP1 DUP4 SLOAD DIV MUL DUP4 MSTORE SWAP2 PUSH1 0x20 ADD SWAP2 PUSH2 0xEC8 JUMP JUMPDEST DUP3 ADD SWAP2 SWAP1 PUSH0 MSTORE PUSH1 0x20 PUSH0 KECCAK256 SWAP1 JUMPDEST DUP2 SLOAD DUP2 MSTORE SWAP1 PUSH1 0x1 ADD SWAP1 PUSH1 0x20 ADD DUP1 DUP4 GT PUSH2 0xEAB JUMPI DUP3 SWAP1 SUB PUSH1 0x1F AND DUP3 ADD SWAP2 JUMPDEST POP POP POP POP POP SWAP1 DUP1 PUSH1 0x1 ADD DUP1 SLOAD PUSH2 0xEDD SWAP1 PUSH2 0x1DC4 JUMP JUMPDEST DUP1 PUSH1 0x1F ADD PUSH1 0x20 DUP1 SWAP2 DIV MUL PUSH1 0x20 ADD PUSH1 0x40 MLOAD SWAP1 DUP2 ADD PUSH1 0x40 MSTORE DUP1 SWAP3 SWAP2 SWAP1 DUP2 DUP2 MSTORE PUSH1 0x20 ADD DUP3 DUP1 SLOAD PUSH2 0xF09 SWAP1 PUSH2 0x1DC4 JUMP JUMPDEST DUP1 ISZERO PUSH2 0xF54 JUMPI DUP1 PUSH1 0x1F LT PUSH2 0xF2B JUMPI PUSH2 0x100 DUP1 DUP4 SLOAD DIV MUL DUP4 MSTORE SWAP2 PUSH1 0x20 ADD SWAP2 PUSH2 0xF54 JUMP JUMPDEST DUP3 ADD SWAP2 SWAP1 PUSH0 MSTORE PUSH1 0x20 PUSH0 KECCAK256 SWAP1 JUMPDEST DUP2 SLOAD DUP2 MSTORE SWAP1 PUSH1 0x1 ADD SWAP1 PUSH1 0x20 ADD DUP1 DUP4 GT PUSH2 0xF37 JUMPI DUP3 SWAP1 SUB PUSH1 0x1F AND DUP3 ADD SWAP2 JUMPDEST POP POP POP POP POP SWAP1 DUP1 PUSH1 0x2 ADD SLOAD SWAP1 POP DUP4 JUMP JUMPDEST PUSH1 0x5 DUP2 DUP2 SLOAD DUP2 LT PUSH2 0xF73 JUMPI PUSH0 DUP1 REVERT JUMPDEST SWAP1 PUSH0 MSTORE PUSH1 0x20 PUSH0 KECCAK256 SWAP1 PUSH1 0x3 MUL ADD PUSH0 SWAP2 POP SWAP1 POP DUP1 PUSH0 ADD SLOAD SWAP1 DUP1 PUSH1 0x1 ADD SLOAD SWAP1 DUP1 PUSH1 0x2 ADD SLOAD SWAP1 POP DUP4 JUMP JUMPDEST PUSH1 0x2 DUP2 DUP2 SLOAD DUP2 LT PUSH2 0xFA8 JUMPI PUSH0 DUP1 REVERT JUMPDEST SWAP1 PUSH0 MSTORE PUSH1 0x20 PUSH0 KECCAK256 SWAP1 PUSH1 0x5 MUL ADD PUSH0 SWAP2 POP SWAP1 POP DUP1 PUSH0 ADD DUP1 SLOAD PUSH2 0xFC7 SWAP1 PUSH2 0x1DC4 JUMP JUMPDEST DUP1 PUSH1 0x1F ADD PUSH1 0x20 DUP1 SWAP2 DIV MUL PUSH1 0x20 ADD PUSH1 0x40 MLOAD SWAP1 DUP2 ADD PUSH1 0x40 MSTORE DUP1 SWAP3 SWAP2 SWAP1 DUP2 DUP2 MSTORE PUSH1 0x20 ADD DUP3 DUP1 SLOAD PUSH2 0xFF3 SWAP1 PUSH2 0x1DC4 JUMP JUMPDEST DUP1 ISZERO PUSH2 0x103E JUMPI DUP1 PUSH1 0x1F LT PUSH2 0x1015 JUMPI PUSH2 0x100 DUP1 DUP4 SLOAD DIV MUL DUP4 MSTORE SWAP2 PUSH1 0x20 ADD SWAP2 PUSH2 0x103E JUMP JUMPDEST DUP3 ADD SWAP2 SWAP1 PUSH0 MSTORE PUSH1 0x20 PUSH0 KECCAK256 SWAP1 JUMPDEST DUP2 SLOAD DUP2 MSTORE SWAP1 PUSH1 0x1 ADD SWAP1 PUSH1 0x20 ADD DUP1 DUP4 GT PUSH2 0x1021 JUMPI DUP3 SWAP1 SUB PUSH1 0x1F AND DUP3 ADD SWAP2 JUMPDEST POP POP POP POP POP SWAP1 DUP1 PUSH1 0x1 ADD DUP1 SLOAD PUSH2 0x1053 SWAP1 PUSH2 0x1DC4 JUMP JUMPDEST DUP1 PUSH1 0x1F ADD PUSH1 0x20 DUP1 SWAP2 DIV MUL PUSH1 0x20 ADD PUSH1 0x40 MLOAD SWAP1 DUP2 ADD PUSH1 0x40 MSTORE DUP1 SWAP3 SWAP2 SWAP1 DUP2 DUP2 MSTORE PUSH1 0x20 ADD DUP3 DUP1 SLOAD PUSH2 0x107F SWAP1 PUSH2 0x1DC4 JUMP JUMPDEST DUP1 ISZERO PUSH2 0x10CA JUMPI DUP1 PUSH1 0x1F LT PUSH2 0x10A1 JUMPI PUSH2 0x100 DUP1 DUP4 SLOAD DIV MUL DUP4 MSTORE SWAP2 PUSH1 0x20 ADD SWAP2 PUSH2 0x10CA JUMP JUMPDEST DUP3 ADD SWAP2 SWAP1 PUSH0 MSTORE PUSH1 0x20 PUSH0 KECCAK256 SWAP1 JUMPDEST DUP2 SLOAD DUP2 MSTORE SWAP1 PUSH1 0x1 ADD SWAP1 PUSH1 0x20 ADD DUP1 DUP4 GT PUSH2 0x10AD JUMPI DUP3 SWAP1 SUB PUSH1 0x1F AND DUP3 ADD SWAP2 JUMPDEST POP POP POP POP POP SWAP1 DUP1 PUSH1 0x2 ADD DUP1 SLOAD PUSH2 0x10DF SWAP1 PUSH2 0x1DC4 JUMP JUMPDEST DUP1 PUSH1 0x1F ADD PUSH1 0x20 DUP1 SWAP2 DIV MUL PUSH1 0x20 ADD PUSH1 0x40 MLOAD SWAP1 DUP2 ADD PUSH1 0x40 MSTORE DUP1 SWAP3 SWAP2 SWAP1 DUP2 DUP2 MSTORE PUSH1 0x20 ADD DUP3 DUP1 SLOAD PUSH2 0x110B SWAP1 PUSH2 0x1DC4 JUMP JUMPDEST DUP1 ISZERO PUSH2 0x1156 JUMPI DUP1 PUSH1 0x1F LT PUSH2 0x112D JUMPI PUSH2 0x100 DUP1 DUP4 SLOAD DIV MUL DUP4 MSTORE SWAP2 PUSH1 0x20 ADD SWAP2 PUSH2 0x1156 JUMP JUMPDEST DUP3 ADD SWAP2 SWAP1 PUSH0 MSTORE PUSH1 0x20 PUSH0 KECCAK256 SWAP1 JUMPDEST DUP2 SLOAD DUP2 MSTORE SWAP1 PUSH1 0x1 ADD SWAP1 PUSH1 0x20 ADD DUP1 DUP4 GT PUSH2 0x1139 JUMPI DUP3 SWAP1 SUB PUSH1 0x1F AND DUP3 ADD SWAP2 JUMPDEST POP POP POP POP POP SWAP1 DUP1 PUSH1 0x3 ADD SLOAD SWAP1 DUP1 PUSH1 0x4 ADD SLOAD SWAP1 POP DUP6 JUMP JUMPDEST PUSH2 0x1174 PUSH2 0x13C2 JUMP JUMPDEST PUSH1 0x40 MLOAD DUP1 PUSH1 0xE0 ADD PUSH1 0x40 MSTORE DUP1 DUP8 PUSH20 0xFFFFFFFFFFFFFFFFFFFFFFFFFFFFFFFFFFFFFFFF AND DUP2 MSTORE PUSH1 0x20 ADD DUP7 DUP2 MSTORE PUSH1 0x20 ADD DUP6 DUP2 MSTORE PUSH1 0x20 ADD DUP5 DUP2 MSTORE PUSH1 0x20 ADD DUP4 DUP2 MSTORE PUSH1 0x20 ADD DUP3 DUP2 MSTORE PUSH1 0x20 ADD PUSH0 ISZERO ISZERO DUP2 MSTORE POP PUSH1 0x6 PUSH0 DUP3 ADD MLOAD DUP2 PUSH0 ADD PUSH0 PUSH2 0x100 EXP DUP2 SLOAD DUP2 PUSH20 0xFFFFFFFFFFFFFFFFFFFFFFFFFFFFFFFFFFFFFFFF MUL NOT AND SWAP1 DUP4 PUSH20 0xFFFFFFFFFFFFFFFFFFFFFFFFFFFFFFFFFFFFFFFF AND MUL OR SWAP1 SSTORE POP PUSH1 0x20 DUP3 ADD MLOAD DUP2 PUSH1 0x1 ADD SWAP1 DUP2 PUSH2 0x121A SWAP2 SWAP1 PUSH2 0x1F91 JUMP JUMPDEST POP PUSH1 0x40 DUP3 ADD MLOAD DUP2 PUSH1 0x2 ADD SWAP1 DUP2 PUSH2 0x1230 SWAP2 SWAP1 PUSH2 0x1F91 JUMP JUMPDEST POP PUSH1 0x60 DUP3 ADD MLOAD DUP2 PUSH1 0x3 ADD SSTORE PUSH1 0x80 DUP3 ADD MLOAD DUP2 PUSH1 0x4 ADD SSTORE PUSH1 0xA0 DUP3 ADD MLOAD DUP2 PUSH1 0x5 ADD SSTORE PUSH1 0xC0 DUP3 ADD MLOAD DUP2 PUSH1 0x6 ADD PUSH0 PUSH2 0x100 EXP DUP2 SLOAD DUP2 PUSH1 0xFF MUL NOT AND SWAP1 DUP4 ISZERO ISZERO MUL OR SWAP1 SSTORE POP SWAP1 POP POP POP POP POP POP POP POP JUMP JUMPDEST PUSH2 0x1281 PUSH2 0x13C2 JUMP JUMPDEST PUSH0 PUSH1 0x40 MLOAD DUP1 PUSH1 0x60 ADD PUSH1 0x40 MSTORE DUP1 DUP5 DUP2 MSTORE PUSH1 0x20 ADD DUP4 DUP2 MSTORE PUSH1 0x20 ADD TIMESTAMP DUP2 MSTORE POP SWAP1 POP PUSH1 0x1 DUP2 SWAP1 DUP1 PUSH1 0x1 DUP2 SLOAD ADD DUP1 DUP3 SSTORE DUP1 SWAP2 POP POP PUSH1 0x1 SWAP1 SUB SWAP1 PUSH0 MSTORE PUSH1 0x20 PUSH0 KECCAK256 SWAP1 PUSH1 0x3 MUL ADD PUSH0 SWAP1 SWAP2 SWAP1 SWAP2 SWAP1 SWAP2 POP PUSH0 DUP3 ADD MLOAD DUP2 PUSH0 ADD SWAP1 DUP2 PUSH2 0x12DB SWAP2 SWAP1 PUSH2 0x1F91 JUMP JUMPDEST POP PUSH1 0x20 DUP3 ADD MLOAD DUP2 PUSH1 0x1 ADD SWAP1 DUP2 PUSH2 0x12F1 SWAP2 SWAP1 PUSH2 0x1F91 JUMP JUMPDEST POP PUSH1 0x40 DUP3 ADD MLOAD DUP2 PUSH1 0x2 ADD SSTORE POP POP PUSH32 0xD64ECBD123C2815041454FC79C472C2C3379347AD140198431D3E3DD8031DDA8 DUP4 DUP4 TIMESTAMP PUSH1 0x40 MLOAD PUSH2 0x1331 SWAP4 SWAP3 SWAP2 SWAP1 PUSH2 0x1B03 JUMP JUMPDEST PUSH1 0x40 MLOAD DUP1 SWAP2 SUB SWAP1 LOG1 POP POP POP JUMP JUMPDEST PUSH2 0x1346 PUSH2 0x13C2 JUMP JUMPDEST PUSH0 PUSH20 0xFFFFFFFFFFFFFFFFFFFFFFFFFFFFFFFFFFFFFFFF AND DUP2 PUSH20 0xFFFFFFFFFFFFFFFFFFFFFFFFFFFFFFFFFFFFFFFF AND SUB PUSH2 0x13B6 JUMPI PUSH0 PUSH1 0x40 MLOAD PUSH32 0x1E4FBDF700000000000000000000000000000000000000000000000000000000 DUP2 MSTORE PUSH1 0x4 ADD PUSH2 0x13AD SWAP2 SWAP1 PUSH2 0x1AEA JUMP JUMPDEST PUSH1 0x40 MLOAD DUP1 SWAP2 SUB SWAP1 REVERT JUMPDEST PUSH2 0x13BF DUP2 PUSH2 0x1449 JUMP JUMPDEST POP JUMP JUMPDEST PUSH2 0x13CA PUSH2 0x150A JUMP JUMPDEST PUSH20 0xFFFFFFFFFFFFFFFFFFFFFFFFFFFFFFFFFFFFFFFF AND PUSH2 0x13E8 PUSH2 0xDFC JUMP JUMPDEST PUSH20 0xFFFFFFFFFFFFFFFFFFFFFFFFFFFFFFFFFFFFFFFF AND EQ PUSH2 0x1447 JUMPI PUSH2 0x140B PUSH2 0x150A JUMP JUMPDEST PUSH1 0x40 MLOAD PUSH32 0x118CDAA700000000000000000000000000000000000000000000000000000000 DUP2 MSTORE PUSH1 0x4 ADD PUSH2 0x143E SWAP2 SWAP1 PUSH2 0x1AEA JUMP JUMPDEST PUSH1 0x40 MLOAD DUP1 SWAP2 SUB SWAP1 REVERT JUMPDEST JUMP JUMPDEST PUSH0 DUP1 PUSH0 SWAP1 SLOAD SWAP1 PUSH2 0x100 EXP SWAP1 DIV PUSH20 0xFFFFFFFFFFFFFFFFFFFFFFFFFFFFFFFFFFFFFFFF AND SWAP1 POP DUP2 PUSH0 DUP1 PUSH2 0x100 EXP DUP2 SLOAD DUP2 PUSH20 0xFFFFFFFFFFFFFFFFFFFFFFFFFFFFFFFFFFFFFFFF MUL NOT AND SWAP1 DUP4 PUSH20 0xFFFFFFFFFFFFFFFFFFFFFFFFFFFFFFFFFFFFFFFF AND MUL OR SWAP1 SSTORE POP DUP2 PUSH20 0xFFFFFFFFFFFFFFFFFFFFFFFFFFFFFFFFFFFFFFFF AND DUP2 PUSH20 0xFFFFFFFFFFFFFFFFFFFFFFFFFFFFFFFFFFFFFFFF AND PUSH32 0x8BE0079C531659141344CD1FD0A4F28419497F9722A3DAAFE3B4186F6B6457E0 PUSH1 0x40 MLOAD PUSH1 0x40 MLOAD DUP1 SWAP2 SUB SWAP1 LOG3 POP POP JUMP JUMPDEST PUSH0 CALLER SWAP1 POP SWAP1 JUMP JUMPDEST PUSH0 PUSH1 0x40 MLOAD SWAP1 POP SWAP1 JUMP JUMPDEST PUSH0 DUP1 REVERT JUMPDEST PUSH0 DUP1 REVERT JUMPDEST PUSH0 DUP2 SWAP1 POP SWAP2 SWAP1 POP JUMP JUMPDEST PUSH2 0x1534 DUP2 PUSH2 0x1522 JUMP JUMPDEST DUP2 EQ PUSH2 0x153E JUMPI PUSH0 DUP1 REVERT JUMPDEST POP JUMP JUMPDEST PUSH0 DUP2 CALLDATALOAD SWAP1 POP PUSH2 0x154F DUP2 PUSH2 0x152B JUMP JUMPDEST SWAP3 SWAP2 POP POP JUMP JUMPDEST PUSH0 PUSH1 0x20 DUP3 DUP5 SUB SLT ISZERO PUSH2 0x156A JUMPI PUSH2 0x1569 PUSH2 0x151A JUMP JUMPDEST JUMPDEST PUSH0 PUSH2 0x1577 DUP5 DUP3 DUP6 ADD PUSH2 0x1541 JUMP JUMPDEST SWAP2 POP POP SWAP3 SWAP2 POP POP JUMP JUMPDEST PUSH0 DUP2 MLOAD SWAP1 POP SWAP2 SWAP1 POP JUMP JUMPDEST PUSH0 DUP3 DUP3 MSTORE PUSH1 0x20 DUP3 ADD SWAP1 POP SWAP3 SWAP2 POP POP JUMP JUMPDEST DUP3 DUP2 DUP4 MCOPY PUSH0 DUP4 DUP4 ADD MSTORE POP POP POP JUMP JUMPDEST PUSH0 PUSH1 0x1F NOT PUSH1 0x1F DUP4 ADD AND SWAP1 POP SWAP2 SWAP1 POP JUMP JUMPDEST PUSH0 PUSH2 0x15C2 DUP3 PUSH2 0x1580 JUMP JUMPDEST PUSH2 0x15CC DUP2 DUP6 PUSH2 0x158A JUMP JUMPDEST SWAP4 POP PUSH2 0x15DC DUP2 DUP6 PUSH1 0x20 DUP7 ADD PUSH2 0x159A JUMP JUMPDEST PUSH2 0x15E5 DUP2 PUSH2 0x15A8 JUMP JUMPDEST DUP5 ADD SWAP2 POP POP SWAP3 SWAP2 POP POP JUMP JUMPDEST PUSH2 0x15F9 DUP2 PUSH2 0x1522 JUMP JUMPDEST DUP3 MSTORE POP POP JUMP JUMPDEST PUSH0 PUSH1 0x80 DUP3 ADD SWAP1 POP DUP2 DUP2 SUB PUSH0 DUP4 ADD MSTORE PUSH2 0x1617 DUP2 DUP8 PUSH2 0x15B8 JUMP JUMPDEST SWAP1 POP DUP2 DUP2 SUB PUSH1 0x20 DUP4 ADD MSTORE PUSH2 0x162B DUP2 DUP7 PUSH2 0x15B8 JUMP JUMPDEST SWAP1 POP DUP2 DUP2 SUB PUSH1 0x40 DUP4 ADD MSTORE PUSH2 0x163F DUP2 DUP6 PUSH2 0x15B8 JUMP JUMPDEST SWAP1 POP PUSH2 0x164E PUSH1 0x60 DUP4 ADD DUP5 PUSH2 0x15F0 JUMP JUMPDEST SWAP6 SWAP5 POP POP POP POP POP JUMP JUMPDEST PUSH0 DUP1 REVERT JUMPDEST PUSH0 DUP1 REVERT JUMPDEST PUSH32 0x4E487B7100000000000000000000000000000000000000000000000000000000 PUSH0 MSTORE PUSH1 0x41 PUSH1 0x4 MSTORE PUSH1 0x24 PUSH0 REVERT JUMPDEST PUSH2 0x1695 DUP3 PUSH2 0x15A8 JUMP JUMPDEST DUP2 ADD DUP2 DUP2 LT PUSH8 0xFFFFFFFFFFFFFFFF DUP3 GT OR ISZERO PUSH2 0x16B4 JUMPI PUSH2 0x16B3 PUSH2 0x165F JUMP JUMPDEST JUMPDEST DUP1 PUSH1 0x40 MSTORE POP POP POP JUMP JUMPDEST PUSH0 PUSH2 0x16C6 PUSH2 0x1511 JUMP JUMPDEST SWAP1 POP PUSH2 0x16D2 DUP3 DUP3 PUSH2 0x168C JUMP JUMPDEST SWAP2 SWAP1 POP JUMP JUMPDEST PUSH0 PUSH8 0xFFFFFFFFFFFFFFFF DUP3 GT ISZERO PUSH2 0x16F1 JUMPI PUSH2 0x16F0 PUSH2 0x165F JUMP JUMPDEST JUMPDEST PUSH2 0x16FA DUP3 PUSH2 0x15A8 JUMP JUMPDEST SWAP1 POP PUSH1 0x20 DUP2 ADD SWAP1 POP SWAP2 SWAP1 POP JUMP JUMPDEST DUP3 DUP2 DUP4 CALLDATACOPY PUSH0 DUP4 DUP4 ADD MSTORE POP POP POP JUMP JUMPDEST PUSH0 PUSH2 0x1727 PUSH2 0x1722 DUP5 PUSH2 0x16D7 JUMP JUMPDEST PUSH2 0x16BD JUMP JUMPDEST SWAP1 POP DUP3 DUP2 MSTORE PUSH1 0x20 DUP2 ADD DUP5 DUP5 DUP5 ADD GT ISZERO PUSH2 0x1743 JUMPI PUSH2 0x1742 PUSH2 0x165B JUMP JUMPDEST JUMPDEST PUSH2 0x174E DUP5 DUP3 DUP6 PUSH2 0x1707 JUMP JUMPDEST POP SWAP4 SWAP3 POP POP POP JUMP JUMPDEST PUSH0 DUP3 PUSH1 0x1F DUP4 ADD SLT PUSH2 0x176A JUMPI PUSH2 0x1769 PUSH2 0x1657 JUMP JUMPDEST JUMPDEST DUP2 CALLDATALOAD PUSH2 0x177A DUP5 DUP3 PUSH1 0x20 DUP7 ADD PUSH2 0x1715 JUMP JUMPDEST SWAP2 POP POP SWAP3 SWAP2 POP POP JUMP JUMPDEST PUSH0 DUP1 PUSH0 PUSH1 0x60 DUP5 DUP7 SUB SLT ISZERO PUSH2 0x179A JUMPI PUSH2 0x1799 PUSH2 0x151A JUMP JUMPDEST JUMPDEST PUSH0 DUP5 ADD CALLDATALOAD PUSH8 0xFFFFFFFFFFFFFFFF DUP2 GT ISZERO PUSH2 0x17B7 JUMPI PUSH2 0x17B6 PUSH2 0x151E JUMP JUMPDEST JUMPDEST PUSH2 0x17C3 DUP7 DUP3 DUP8 ADD PUSH2 0x1756 JUMP JUMPDEST SWAP4 POP POP PUSH1 0x20 DUP5 ADD CALLDATALOAD PUSH8 0xFFFFFFFFFFFFFFFF DUP2 GT ISZERO PUSH2 0x17E4 JUMPI PUSH2 0x17E3 PUSH2 0x151E JUMP JUMPDEST JUMPDEST PUSH2 0x17F0 DUP7 DUP3 DUP8 ADD PUSH2 0x1756 JUMP JUMPDEST SWAP3 POP POP PUSH1 0x40 DUP5 ADD CALLDATALOAD PUSH8 0xFFFFFFFFFFFFFFFF DUP2 GT ISZERO PUSH2 0x1811 JUMPI PUSH2 0x1810 PUSH2 0x151E JUMP JUMPDEST JUMPDEST PUSH2 0x181D DUP7 DUP3 DUP8 ADD PUSH2 0x1756 JUMP JUMPDEST SWAP2 POP POP SWAP3 POP SWAP3 POP SWAP3 JUMP JUMPDEST PUSH0 DUP1 PUSH1 0x40 DUP4 DUP6 SUB SLT ISZERO PUSH2 0x183D JUMPI PUSH2 0x183C PUSH2 0x151A JUMP JUMPDEST JUMPDEST PUSH0 PUSH2 0x184A DUP6 DUP3 DUP7 ADD PUSH2 0x1541 JUMP JUMPDEST SWAP3 POP POP PUSH1 0x20 PUSH2 0x185B DUP6 DUP3 DUP7 ADD PUSH2 0x1541 JUMP JUMPDEST SWAP2 POP POP SWAP3 POP SWAP3 SWAP1 POP JUMP JUMPDEST PUSH0 DUP1 PUSH0 DUP1 PUSH1 0x80 DUP6 DUP8 SUB SLT ISZERO PUSH2 0x187D JUMPI PUSH2 0x187C PUSH2 0x151A JUMP JUMPDEST JUMPDEST PUSH0 DUP6 ADD CALLDATALOAD PUSH8 0xFFFFFFFFFFFFFFFF DUP2 GT ISZERO PUSH2 0x189A JUMPI PUSH2 0x1899 PUSH2 0x151E JUMP JUMPDEST JUMPDEST PUSH2 0x18A6 DUP8 DUP3 DUP9 ADD PUSH2 0x1756 JUMP JUMPDEST SWAP5 POP POP PUSH1 0x20 DUP6 ADD CALLDATALOAD PUSH8 0xFFFFFFFFFFFFFFFF DUP2 GT ISZERO PUSH2 0x18C7 JUMPI PUSH2 0x18C6 PUSH2 0x151E JUMP JUMPDEST JUMPDEST PUSH2 0x18D3 DUP8 DUP3 DUP9 ADD PUSH2 0x1756 JUMP JUMPDEST SWAP4 POP POP PUSH1 0x40 DUP6 ADD CALLDATALOAD PUSH8 0xFFFFFFFFFFFFFFFF DUP2 GT ISZERO PUSH2 0x18F4 JUMPI PUSH2 0x18F3 PUSH2 0x151E JUMP JUMPDEST JUMPDEST PUSH2 0x1900 DUP8 DUP3 DUP9 ADD PUSH2 0x1756 JUMP JUMPDEST SWAP3 POP POP PUSH1 0x60 PUSH2 0x1911 DUP8 DUP3 DUP9 ADD PUSH2 0x1541 JUMP JUMPDEST SWAP2 POP POP SWAP3 SWAP6 SWAP2 SWAP5 POP SWAP3 POP JUMP JUMPDEST PUSH0 PUSH1 0x80 DUP3 ADD SWAP1 POP DUP2 DUP2 SUB PUSH0 DUP4 ADD MSTORE PUSH2 0x1935 DUP2 DUP8 PUSH2 0x15B8 JUMP JUMPDEST SWAP1 POP DUP2 DUP2 SUB PUSH1 0x20 DUP4 ADD MSTORE PUSH2 0x1949 DUP2 DUP7 PUSH2 0x15B8 JUMP JUMPDEST SWAP1 POP PUSH2 0x1958 PUSH1 0x40 DUP4 ADD DUP6 PUSH2 0x15F0 JUMP JUMPDEST PUSH2 0x1965 PUSH1 0x60 DUP4 ADD DUP5 PUSH2 0x15F0 JUMP JUMPDEST SWAP6 SWAP5 POP POP POP POP POP JUMP JUMPDEST PUSH0 PUSH20 0xFFFFFFFFFFFFFFFFFFFFFFFFFFFFFFFFFFFFFFFF DUP3 AND SWAP1 POP SWAP2 SWAP1 POP JUMP JUMPDEST PUSH0 PUSH2 0x1997 DUP3 PUSH2 0x196E JUMP JUMPDEST SWAP1 POP SWAP2 SWAP1 POP JUMP JUMPDEST PUSH2 0x19A7 DUP2 PUSH2 0x198D JUMP JUMPDEST DUP3 MSTORE POP POP JUMP JUMPDEST PUSH0 DUP2 ISZERO ISZERO SWAP1 POP SWAP2 SWAP1 POP JUMP JUMPDEST PUSH2 0x19C1 DUP2 PUSH2 0x19AD JUMP JUMPDEST DUP3 MSTORE POP POP JUMP JUMPDEST PUSH0 PUSH1 0xE0 DUP3 ADD SWAP1 POP PUSH2 0x19DA PUSH0 DUP4 ADD DUP11 PUSH2 0x199E JUMP JUMPDEST DUP2 DUP2 SUB PUSH1 0x20 DUP4 ADD MSTORE PUSH2 0x19EC DUP2 DUP10 PUSH2 0x15B8 JUMP JUMPDEST SWAP1 POP DUP2 DUP2 SUB PUSH1 0x40 DUP4 ADD MSTORE PUSH2 0x1A00 DUP2 DUP9 PUSH2 0x15B8 JUMP JUMPDEST SWAP1 POP PUSH2 0x1A0F PUSH1 0x60 DUP4 ADD DUP8 PUSH2 0x15F0 JUMP JUMPDEST PUSH2 0x1A1C PUSH1 0x80 DUP4 ADD DUP7 PUSH2 0x15F0 JUMP JUMPDEST PUSH2 0x1A29 PUSH1 0xA0 DUP4 ADD DUP6 PUSH2 0x15F0 JUMP JUMPDEST PUSH2 0x1A36 PUSH1 0xC0 DUP4 ADD DUP5 PUSH2 0x19B8 JUMP JUMPDEST SWAP9 SWAP8 POP POP POP POP POP POP POP POP JUMP JUMPDEST PUSH0 DUP1 PUSH0 PUSH1 0x60 DUP5 DUP7 SUB SLT ISZERO PUSH2 0x1A59 JUMPI PUSH2 0x1A58 PUSH2 0x151A JUMP JUMPDEST JUMPDEST PUSH0 DUP5 ADD CALLDATALOAD PUSH8 0xFFFFFFFFFFFFFFFF DUP2 GT ISZERO PUSH2 0x1A76 JUMPI PUSH2 0x1A75 PUSH2 0x151E JUMP JUMPDEST JUMPDEST PUSH2 0x1A82 DUP7 DUP3 DUP8 ADD PUSH2 0x1756 JUMP JUMPDEST SWAP4 POP POP PUSH1 0x20 DUP5 ADD CALLDATALOAD PUSH8 0xFFFFFFFFFFFFFFFF DUP2 GT ISZERO PUSH2 0x1AA3 JUMPI PUSH2 0x1AA2 PUSH2 0x151E JUMP JUMPDEST JUMPDEST PUSH2 0x1AAF DUP7 DUP3 DUP8 ADD PUSH2 0x1756 JUMP JUMPDEST SWAP3 POP POP PUSH1 0x40 PUSH2 0x1AC0 DUP7 DUP3 DUP8 ADD PUSH2 0x1541 JUMP JUMPDEST SWAP2 POP POP SWAP3 POP SWAP3 POP SWAP3 JUMP JUMPDEST PUSH0 PUSH2 0x1AD4 DUP3 PUSH2 0x196E JUMP JUMPDEST SWAP1 POP SWAP2 SWAP1 POP JUMP JUMPDEST PUSH2 0x1AE4 DUP2 PUSH2 0x1ACA JUMP JUMPDEST DUP3 MSTORE POP POP JUMP JUMPDEST PUSH0 PUSH1 0x20 DUP3 ADD SWAP1 POP PUSH2 0x1AFD PUSH0 DUP4 ADD DUP5 PUSH2 0x1ADB JUMP JUMPDEST SWAP3 SWAP2 POP POP JUMP JUMPDEST PUSH0 PUSH1 0x60 DUP3 ADD SWAP1 POP DUP2 DUP2 SUB PUSH0 DUP4 ADD MSTORE PUSH2 0x1B1B DUP2 DUP7 PUSH2 0x15B8 JUMP JUMPDEST SWAP1 POP DUP2 DUP2 SUB PUSH1 0x20 DUP4 ADD MSTORE PUSH2 0x1B2F DUP2 DUP6 PUSH2 0x15B8 JUMP JUMPDEST SWAP1 POP PUSH2 0x1B3E PUSH1 0x40 DUP4 ADD DUP5 PUSH2 0x15F0 JUMP JUMPDEST SWAP5 SWAP4 POP POP POP POP JUMP JUMPDEST PUSH0 PUSH1 0x60 DUP3 ADD SWAP1 POP PUSH2 0x1B59 PUSH0 DUP4 ADD DUP7 PUSH2 0x15F0 JUMP JUMPDEST PUSH2 0x1B66 PUSH1 0x20 DUP4 ADD DUP6 PUSH2 0x15F0 JUMP JUMPDEST PUSH2 0x1B73 PUSH1 0x40 DUP4 ADD DUP5 PUSH2 0x15F0 JUMP JUMPDEST SWAP5 SWAP4 POP POP POP POP JUMP JUMPDEST PUSH0 PUSH1 0xA0 DUP3 ADD SWAP1 POP DUP2 DUP2 SUB PUSH0 DUP4 ADD MSTORE PUSH2 0x1B93 DUP2 DUP9 PUSH2 0x15B8 JUMP JUMPDEST SWAP1 POP DUP2 DUP2 SUB PUSH1 0x20 DUP4 ADD MSTORE PUSH2 0x1BA7 DUP2 DUP8 PUSH2 0x15B8 JUMP JUMPDEST SWAP1 POP DUP2 DUP2 SUB PUSH1 0x40 DUP4 ADD MSTORE PUSH2 0x1BBB DUP2 DUP7 PUSH2 0x15B8 JUMP JUMPDEST SWAP1 POP PUSH2 0x1BCA PUSH1 0x60 DUP4 ADD DUP6 PUSH2 0x15F0 JUMP JUMPDEST PUSH2 0x1BD7 PUSH1 0x80 DUP4 ADD DUP5 PUSH2 0x15F0 JUMP JUMPDEST SWAP7 SWAP6 POP POP POP POP POP POP JUMP JUMPDEST PUSH2 0x1BEA DUP2 PUSH2 0x198D JUMP JUMPDEST DUP2 EQ PUSH2 0x1BF4 JUMPI PUSH0 DUP1 REVERT JUMPDEST POP JUMP JUMPDEST PUSH0 DUP2 CALLDATALOAD SWAP1 POP PUSH2 0x1C05 DUP2 PUSH2 0x1BE1 JUMP JUMPDEST SWAP3 SWAP2 POP POP JUMP JUMPDEST PUSH0 DUP1 PUSH0 DUP1 PUSH0 DUP1 PUSH1 0xC0 DUP8 DUP10 SUB SLT ISZERO PUSH2 0x1C25 JUMPI PUSH2 0x1C24 PUSH2 0x151A JUMP JUMPDEST JUMPDEST PUSH0 PUSH2 0x1C32 DUP10 DUP3 DUP11 ADD PUSH2 0x1BF7 JUMP JUMPDEST SWAP7 POP POP PUSH1 0x20 DUP8 ADD CALLDATALOAD PUSH8 0xFFFFFFFFFFFFFFFF DUP2 GT ISZERO PUSH2 0x1C53 JUMPI PUSH2 0x1C52 PUSH2 0x151E JUMP JUMPDEST JUMPDEST PUSH2 0x1C5F DUP10 DUP3 DUP11 ADD PUSH2 0x1756 JUMP JUMPDEST SWAP6 POP POP PUSH1 0x40 DUP8 ADD CALLDATALOAD PUSH8 0xFFFFFFFFFFFFFFFF DUP2 GT ISZERO PUSH2 0x1C80 JUMPI PUSH2 0x1C7F PUSH2 0x151E JUMP JUMPDEST JUMPDEST PUSH2 0x1C8C DUP10 DUP3 DUP11 ADD PUSH2 0x1756 JUMP JUMPDEST SWAP5 POP POP PUSH1 0x60 PUSH2 0x1C9D DUP10 DUP3 DUP11 ADD PUSH2 0x1541 JUMP JUMPDEST SWAP4 POP POP PUSH1 0x80 PUSH2 0x1CAE DUP10 DUP3 DUP11 ADD PUSH2 0x1541 JUMP JUMPDEST SWAP3 POP POP PUSH1 0xA0 PUSH2 0x1CBF DUP10 DUP3 DUP11 ADD PUSH2 0x1541 JUMP JUMPDEST SWAP2 POP POP SWAP3 SWAP6 POP SWAP3 SWAP6 POP SWAP3 SWAP6 JUMP JUMPDEST PUSH0 DUP1 PUSH1 0x40 DUP4 DUP6 SUB SLT ISZERO PUSH2 0x1CE2 JUMPI PUSH2 0x1CE1 PUSH2 0x151A JUMP JUMPDEST JUMPDEST PUSH0 DUP4 ADD CALLDATALOAD PUSH8 0xFFFFFFFFFFFFFFFF DUP2 GT ISZERO PUSH2 0x1CFF JUMPI PUSH2 0x1CFE PUSH2 0x151E JUMP JUMPDEST JUMPDEST PUSH2 0x1D0B DUP6 DUP3 DUP7 ADD PUSH2 0x1756 JUMP JUMPDEST SWAP3 POP POP PUSH1 0x20 DUP4 ADD CALLDATALOAD PUSH8 0xFFFFFFFFFFFFFFFF DUP2 GT ISZERO PUSH2 0x1D2C JUMPI PUSH2 0x1D2B PUSH2 0x151E JUMP JUMPDEST JUMPDEST PUSH2 0x1D38 DUP6 DUP3 DUP7 ADD PUSH2 0x1756 JUMP JUMPDEST SWAP2 POP POP SWAP3 POP SWAP3 SWAP1 POP JUMP JUMPDEST PUSH2 0x1D4B DUP2 PUSH2 0x1ACA JUMP JUMPDEST DUP2 EQ PUSH2 0x1D55 JUMPI PUSH0 DUP1 REVERT JUMPDEST POP JUMP JUMPDEST PUSH0 DUP2 CALLDATALOAD SWAP1 POP PUSH2 0x1D66 DUP2 PUSH2 0x1D42 JUMP JUMPDEST SWAP3 SWAP2 POP POP JUMP JUMPDEST PUSH0 PUSH1 0x20 DUP3 DUP5 SUB SLT ISZERO PUSH2 0x1D81 JUMPI PUSH2 0x1D80 PUSH2 0x151A JUMP JUMPDEST JUMPDEST PUSH0 PUSH2 0x1D8E DUP5 DUP3 DUP6 ADD PUSH2 0x1D58 JUMP JUMPDEST SWAP2 POP POP SWAP3 SWAP2 POP POP JUMP JUMPDEST PUSH32 0x4E487B7100000000000000000000000000000000000000000000000000000000 PUSH0 MSTORE PUSH1 0x22 PUSH1 0x4 MSTORE PUSH1 0x24 PUSH0 REVERT JUMPDEST PUSH0 PUSH1 0x2 DUP3 DIV SWAP1 POP PUSH1 0x1 DUP3 AND DUP1 PUSH2 0x1DDB JUMPI PUSH1 0x7F DUP3 AND SWAP2 POP JUMPDEST PUSH1 0x20 DUP3 LT DUP2 SUB PUSH2 0x1DEE JUMPI PUSH2 0x1DED PUSH2 0x1D97 JUMP JUMPDEST JUMPDEST POP SWAP2 SWAP1 POP JUMP JUMPDEST PUSH0 DUP2 SWAP1 POP DUP2 PUSH0 MSTORE PUSH1 0x20 PUSH0 KECCAK256 SWAP1 POP SWAP2 SWAP1 POP JUMP JUMPDEST PUSH0 PUSH1 0x20 PUSH1 0x1F DUP4 ADD DIV SWAP1 POP SWAP2 SWAP1 POP JUMP JUMPDEST PUSH0 DUP3 DUP3 SHL SWAP1 POP SWAP3 SWAP2 POP POP JUMP JUMPDEST PUSH0 PUSH1 0x8 DUP4 MUL PUSH2 0x1E50 PUSH32 0xFFFFFFFFFFFFFFFFFFFFFFFFFFFFFFFFFFFFFFFFFFFFFFFFFFFFFFFFFFFFFFFF DUP3 PUSH2 0x1E15 JUMP JUMPDEST PUSH2 0x1E5A DUP7 DUP4 PUSH2 0x1E15 JUMP JUMPDEST SWAP6 POP DUP1 NOT DUP5 AND SWAP4 POP DUP1 DUP7 AND DUP5 OR SWAP3 POP POP POP SWAP4 SWAP3 POP POP POP JUMP JUMPDEST PUSH0 DUP2 SWAP1 POP SWAP2 SWAP1 POP JUMP JUMPDEST PUSH0 PUSH2 0x1E95 PUSH2 0x1E90 PUSH2 0x1E8B DUP5 PUSH2 0x1522 JUMP JUMPDEST PUSH2 0x1E72 JUMP JUMPDEST PUSH2 0x1522 JUMP JUMPDEST SWAP1 POP SWAP2 SWAP1 POP JUMP JUMPDEST PUSH0 DUP2 SWAP1 POP SWAP2 SWAP1 POP JUMP JUMPDEST PUSH2 0x1EAE DUP4 PUSH2 0x1E7B JUMP JUMPDEST PUSH2 0x1EC2 PUSH2 0x1EBA DUP3 PUSH2 0x1E9C JUMP JUMPDEST DUP5 DUP5 SLOAD PUSH2 0x1E21 JUMP JUMPDEST DUP3 SSTORE POP POP POP POP JUMP JUMPDEST PUSH0 SWAP1 JUMP JUMPDEST PUSH2 0x1ED6 PUSH2 0x1ECA JUMP JUMPDEST PUSH2 0x1EE1 DUP2 DUP5 DUP5 PUSH2 0x1EA5 JUMP JUMPDEST POP POP POP JUMP JUMPDEST JUMPDEST DUP2 DUP2 LT ISZERO PUSH2 0x1F04 JUMPI PUSH2 0x1EF9 PUSH0 DUP3 PUSH2 0x1ECE JUMP JUMPDEST PUSH1 0x1 DUP2 ADD SWAP1 POP PUSH2 0x1EE7 JUMP JUMPDEST POP POP JUMP JUMPDEST PUSH1 0x1F DUP3 GT ISZERO PUSH2 0x1F49 JUMPI PUSH2 0x1F1A DUP2 PUSH2 0x1DF4 JUMP JUMPDEST PUSH2 0x1F23 DUP5 PUSH2 0x1E06 JUMP JUMPDEST DUP2 ADD PUSH1 0x20 DUP6 LT ISZERO PUSH2 0x1F32 JUMPI DUP2 SWAP1 POP JUMPDEST PUSH2 0x1F46 PUSH2 0x1F3E DUP6 PUSH2 0x1E06 JUMP JUMPDEST DUP4 ADD DUP3 PUSH2 0x1EE6 JUMP JUMPDEST POP POP JUMPDEST POP POP POP JUMP JUMPDEST PUSH0 DUP3 DUP3 SHR SWAP1 POP SWAP3 SWAP2 POP POP JUMP JUMPDEST PUSH0 PUSH2 0x1F69 PUSH0 NOT DUP5 PUSH1 0x8 MUL PUSH2 0x1F4E JUMP JUMPDEST NOT DUP1 DUP4 AND SWAP2 POP POP SWAP3 SWAP2 POP POP JUMP JUMPDEST PUSH0 PUSH2 0x1F81 DUP4 DUP4 PUSH2 0x1F5A JUMP JUMPDEST SWAP2 POP DUP3 PUSH1 0x2 MUL DUP3 OR SWAP1 POP SWAP3 SWAP2 POP POP JUMP JUMPDEST PUSH2 0x1F9A DUP3 PUSH2 0x1580 JUMP JUMPDEST PUSH8 0xFFFFFFFFFFFFFFFF DUP2 GT ISZERO PUSH2 0x1FB3 JUMPI PUSH2 0x1FB2 PUSH2 0x165F JUMP JUMPDEST JUMPDEST PUSH2 0x1FBD DUP3 SLOAD PUSH2 0x1DC4 JUMP JUMPDEST PUSH2 0x1FC8 DUP3 DUP3 DUP6 PUSH2 0x1F08 JUMP JUMPDEST PUSH0 PUSH1 0x20 SWAP1 POP PUSH1 0x1F DUP4 GT PUSH1 0x1 DUP2 EQ PUSH2 0x1FF9 JUMPI PUSH0 DUP5 ISZERO PUSH2 0x1FE7 JUMPI DUP3 DUP8 ADD MLOAD SWAP1 POP JUMPDEST PUSH2 0x1FF1 DUP6 DUP3 PUSH2 0x1F76 JUMP JUMPDEST DUP7 SSTORE POP PUSH2 0x2058 JUMP JUMPDEST PUSH1 0x1F NOT DUP5 AND PUSH2 0x2007 DUP7 PUSH2 0x1DF4 JUMP JUMPDEST PUSH0 JUMPDEST DUP3 DUP2 LT ISZERO PUSH2 0x202E JUMPI DUP5 DUP10 ADD MLOAD DUP3 SSTORE PUSH1 0x1 DUP3 ADD SWAP2 POP PUSH1 0x20 DUP6 ADD SWAP5 POP PUSH1 0x20 DUP2 ADD SWAP1 POP PUSH2 0x2009 JUMP JUMPDEST DUP7 DUP4 LT ISZERO PUSH2 0x204B JUMPI DUP5 DUP10 ADD MLOAD PUSH2 0x2047 PUSH1 0x1F DUP10 AND DUP3 PUSH2 0x1F5A JUMP JUMPDEST DUP4 SSTORE POP JUMPDEST PUSH1 0x1 PUSH1 0x2 DUP9 MUL ADD DUP9 SSTORE POP POP POP JUMPDEST POP POP POP POP POP POP JUMP JUMPDEST PUSH32 0x496E73756666696369656E7420636F6E74726163742062616C616E6365000000 PUSH0 DUP3 ADD MSTORE POP JUMP JUMPDEST PUSH0 PUSH2 0x2094 PUSH1 0x1D DUP4 PUSH2 0x158A JUMP JUMPDEST SWAP2 POP PUSH2 0x209F DUP3 PUSH2 0x2060 JUMP JUMPDEST PUSH1 0x20 DUP3 ADD SWAP1 POP SWAP2 SWAP1 POP JUMP JUMPDEST PUSH0 PUSH1 0x20 DUP3 ADD SWAP1 POP DUP2 DUP2 SUB PUSH0 DUP4 ADD MSTORE PUSH2 0x20C1 DUP2 PUSH2 0x2088 JUMP JUMPDEST SWAP1 POP SWAP2 SWAP1 POP JUMP JUMPDEST PUSH32 0x5061636B657420697320616C726561647920736F6C6400000000000000000000 PUSH0 DUP3 ADD MSTORE POP JUMP JUMPDEST PUSH0 PUSH2 0x20FC PUSH1 0x16 DUP4 PUSH2 0x158A JUMP JUMPDEST SWAP2 POP PUSH2 0x2107 DUP3 PUSH2 0x20C8 JUMP JUMPDEST PUSH1 0x20 DUP3 ADD SWAP1 POP SWAP2 SWAP1 POP JUMP JUMPDEST PUSH0 PUSH1 0x20 DUP3 ADD SWAP1 POP DUP2 DUP2 SUB PUSH0 DUP4 ADD MSTORE PUSH2 0x2129 DUP2 PUSH2 0x20F0 JUMP JUMPDEST SWAP1 POP SWAP2 SWAP1 POP JUMP JUMPDEST PUSH32 0x496E73756666696369656E742066756E64730000000000000000000000000000 PUSH0 DUP3 ADD MSTORE POP JUMP JUMPDEST PUSH0 PUSH2 0x2164 PUSH1 0x12 DUP4 PUSH2 0x158A JUMP JUMPDEST SWAP2 POP PUSH2 0x216F DUP3 PUSH2 0x2130 JUMP JUMPDEST PUSH1 0x20 DUP3 ADD SWAP1 POP SWAP2 SWAP1 POP JUMP JUMPDEST PUSH0 PUSH1 0x20 DUP3 ADD SWAP1 POP DUP2 DUP2 SUB PUSH0 DUP4 ADD MSTORE PUSH2 0x2191 DUP2 PUSH2 0x2158 JUMP JUMPDEST SWAP1 POP SWAP2 SWAP1 POP JUMP JUMPDEST PUSH0 PUSH1 0x20 DUP3 ADD SWAP1 POP PUSH2 0x21AB PUSH0 DUP4 ADD DUP5 PUSH2 0x15F0 JUMP JUMPDEST SWAP3 SWAP2 POP POP JUMP INVALID LOG2 PUSH5 0x6970667358 0x22 SLT KECCAK256 SWAP12 0xAC 0x2B 0xEC 0xD7 0xBB 0xEF DUP5 CALLVALUE 0xA5 0x4B BALANCE SWAP4 PUSH15 0xFF23AA75272145167F1C12389CAB5 0xC8 PUSH24 0xC264736F6C634300081A0033000000000000000000000000 "
				},
				"gasEstimates": {
					"creation": {
						"codeDepositCost": "1735800",
						"executionCost": "infinite",
						"totalCost": "infinite"
					},
					"external": {
						"buyKavaPacket()": "infinite",
						"growthIssues(uint256)": "infinite",
						"harvests(uint256)": "infinite",
						"kavaPacket()": "infinite",
						"owner()": "2582",
						"pestControls(uint256)": "infinite",
						"plantings(uint256)": "infinite",
						"recordGrowthIssue(string,string,string)": "infinite",
						"recordHarvest(string,string,uint256)": "infinite",
						"recordPestControl(string,string,string,uint256)": "infinite",
						"recordPlanting(string,string)": "infinite",
						"recordSale(uint256,uint256)": "infinite",
						"renounceOwnership()": "infinite",
						"sales(uint256)": "infinite",
						"setKavaPacket(address,string,string,uint256,uint256,uint256)": "infinite",
						"transferOwnership(address)": "infinite",
						"withdraw(uint256)": "infinite"
					}
				},
				"methodIdentifiers": {
					"buyKavaPacket()": "518e61c4",
					"growthIssues(uint256)": "0240579a",
					"harvests(uint256)": "35a423b0",
					"kavaPacket()": "3cb61bb3",
					"owner()": "8da5cb5b",
					"pestControls(uint256)": "c1aa2fc4",
					"plantings(uint256)": "90eeb918",
					"recordGrowthIssue(string,string,string)": "05bbfe54",
					"recordHarvest(string,string,uint256)": "7a861764",
					"recordPestControl(string,string,string,uint256)": "2a785dd9",
					"recordPlanting(string,string)": "edb32960",
					"recordSale(uint256,uint256)": "23586685",
					"renounceOwnership()": "715018a6",
					"sales(uint256)": "b5f522f7",
					"setKavaPacket(address,string,string,uint256,uint256,uint256)": "e3ffcc8c",
					"transferOwnership(address)": "f2fde38b",
					"withdraw(uint256)": "2e1a7d4d"
				}
			},
			"storageLayout": {
				"storage": [
					{
						"astId": 8,
						"contract": "KavaContract.sol:KavaContract",
						"label": "_owner",
						"offset": 0,
						"slot": "0",
						"type": "t_address"
					},
					{
						"astId": 545,
						"contract": "KavaContract.sol:KavaContract",
						"label": "plantings",
						"offset": 0,
						"slot": "1",
						"type": "t_array(t_struct(Planting)505_storage)dyn_storage"
					},
					{
						"astId": 549,
						"contract": "KavaContract.sol:KavaContract",
						"label": "pestControls",
						"offset": 0,
						"slot": "2",
						"type": "t_array(t_struct(PestControl)516_storage)dyn_storage"
					},
					{
						"astId": 553,
						"contract": "KavaContract.sol:KavaContract",
						"label": "growthIssues",
						"offset": 0,
						"slot": "3",
						"type": "t_array(t_struct(GrowthIssue)525_storage)dyn_storage"
					},
					{
						"astId": 557,
						"contract": "KavaContract.sol:KavaContract",
						"label": "harvests",
						"offset": 0,
						"slot": "4",
						"type": "t_array(t_struct(Harvest)534_storage)dyn_storage"
					},
					{
						"astId": 561,
						"contract": "KavaContract.sol:KavaContract",
						"label": "sales",
						"offset": 0,
						"slot": "5",
						"type": "t_array(t_struct(Sale)541_storage)dyn_storage"
					},
					{
						"astId": 808,
						"contract": "KavaContract.sol:KavaContract",
						"label": "kavaPacket",
						"offset": 0,
						"slot": "6",
						"type": "t_struct(Packet)805_storage"
					}
				],
				"types": {
					"t_address": {
						"encoding": "inplace",
						"label": "address",
						"numberOfBytes": "20"
					},
					"t_address_payable": {
						"encoding": "inplace",
						"label": "address payable",
						"numberOfBytes": "20"
					},
					"t_array(t_struct(GrowthIssue)525_storage)dyn_storage": {
						"base": "t_struct(GrowthIssue)525_storage",
						"encoding": "dynamic_array",
						"label": "struct KavaContract.GrowthIssue[]",
						"numberOfBytes": "32"
					},
					"t_array(t_struct(Harvest)534_storage)dyn_storage": {
						"base": "t_struct(Harvest)534_storage",
						"encoding": "dynamic_array",
						"label": "struct KavaContract.Harvest[]",
						"numberOfBytes": "32"
					},
					"t_array(t_struct(PestControl)516_storage)dyn_storage": {
						"base": "t_struct(PestControl)516_storage",
						"encoding": "dynamic_array",
						"label": "struct KavaContract.PestControl[]",
						"numberOfBytes": "32"
					},
					"t_array(t_struct(Planting)505_storage)dyn_storage": {
						"base": "t_struct(Planting)505_storage",
						"encoding": "dynamic_array",
						"label": "struct KavaContract.Planting[]",
						"numberOfBytes": "32"
					},
					"t_array(t_struct(Sale)541_storage)dyn_storage": {
						"base": "t_struct(Sale)541_storage",
						"encoding": "dynamic_array",
						"label": "struct KavaContract.Sale[]",
						"numberOfBytes": "32"
					},
					"t_bool": {
						"encoding": "inplace",
						"label": "bool",
						"numberOfBytes": "1"
					},
					"t_string_storage": {
						"encoding": "bytes",
						"label": "string",
						"numberOfBytes": "32"
					},
					"t_struct(GrowthIssue)525_storage": {
						"encoding": "inplace",
						"label": "struct KavaContract.GrowthIssue",
						"members": [
							{
								"astId": 518,
								"contract": "KavaContract.sol:KavaContract",
								"label": "location",
								"offset": 0,
								"slot": "0",
								"type": "t_string_storage"
							},
							{
								"astId": 520,
								"contract": "KavaContract.sol:KavaContract",
								"label": "issueType",
								"offset": 0,
								"slot": "1",
								"type": "t_string_storage"
							},
							{
								"astId": 522,
								"contract": "KavaContract.sol:KavaContract",
								"label": "actionTaken",
								"offset": 0,
								"slot": "2",
								"type": "t_string_storage"
							},
							{
								"astId": 524,
								"contract": "KavaContract.sol:KavaContract",
								"label": "timestamp",
								"offset": 0,
								"slot": "3",
								"type": "t_uint256"
							}
						],
						"numberOfBytes": "128"
					},
					"t_struct(Harvest)534_storage": {
						"encoding": "inplace",
						"label": "struct KavaContract.Harvest",
						"members": [
							{
								"astId": 527,
								"contract": "KavaContract.sol:KavaContract",
								"label": "location",
								"offset": 0,
								"slot": "0",
								"type": "t_string_storage"
							},
							{
								"astId": 529,
								"contract": "KavaContract.sol:KavaContract",
								"label": "variety",
								"offset": 0,
								"slot": "1",
								"type": "t_string_storage"
							},
							{
								"astId": 531,
								"contract": "KavaContract.sol:KavaContract",
								"label": "amount",
								"offset": 0,
								"slot": "2",
								"type": "t_uint256"
							},
							{
								"astId": 533,
								"contract": "KavaContract.sol:KavaContract",
								"label": "timestamp",
								"offset": 0,
								"slot": "3",
								"type": "t_uint256"
							}
						],
						"numberOfBytes": "128"
					},
					"t_struct(Packet)805_storage": {
						"encoding": "inplace",
						"label": "struct KavaContract.Packet",
						"members": [
							{
								"astId": 792,
								"contract": "KavaContract.sol:KavaContract",
								"label": "sellerAddress",
								"offset": 0,
								"slot": "0",
								"type": "t_address_payable"
							},
							{
								"astId": 794,
								"contract": "KavaContract.sol:KavaContract",
								"label": "sellerName",
								"offset": 0,
								"slot": "1",
								"type": "t_string_storage"
							},
							{
								"astId": 796,
								"contract": "KavaContract.sol:KavaContract",
								"label": "sellerContact",
								"offset": 0,
								"slot": "2",
								"type": "t_string_storage"
							},
							{
								"astId": 798,
								"contract": "KavaContract.sol:KavaContract",
								"label": "quality",
								"offset": 0,
								"slot": "3",
								"type": "t_uint256"
							},
							{
								"astId": 800,
								"contract": "KavaContract.sol:KavaContract",
								"label": "quantity",
								"offset": 0,
								"slot": "4",
								"type": "t_uint256"
							},
							{
								"astId": 802,
								"contract": "KavaContract.sol:KavaContract",
								"label": "price",
								"offset": 0,
								"slot": "5",
								"type": "t_uint256"
							},
							{
								"astId": 804,
								"contract": "KavaContract.sol:KavaContract",
								"label": "isSold",
								"offset": 0,
								"slot": "6",
								"type": "t_bool"
							}
						],
						"numberOfBytes": "224"
					},
					"t_struct(PestControl)516_storage": {
						"encoding": "inplace",
						"label": "struct KavaContract.PestControl",
						"members": [
							{
								"astId": 507,
								"contract": "KavaContract.sol:KavaContract",
								"label": "location",
								"offset": 0,
								"slot": "0",
								"type": "t_string_storage"
							},
							{
								"astId": 509,
								"contract": "KavaContract.sol:KavaContract",
								"label": "pestType",
								"offset": 0,
								"slot": "1",
								"type": "t_string_storage"
							},
							{
								"astId": 511,
								"contract": "KavaContract.sol:KavaContract",
								"label": "method",
								"offset": 0,
								"slot": "2",
								"type": "t_string_storage"
							},
							{
								"astId": 513,
								"contract": "KavaContract.sol:KavaContract",
								"label": "cost",
								"offset": 0,
								"slot": "3",
								"type": "t_uint256"
							},
							{
								"astId": 515,
								"contract": "KavaContract.sol:KavaContract",
								"label": "timestamp",
								"offset": 0,
								"slot": "4",
								"type": "t_uint256"
							}
						],
						"numberOfBytes": "160"
					},
					"t_struct(Planting)505_storage": {
						"encoding": "inplace",
						"label": "struct KavaContract.Planting",
						"members": [
							{
								"astId": 500,
								"contract": "KavaContract.sol:KavaContract",
								"label": "location",
								"offset": 0,
								"slot": "0",
								"type": "t_string_storage"
							},
							{
								"astId": 502,
								"contract": "KavaContract.sol:KavaContract",
								"label": "variety",
								"offset": 0,
								"slot": "1",
								"type": "t_string_storage"
							},
							{
								"astId": 504,
								"contract": "KavaContract.sol:KavaContract",
								"label": "timestamp",
								"offset": 0,
								"slot": "2",
								"type": "t_uint256"
							}
						],
						"numberOfBytes": "96"
					},
					"t_struct(Sale)541_storage": {
						"encoding": "inplace",
						"label": "struct KavaContract.Sale",
						"members": [
							{
								"astId": 536,
								"contract": "KavaContract.sol:KavaContract",
								"label": "amount",
								"offset": 0,
								"slot": "0",
								"type": "t_uint256"
							},
							{
								"astId": 538,
								"contract": "KavaContract.sol:KavaContract",
								"label": "price",
								"offset": 0,
								"slot": "1",
								"type": "t_uint256"
							},
							{
								"astId": 540,
								"contract": "KavaContract.sol:KavaContract",
								"label": "timestamp",
								"offset": 0,
								"slot": "2",
								"type": "t_uint256"
							}
						],
						"numberOfBytes": "96"
					},
					"t_uint256": {
						"encoding": "inplace",
						"label": "uint256",
						"numberOfBytes": "32"
					}
				}
			},
			"userdoc": {
				"kind": "user",
				"methods": {},
				"version": 1
			}
		}
	}
}